:020000040800F2
:1000000000000220C91D0008F91C0008FF1C0008A0
:10001000051D00080B1D0008111D00080000000050
:1000200000000000000000000000000091640008D3
:10003000171D000800000000E16600080D410008DF
:10004000191E0008191E0008191E0008191E0008B4
:10005000191E0008191E0008191E0008191E0008A4
:10006000191E0008191E0008191E0008191E000894
:10007000191E0008191E0008191E0008191E000884
:10008000191E0008191E0008191E0008191E000874
:10009000191E0008191E0008191E0008191E000864
:1000A000191E0008191E0008191E0008191E000854
:1000B000191E0008191E0008191E0008191E000844
:1000C000191E0008191E0008191E0008191E000834
:1000D000191E0008191E0008191E0008191E000824
:1000E000191E0008191E0008191E0008191E000814
:1000F000191E0008191E0008191E0008191E000804
:10010000191E0008191E0008191E0008191E0008F3
:10011000191E0008191E0008251D0008191E0008D8
:10012000191E0008191E0008191E0008191E0008D3
:10013000191E0008191E0008191E0008191E0008C3
:10014000191E0008191E0008191E0008191E0008B3
:10015000191E0008191E0008191E0008191E0008A3
:10016000191E0008191E0008191E0008191E000893
:10017000191E0008191E0008191E000800000000C2
:08018000191E0008191E0008F9
:1001900010B5054C237833B9044B13B10448AFF3C1
:1001A00000800123237010BD90000020000000009B
:1001B0006C80000808B5034B1BB103490348AFF33B
:1001C000008008BD00000000940000206C80000842
:1001D00001F0FF01102A2BDB10F0070F08D010F8F8
:1001E000013B013A8B422DD010F0070F42B3F6D1FC
:1001F000F0B441EA012141EA014122F007047FF015
:1002000000070023F0E80256083C85EA010586EA6B
:10021000010685FA47F5A3FA87F586FA47F6A5FAA7
:1002200087F68EB9EED1F0BC01F0FF0102F00702B3
:1002300032B110F8013B013A83EA010313B1F8D15E
:100240000020704701387047002D06BF354603383F
:10025000073815F0010F07D1013015F4807F02BF78
:10026000013015F4C03F0130F0BC0138704700BFC9
:1002700081F0004102E000BF83F0004330B54FEA57
:1002800041044FEA430594EA050F08BF90EA020FC4
:100290001FBF54EA000C55EA020C7FEA645C7FEA57
:1002A000655C00F0E2804FEA5454D4EB5555B8BF7A
:1002B0006D420CDD2C4480EA020281EA030382EAEB
:1002C000000083EA010180EA020281EA0303362D7D
:1002D00088BF30BD11F0004F4FEA01314FF4801C50
:1002E0004CEA113102D0404261EB410113F0004F62
:1002F0004FEA03334CEA133302D0524263EB430319
:1003000094EA050F00F0A780A4F10104D5F1200EB6
:100310000DDB02FA0EFC22FA05F2801841F1000111
:1003200003FA0EF2801843FA05F359410EE0A5F1E5
:1003300020050EF1200E012A03FA0EFC28BF4CF016
:10034000020C43FA05F3C01851EBE37101F00045CC
:1003500007D54FF0000EDCF1000C7EEB00006EEBD9
:100360000101B1F5801F1BD3B1F5001F0CD3490863
:100370005FEA30004FEA3C0C04F101044FEA4452BA
:1003800012F5800F80F09A80BCF1004F08BF5FEA41
:10039000500C50F1000041EB045141EA050130BD21
:1003A0005FEA4C0C404141EB0101013C28BFB1F533
:1003B000801FE9D291F0000F04BF01460020B1FA7E
:1003C00081F308BF2033A3F10B03B3F120020CDA51
:1003D0000C3208DD02F1140CC2F10C0201FA0CF02F
:1003E00021FA02F10CE002F11402D8BFC2F1200C94
:1003F00001FA02F120FA0CFCDCBF41EA0C0190404A
:10040000E41AA2BF01EB0451294330BD6FEA040492
:100410001F3C1CDA0C340EDC04F11404C4F120027D
:1004200020FA04F001FA02F340EA030021FA04F38F
:1004300045EA030130BDC4F10C04C4F1200220FAE6
:1004400002F001FA04F340EA0300294630BD21FA24
:1004500004F0294630BD94F0000F83F4801306BFEA
:1004600081F480110134013D4EE77FEA645C18BFDE
:100470007FEA655C29D094EA050F08BF90EA020F75
:1004800005D054EA000C04BF1946104630BD91EA6D
:10049000030F1EBF0021002030BD5FEA545C05D170
:1004A0004000494128BF41F0004130BD14F58004AF
:1004B0003CBF01F5801130BD01F0004545F0FE4123
:1004C00041F470014FF0000030BD7FEA645C1ABF58
:1004D000194610467FEA655C1CBF0B46024650EA8F
:1004E000013406BF52EA033591EA030F41F40021BB
:1004F00030BD00BF90F0000F04BF0021704730B541
:100500004FF4806404F132044FF000054FF0000115
:1005100050E700BF90F0000F04BF0021704730B5D6
:100520004FF4806404F1320410F0004548BF4042AB
:100530004FF000013EE700BF42004FEAE2014FEA00
:1005400031014FEA02701FBF12F07F4393F07F4FDB
:1005500081F06051704732F07F4208BF704793F0DE
:100560007F4F04BF41F40021704730B54FF46074F1
:1005700001F0004521F000411CE700BF50EA0102F4
:1005800008BF704730B54FF000050AE050EA01029D
:1005900008BF704730B511F0004502D5404261EB0D
:1005A00041014FF4806404F132045FEA915C3FF44E
:1005B000D8AE4FF003025FEADC0C18BF03325FEAEB
:1005C000DC0C18BF033202EBDC02C2F1200300FA9C
:1005D00003FC20FA02F001FA03FE40EA0E0021FAC1
:1005E00002F11444BDE600BF70B54FF0FF0C4CF4AF
:1005F000E06C1CEA11541DBF1CEA135594EA0C0F61
:1006000095EA0C0F00F0DEF82C4481EA030621EA9B
:100610004C5123EA4C5350EA013518BF52EA0335D6
:1006200041F4801143F4801338D0A0FB02CE4FF088
:100630000005E1FB02E506F00042E0FB03E54FF0B8
:100640000006E1FB03569CF0000F18BF4EF0010EB0
:10065000A4F1FF04B6F5007F64F5407404D25FEAAC
:100660004E0E6D4146EB060642EAC62141EA55515F
:100670004FEAC52040EA5E504FEACE2EB4F1FD0CA1
:1006800088BFBCF5E06F1ED8BEF1004F08BF5FEA1F
:10069000500E50F1000041EB045170BD06F00046D1
:1006A00046EA010140EA020081EA0301B4EB5C047E
:1006B000C2BFD4EB0C0541EA045170BD41F4801176
:1006C0004FF0000E013C00F3AB8014F1360FDEBF9B
:1006D000002001F0004170BDC4F10004203C35DA77
:1006E0000C341BDC04F11404C4F1200500FA05F3FA
:1006F00020FA04F001FA05F240EA020001F000429B
:1007000021F0004110EBD37021FA04F642EB060110
:100710005EEA430E08BF20EAD37070BDC4F10C043A
:10072000C4F1200500FA04F320FA05F001FA04F2FE
:1007300040EA020001F0004110EBD37041F10001EA
:100740005EEA430E08BF20EAD37070BDC4F12005F5
:1007500000FA05F24EEA020E20FA04F301FA05F25D
:1007600043EA020321FA04F001F0004121FA04F205
:1007700020EA020000EBD3705EEA430E08BF20EAD5
:10078000D37070BD94F0000F0FD101F0004640000F
:1007900041EB010111F4801F08BF013CF7D041EA91
:1007A000060195F0000F18BF704703F00046520095
:1007B00043EB030313F4801F08BF013DF7D043EA66
:1007C0000603704794EA0C0F0CEA135518BF95EA1C
:1007D0000C0F0CD050EA410618BF52EA4306D1D1A3
:1007E00081EA030101F000414FF0000070BD50EAC2
:1007F000410606BF1046194652EA430619D094EA4C
:100800000C0F02D150EA013613D195EA0C0F05D135
:1008100052EA03361CBF104619460AD181EA030189
:1008200001F0004141F0FE4141F470014FF0000041
:1008300070BD41F0FE4141F4780170BD70B54FF0DC
:10084000FF0C4CF4E06C1CEA11541DBF1CEA13555C
:1008500094EA0C0F95EA0C0F00F0A7F8A4EB05043E
:1008600081EA030E52EA03354FEA013100F0888035
:100870004FEA03334FF0805545EA131343EA1263FE
:100880004FEA022245EA111545EA10654FEA0026B3
:100890000EF000419D4208BF964244F1FD0404F56C
:1008A000407402D25B084FEA3202B61A65EB0305C8
:1008B0005B084FEA32024FF480104FF4002CB6EB85
:1008C000020E75EB030E22BFB61A754640EA0C0005
:1008D0005B084FEA3202B6EB020E75EB030E22BF45
:1008E000B61A754640EA5C005B084FEA3202B6EB86
:1008F000020E75EB030E22BFB61A754640EA9C0045
:100900005B084FEA3202B6EB020E75EB030E22BF14
:10091000B61A754640EADC0055EA060E18D04FEAD2
:10092000051545EA16754FEA06164FEAC30343EA72
:1009300052734FEAC2025FEA1C1CC0D111F4801F3F
:100940000BD141EA00014FF000004FF0004CB6E738
:1009500011F4801F04BF01430020B4F1FD0C88BFD7
:10096000BCF5E06F3FF6AFAEB5EB030C04BFB6EBE2
:10097000020C5FEA500C50F1000041EB045170BDD5
:100980000EF0004E4EEA113114EB5C04C2BFD4EB02
:100990000C0541EA045170BD41F480114FF0000E86
:1009A000013C90E645EA060E8DE60CEA135594EA02
:1009B0000C0F08BF95EA0C0F3FF43BAF94EA0C0F05
:1009C0000AD150EA01347FF434AF95EA0C0F7FF47A
:1009D00025AF104619462CE795EA0C0F06D152EACE
:1009E00003353FF4FDAE1046194622E750EA4106B2
:1009F00018BF52EA43067FF4C5AE50EA41047FF4C3
:100A00000DAF52EA43057FF4EBAE12E74FF0FF3C27
:100A100006E000BF4FF0010C02E000BF4FF0010CF8
:100A20004DF804CD4FEA410C7FEA6C5C4FEA430C71
:100A300018BF7FEA6C5C1BD001B050EA410C0CBFC0
:100A400052EA430C91EA030F02BF90EA020F002022
:100A5000704710F1000F91EA030F58BF994208BF89
:100A600090422CBFD8176FEAE37040F00100704746
:100A70004FEA410C7FEA6C5C02D150EA013C07D19D
:100A80004FEA430C7FEA6C5CD6D152EA033CD3D0E8
:100A90005DF8040B704700BF8446104662468C46E2
:100AA0001946634600E000BF01B5FFF7B7FF002815
:100AB00048BF10F1000F01BD4DF808EDFFF7F4FF3E
:100AC0000CBF012000205DF808FB00BF4DF808EDC9
:100AD000FFF7EAFF34BF012000205DF808FB00BFEC
:100AE0004DF808EDFFF7E0FF94BF012000205DF80E
:100AF00008FB00BF4DF808EDFFF7CEFF94BF0120C3
:100B000000205DF808FB00BF4DF808EDFFF7C4FFBB
:100B100034BF012000205DF808FB00BF4FEA41020E
:100B200012F5001215D211D56FF47873B3EB62523F
:100B300012D94FEAC12343F0004343EA505311F066
:100B4000004F23FA02F018BF404270474FF00000F8
:100B5000704750EA013005D111F0004008BF6FF036
:100B6000004070474FF00000704700BF4A0011D2AC
:100B700012F5001211D20DD56FF47873B3EB6252F7
:100B80000ED44FEAC12343F0004343EA505323FA03
:100B900002F070474FF00000704750EA013002D178
:100BA0004FF0FF3070474FF00000704753B94AB91B
:100BB000002908BF00281CBF4FF0FF314FF0FF3065
:100BC00000F06EB9ADF1080C6DE904CE00F006F846
:100BD000DDF804E0DDE9022304B070472DE9F047B9
:100BE000089D04468C46002B40F083808A421746BD
:100BF00047D9B2FA82F242B1C2F1200024FA00F0E1
:100C00009140974040EA010C94404FEA1748230C6A
:100C1000BCFBF8F61FFA87FE08FB16C143EA014346
:100C200006FB0EF1994209D9FB1806F1FF3080F05E
:100C30001981994240F21681023E3B445B1AA4B2EC
:100C4000B3FBF8F008FB103344EA034400FB0EFE4C
:100C5000A64509D93C1900F1FF3380F00581A6456E
:100C600040F2028102383C4440EA0640A4EB0E0404
:100C700000261DB1D4400023C5E900433146BDE83C
:100C8000F08702B9FFDEB2FA82F2002A50D1CB1B04
:100C90004FEA174E1FFA87F80126B3FBFEFC210C22
:100CA0000EFB1C3341EA034108FB0CF38B4207D9CE
:100CB00079180CF1FF3002D28B4200F2E9808446B1
:100CC000C91AA3B2B1FBFEF00EFB101143EA0144B6
:100CD00008FB00F8A04507D93C1900F1FF3302D208
:100CE000A04500F2D9801846A4EB080440EA0C4065
:100CF000BFE78B4209D9002D00F0B1800026C5E97D
:100D0000000130463146BDE8F087B3FA83F6002E85
:100D10004AD18B4202D3824200F2B880841A61EB3E
:100D2000030101208C46002DA8D0C5E9004CA5E7A1
:100D3000C2F1200320FA03F6974001FA02F04FEACD
:100D4000174ED9403043030CB1FBFEF61FFA87F86B
:100D50000EFB161143EA014306FB08F1994204FA1F
:100D600002F409D9FB1806F1FF3C80F08D8099420E
:100D700040F28A80023E3B445B1A81B2B3FBFEF034
:100D80000EFB103341EA034100FB08F38B4207D905
:100D9000791800F1FF3C73D28B4271D90238394483
:100DA000CB1A40EA064678E7C6F1200C03FA06F4AF
:100DB00022FA0CF31C4320FA0CF701FA06F34FEA6F
:100DC000144E21FA0CF11F433B0CB1FBFEF91FFA44
:100DD00084F80EFB191143EA014109FB08FA8A4520
:100DE00002FA06F200FA06F308D9611809F1FF3099
:100DF00048D28A4546D9A9F102092144A1EB0A014A
:100E0000BFB2B1FBFEF00EFB101147EA014700FB39
:100E100008F8B84507D9E71900F1FF312ED2B845D7
:100E20002CD90238274440EA0940A7EB0807A0FB69
:100E300002894F45C64649461AD317D05DB1B3EB78
:100E40000E0267EB010707FA0CFCF2404CEA0202C3
:100E5000F740C5E9002700263146BDE8F0872E4659
:100E600028460BE70646E9E61846FDE64345E5D287
:100E7000B8EB020E69EB04010138DFE70846D2E760
:100E800060468DE78146B9E7664675E730464AE732
:100E9000ACF1020C394413E702383C4424E700BFAC
:100EA000704700BF80B483B000AF87ED000B3A6895
:100EB000796821F0004343EC172BB0EE470AF0EEBF
:100EC000670A0C37BD465DF8047B704780B500AFFC
:100ED00000F0A4FF00F038F800F02AFA00F058F90A
:100EE00000F09AF800F0F6F803F02AF90D4A002114
:100EF0000D4803F06FF903460C4A13600C4A0021B9
:100F00000C4803F067F903460B4A13600B4A0021B3
:100F10000B4803F05FF903460A4A136003F034F903
:100F2000FEE700BF3481000839140008B802002031
:100F30005881000849140008BC0200207C81000888
:100F4000F1170008C002002080B594B000AF07F18F
:100F5000200330220021184606F0E4FB07F10C03C1
:100F600000221A605A609A60DA601A610023BB603E
:100F7000274B1B6C264A43F080531364244B1B6C95
:100F800003F08053BB60BB6800237B60214B1B6870
:100F9000204A43F4804313601E4B1B6803F48043D4
:100FA0007B607B6802233B620123FB6210233B636F
:100FB0000023BB6307F12003184601F055FA0346EE
:100FC000002B14BF01230023DBB2002B01D000F063
:100FD000A9FC0F23FB6000233B6100237B610023FE
:100FE000BB610023FB6107F10C030021184601F0EF
:100FF000B3FC0346002B14BF01230023DBB2002BFC
:1010000001D000F08FFC00BF5037BD4680BD00BF4F
:10101000003802400070004080B58CB000AF07F18E
:101020000C0324220021184606F07CFB3B1D002205
:101030001A605A60264B4FF080421A60244B0022FF
:101040005A60234B00229A60214B4FF6FF72DA6000
:101050001F4B00221A611E4B80229A610323FB6002
:1010600000233B6101237B610023BB610A23FB61F9
:1010700000233B6201237B620023BB620A23FB62E5
:1010800007F10C031946124802F036F80346002B0C
:1010900014BF01230023DBB2002B01D000F042FC7F
:1010A00000237B600023BB603B1D1946084802F00B
:1010B00021FF0346002B14BF01230023DBB2002BCA
:1010C00001D000F02FFC00BF3037BD4680BD00BF0F
:1010D000E001002080B58CB000AF07F10C032422A2
:1010E0000021184606F01EFB3B1D00221A605A60C4
:1010F000254B264A1A60244B00225A60224B0022BC
:101100009A60214B4FF6FF72DA601F4B00221A6182
:101110001D4B80229A610323FB6000233B61012366
:101120007B610023BB610A23FB6100233B62012337
:101130007B620023BB620A23FB6207F10C031946A2
:10114000114801F0D9FF0346002B14BF01230023EF
:10115000DBB2002B01D000F0E5FB00237B60002315
:10116000BB603B1D1946084802F0C4FE0346002B35
:1011700014BF01230023DBB2002B01D000F0D2FB0F
:1011800000BF3037BD4680BD28020020000400406B
:1011900080B596B000AF07F1480300221A605A608C
:1011A0009A60DA6007F1400300221A605A6007F182
:1011B000240300221A605A609A60DA601A615A6148
:1011C0009A613B1D20220021184606F0ABFA564BCF
:1011D000564A1A60544B01225A60534B00229A60BF
:1011E000514B41F63F72DA604F4B00221A614E4B71
:1011F00000225A614C4B80229A614B4801F09AFDC3
:101200000346002B14BF01230023DBB2002B01D0C7
:1012100000F088FB4FF48053BB6407F14803194684
:10122000414802F067FA0346002B14BF0123002354
:10123000DBB2002B01D000F075FB3B4801F03AFE19
:101240000346002B14BF01230023DBB2002B01D087
:1012500000F068FB00233B6400237B6407F140033C
:101260001946314802F046FE0346002B14BF012305
:101270000023DBB2002B01D000F054FB60237B6223
:101280000023BB620023FB6200233B6300237B63DC
:101290000023BB630023FB6307F1240300221946EC
:1012A000214802F065F90346002B14BF01230023F7
:1012B000DBB2002B01D000F035FB07F12403042240
:1012C0001946194802F054F90346002B14BF0123B4
:1012D0000023DBB2002B01D000F024FB00237B6055
:1012E0000023BB600023FB6000233B6100237B6184
:1012F0004FF40053BB6100233B623B1D19460A4873
:1013000002F074FE0346002B14BF01230023DBB25E
:10131000002B01D000F006FB034800F05BFC00BF8F
:101320005837BD4680BD00BF700200200004014058
:1013300080B58AB000AF07F1140300221A605A602A
:101340009A60DA601A6100233B61384B1B6B374AA5
:1013500043F010031363354B1B6B03F010033B6129
:101360003B690023FB60314B1B6B304A43F00103A8
:1013700013632E4B1B6B03F00103FB60FB68002320
:10138000BB602A4B1B6B294A43F004031363274BB2
:101390001B6B03F00403BB60BB6800237B60234B23
:1013A0001B6B224A43F002031363204B1B6B03F0B9
:1013B00002037B607B6800224FF4F0711C4801F04F
:1013C00011F800223C211B4801F00CF84FF4F07397
:1013D0007B610123BB610023FB6100233B6207F1BA
:1013E00014031946124800F061FE0C237B610123AF
:1013F000BB610023FB6102233B6207F11403194622
:101400000C4800F053FE30237B610123BB610023B5
:10141000FB6100233B6207F114031946054800F005
:1014200045FE00BF2837BD4680BD00BF00380240E2
:10143000001002400000024080B582B000AF78602A
:10144000012002F059FFFBE790B58BB000AF786048
:101450003C21954801F0F6FE3C21944801F0F2FE53
:10146000914B1B685B6A7B6200F00EFD0346FB61DB
:101470008E4B1B685B6A3B6200F006FD0346BB6156
:1014800000218B4801F070FD0421894801F06CFDBA
:1014900001220421874800F0A5FF00220821854889
:1014A00000F0A0FF01222021824800F09BFF0022D3
:1014B0001021804800F096FF7F4979A3D3E90023EB
:1014C000C1E900237D4976A3D3E90023C1E90023C4
:1014D00001217B4805F021FE01217A4805F01DFE1F
:1014E000714B1B685B6A7B6100F0CEFC03463B617D
:1014F0006E4B1B685B6AFB6000F0C6FC0346BB607A
:10150000694B1B681B6803F01003102B0CBF0123F1
:101510000023DBB2002B12D07A697B6A9A4205DC89
:101520007A6A7B69D31A684A13601AE07B69C3F54B
:101530007F43FF337A6A1344634A136011E07A6988
:101540007B6A9A4205DB7A697B6AD31A5E4A13602A
:1015500007E07B6AC3F57F43FF337A6913445A4A35
:1015600013603A69FB69D31A584A13604F4B1B68E2
:101570001B6803F01003102B0CBF01230023DBB208
:10158000002B12D0FA683B6A9A4205DC3A6AFB6883
:10159000D31A4F4A13601AE0FB68C3F57F43FF3349
:1015A0003A6A13444A4A136011E0FA683B6A9A4265
:1015B00005DBFA683B6AD31A454A136007E03B6AC9
:1015C000C3F57F43FF33FA681344414A1360BA6896
:1015D000BB69D31A3F4A13603D4B1B681846FEF7A0
:1015E00099FF3D4BD3E90023FEF748FE02460B4628
:1015F0003949C1E90023344B1B681846FEF78AFFBE
:10160000364BD3E90023FEF739FE02460B46334939
:10161000C1E900232F4B1B681946294805F072FBCE
:10162000254BD3E900012C4BD3E90023FEF724FE20
:1016300002460B4643EC172BB0EE470AF0EE670A62
:10164000FFF730FC51EC100B01231C464FF0000259
:10165000234BFFF73BFA0346002B01D100231C4626
:10166000E3B2002B40D0144BD3E900231A49C1E95F
:1016700000231C494FF000024FF00003C1E9002392
:10168000184BD3E9002310461946FFF76FFA0346BB
:101690009AB2074B1B689A6332E000BFAFF3008039
:1016A000000000000038A840E001002028020020CF
:1016B0007002002000000240C00000205001002005
:1016C000D800002068010020B0000020AC000020FD
:1016D000B8000020B4000020D000002060010020ED
:1016E00000003440C8000020374BD3E900231046E7
:1016F0001946FFF73BFA03469AB2344B1B689A63CC
:10170000334B1B681946334805F0FCFA324BD3E9DA
:101710000001324BD3E90023FEF7AEFD02460B4633
:1017200043EC172BB0EE470AF0EE670AFFF7BAFB5F
:1017300051EC100B01231C464FF00002284BFFF721
:10174000C5F90346002B01D100231C46E3B2002B50
:1017500019D0214BD3E900232049C1E900232149B5
:101760004FF000024FF00003C1E900231D4BD3E905
:10177000002310461946FFF7F9F903469AB2134BB6
:101780001B685A630BE0174BD3E900231046194638
:10179000FFF7ECF903469AB20C4B1B685A63124BE5
:1017A0001B685B6A7B6200F06FFB0346FB610F4BBB
:1017B0001B685B6A3B6200F067FB0346BB6132203B
:1017C00002F09AFD8CE600BFC800002070020020E5
:1017D000AC000020680100205001002060010020C2
:1017E0000000344058010020E001002028020020C1
:1017F00090B5A3B002AF786005F0CEFE0023FB6782
:101800000023BB67344B1B68FA6F1344FB67334BF1
:101810001B68BA6F1344BB67314BD3E900231046F2
:101820001946FFF77BF904462E4BD3E900231046F7
:101830001946FFF773F9034607F1080000932346A2
:10184000294A322106F04AF87867284BD3E9002369
:1018500010461946FFF762F90446254BD3E90023E9
:1018600010461946FFF75AF9034607F13C0000936A
:101870002346204A322106F031F838677B6F002B6F
:1018800002DB7B6F312B06D907F108031A4A32219C
:10189000184606F023F83B6F002B02DB3B6F312B21
:1018A00006D907F13C03154A3221184606F016F80E
:1018B00007F108031A460021002005F03BFE07F15E
:1018C0003C031A461E21002005F034FE05F0C0FC42
:1018D000642002F011FD95E7B0000020B800002060
:1018E0006001002058010020B4800008D0000020D2
:1018F000C8000020CC800008E480000800810008B7
:1019000080B582B000AF78607B681B68044A934260
:1019100001D100F0A5FA00BF0837BD4680BD00BF69
:101920000010004080B400AF72B600BFFEE70000B8
:1019300080B584B002AF786039607B68012B3ED1FE
:101940003B684FF6FF72934239D11F4B93ED007BFA
:101950001E4B93ED006B1E4B93ED005B0023009339
:10196000B0EE452AF0EE652AB0EE461AF0EE661AA1
:10197000B0EE470AF0EE670A164B174A17491848A7
:1019800005F09EF9104B93ED007B104B93ED006B2F
:101990000F4B93ED005B00230093B0EE452AF0EE71
:1019A000652AB0EE461AF0EE661AB0EE470AF0EE7F
:1019B000670A0C4B0C4A0D490D4805F081F900BF30
:1019C0000837BD4680BD00BF000000200800002091
:1019D00010000020C0000020C8000020D00000201F
:1019E000D800002050010020580100206001002094
:1019F0006801002080B500AF4FF6FF710120FFF7AE
:101A000097FF80BD80B582B000AF00237B60124B92
:101A10005B6C114A43F4804353640F4B5B6C03F4DB
:101A200080437B607B6800233B600B4B1B6C0A4A46
:101A300043F080531364084B1B6C03F080533B60EE
:101A40003B6800220F216FF0010000F005FB00BF92
:101A50000837BD4680BD00BF0038024080B58CB05D
:101A600000AF786007F11C0300221A605A609A6088
:101A7000DA601A617B681B68B3F1804F4BD1002399
:101A8000BB613F4B1B6C3E4A43F0010313643C4B6C
:101A90001B6C03F00103BB61BB6900237B61384B06
:101AA0001B6B374A43F001031363354B1B6B03F089
:101AB00001037B617B6900233B61314B1B6B304A27
:101AC00043F0020313632E4B1B6B03F002033B61D5
:101AD0003B694FF40043FB6102233B6200237B62BE
:101AE0000023BB620123FB6207F11C031946254852
:101AF00000F0DCFA0823FB6102233B6200237B62D7
:101B00000023BB620123FB6207F11C0319461E4838
:101B100000F0CCFA30E07B681B681C4A93422BD162
:101B20000023FB60164B1B6C154A43F00203136441
:101B3000134B1B6C03F00203FB60FB680023BB60CC
:101B40000F4B1B6B0E4A43F0010313630C4B1B6BD3
:101B500003F00103BB60BB68C023FB6102233B624F
:101B600000237B620023BB620223FB6207F11C039C
:101B70001946044800F09AFA00BF3037BD4680BDD0
:101B8000003802400000024000040240000400400F
:101B900080B485B000AF78607B681B680B4A9342C5
:101BA0000DD10023FB600A4B5B6C094A43F0020332
:101BB0005364074B5B6C03F00203FB60FB6800BFE0
:101BC0001437BD465DF8047B704700BF0004014038
:101BD0000038024080B588B000AF786007F10C0390
:101BE00000221A605A609A60DA601A617B681B688A
:101BF000124A93421DD10023BB60114B1B6B104A4C
:101C000043F0040313630E4B1B6B03F00403BB6030
:101C1000BB68C023FB6002233B6100237B61002380
:101C2000BB610323FB6107F10C031946054800F073
:101C30003DFA00BF2037BD4680BD00BF0004014013
:101C4000003802400008024080B58CB000AF7860D8
:101C50000023FB620023BB6200227968362000F07B
:101C6000FBF9362000F014FA0023FB601E4B1B6CBE
:101C70001D4A43F0100313641B4B1B6C03F010034D
:101C8000FB60FB6807F1100207F1140311461846C8
:101C900001F01EF801F008F8F862FB6A134AA2FB93
:101CA00003239B0C013BBB62114B124A1A60104B81
:101CB00040F2E732DA600E4ABB6A53600C4B0022F6
:101CC0001A610B4B00229A60094801F033F8034671
:101CD000002B04D1064801F07DF8034600E0012303
:101CE00018463037BD4680BD0038024083DE1B43B6
:101CF000A05000200010004080B400AFFEE780B488
:101D000000AFFEE780B400AFFEE780B400AFFEE7AF
:101D100080B400AFFEE780B400AF00BFBD465DF801
:101D2000047B704780B500AF024801F019FB00BF8B
:101D300080BD00BFA050002080B586B000AF7860A5
:101D4000144A154BD31A7B617B693B61134B1B68AB
:101D5000002B02D1114B124A1A60104B1A687B6893
:101D600013443A699A4207D205F0A2FC03460C22BA
:101D70001A604FF0FF3309E0084B1B68FB60074B0C
:101D80001A687B681344054A1360FB6818461837C5
:101D9000BD4680BD0000022000040000C4020020F7
:101DA0004051002080B400AF064BD3F88830054A7C
:101DB00043F47003C2F8883000BFBD465DF8047B71
:101DC000704700BF00ED00E0DFF834D00D480E4949
:101DD0000E4A002302E0D458C4500433C4188C4285
:101DE000F9D30B4A0B4C002301E013600432A242EA
:101DF000FBD3FFF7D7FF05F061FCFFF767F87047EB
:101E000000000220000000208C000020C48C00088C
:101E1000900000203C510020FEE7000080B500AF9C
:101E20000E4B1B680D4A43F4007313600B4B1B6889
:101E30000A4A43F480631360084B1B68074A43F463
:101E400080731360032000F0FCF80F20FFF7FCFE06
:101E5000FFF7D8FD0023184680BD00BF003C0240BC
:101E600080B400AF064B1B781A46064B1B68134420
:101E7000044A136000BFBD465DF8047B704700BF95
:101E800020000020E850002080B400AF034B1B6806
:101E90001846BD465DF8047B704700BFE85000203F
:101EA00080B584B000AF7860FFF7EEFFB8607B6864
:101EB000FB60FB68B3F1FF3F05D00A4B1B781A4665
:101EC000FB681344FB6000BFFFF7DEFF0246BB6800
:101ED000D31AFA689A42F7D800BF00BF1037BD4640
:101EE00080BD00BF2000002080B485B000AF7860C6
:101EF0007B6803F00703FB600C4BDB68BB60BA68D0
:101F00004FF6FF031340BB60FB681A02BB68134324
:101F100043F0BF6343F40033BB60044ABB68D36043
:101F200000BF1437BD465DF8047B704700ED00E04C
:101F300080B400AF044BDB681B0A03F007031846AC
:101F4000BD465DF8047B704700ED00E080B483B0CF
:101F500000AF0346FB7197F90730002B0BDBFB79D1
:101F600003F01F02074997F907305B09012000FAC7
:101F700002F241F8232000BF0C37BD465DF8047B18
:101F8000704700BF00E100E080B483B000AF0346BB
:101F90003960FB7197F90730002B0ADB3B68DAB236
:101FA0000C4997F907301201D2B20B4483F8002391
:101FB0000AE03B68DAB20849FB7903F00F03043BFF
:101FC0001201D2B20B441A7600BF0C37BD465DF841
:101FD000047B704700E100E000ED00E080B489B0D0
:101FE00000AFF860B9607A60FB6803F00703FB613B
:101FF000FB69C3F10703042B28BF0423BB61FB6902
:102000000433062B02D9FB69033B00E000237B610C
:102010004FF0FF32BB6902FA03F3DA43BB681A40A0
:102020007B699A404FF0FF317B6901FA03F3D94392
:102030007B680B40134318462437BD465DF8047B8C
:10204000704780B582B000AF78607868FFF74CFFCA
:1020500000BF0837BD4680BD80B586B000AF0346DF
:10206000B9607A60FB7300237B61FFF761FF7861E1
:102070007A68B9687869FFF7B1FF024697F90F30BF
:1020800011461846FFF780FF00BF1837BD4680BDD8
:1020900080B582B000AF0346FB7197F90730184650
:1020A000FFF754FF00BF0837BD4680BD80B489B03C
:1020B00000AF7860396000237B6100233B6100231F
:1020C000BB610023FB616BE10122FB6902FA03F3B0
:1020D0007B613B681B687A6913403B613A697B69A5
:1020E0009A4240F05A813B685B6803F00303012B7E
:1020F00005D03B685B6803F00303022B30D17B689B
:102100009B68BB61FB695B00032202FA03F3DB43BC
:10211000BA691340BB613B68DA68FB695B0002FA8D
:1021200003F3BA691343BB617B68BA699A607B6841
:102130005B68BB610122FB6902FA03F3DB43BA6906
:102140001340BB613B685B681B0903F00102FB693C
:1021500002FA03F3BA691343BB617B68BA695A6038
:102160003B685B6803F00303032B17D07B68DB68D5
:10217000BB61FB695B00032202FA03F3DB43BA692C
:102180001340BB613B689A68FB695B0002FA03F38A
:10219000BA691343BB617B68BA69DA603B685B6804
:1021A00003F00303022B23D1FB69DA087B680832B2
:1021B00053F82230BB61FB6903F007039B000F2239
:1021C00002FA03F3DB43BA691340BB613B681A6947
:1021D000FB6903F007039B0002FA03F3BA69134398
:1021E000BB61FB69DA087B680832B96943F82210E1
:1021F0007B681B68BB61FB695B00032202FA03F387
:10220000DB43BA691340BB613B685B6803F00302C0
:10221000FB695B0002FA03F3BA691343BB617B6895
:10222000BA691A603B685B6803F44033002B00F026
:10223000B4800023FB60604B5B6C5F4A43F48043D7
:1022400053645D4B5B6C03F48043FB60FB685B4A4B
:10225000FB699B08023352F82330BB61FB6903F032
:1022600003039B000F2202FA03F3DB43BA69134016
:10227000BB617B68524A93422BD07B68514A9342A0
:1022800025D07B68504A93421FD07B684F4A9342C7
:1022900019D07B684E4A934213D07B684D4A9342D3
:1022A0000DD07B684C4A934207D07B684B4A9342DF
:1022B00001D107230EE008230CE006230AE00523E2
:1022C00008E0042306E0032304E0022302E00123E4
:1022D00000E00023FA6902F0030292009340BA6919
:1022E0001343BB613549FB699B080233BA6941F866
:1022F00023203B4B1B68BB613B69DB43BA6913403E
:10230000BB613B685B6803F48033002B03D0BA6980
:102310003B691343BB61324ABB691360304B5B6856
:10232000BB613B69DB43BA691340BB613B685B68D7
:1023300003F40033002B03D0BA693B691343BB613C
:10234000274ABB695360264B9B68BB613B69DB43F3
:10235000BA691340BB613B685B6803F48013002BD0
:1023600003D0BA693B691343BB611D4ABB699360E3
:102370001B4BDB68BB613B69DB43BA691340BB6144
:102380003B685B6803F40013002B03D0BA693B6918
:102390001343BB61124ABB69D360FB690133FB6124
:1023A000FB690F2B7FF690AE00BF00BF2437BD4600
:1023B0005DF8047B704700BF0038024000380140E0
:1023C000000002400004024000080240000C0240ED
:1023D000001002400014024000180240001C02409D
:1023E000003C014080B483B000AF78600B467B8036
:1023F00013467B707B78002B03D07A887B689A61C8
:1024000003E07B881A047B689A6100BF0C37BD46E5
:102410005DF8047B7047000080B483B000AF064BCA
:1024200001221A60054B1B687B607B6800BF0C377C
:10243000BD465DF8047B704720000E4200700040EE
:1024400080B483B000AF064B00221A60054B1B68B6
:102450007B607B6800BF0C37BD465DF8047B70472E
:1024600020000E420070004080B586B000AF78605A
:102470007B68002B01D1012364E27B681B6803F0B9
:102480000103002B75D0A34B9B6803F00C03042BB6
:102490000CD0A04B9B6803F00C03082B12D19D4B72
:1024A0005B6803F48003B3F5800F0BD1994B1B6875
:1024B00003F40033002B5BD07B685B68002B57D1A3
:1024C00001233FE27B685B68B3F5803F06D1914B07
:1024D0001B68904A43F4803313601DE07B685B689F
:1024E000B3F5A02F0CD18B4B1B688A4A43F4802391
:1024F0001360884B1B68874A43F4803313600BE0FA
:10250000844B1B68834A23F480331360814B1B6820
:10251000804A23F4802313607B685B68002B13D010
:10252000FFF7B2FC386108E0FFF7AEFC02463B69FA
:10253000D31A642B01D9032304E2764B1B6803F4FE
:102540000033002BF0D014E0FFF79EFC386108E068
:10255000FFF79AFC02463B69D31A642B01D9032387
:10256000F0E16C4B1B6803F40033002BF0D100E06A
:1025700000BF7B681B6803F00203002B63D0654B30
:102580009B6803F00C03002B0BD0624B9B6803F09D
:102590000C03082B1CD15F4B5B6803F48003002BFA
:1025A00016D15C4B1B6803F00203002B05D07B683F
:1025B000DB68012B01D00123C4E1564B1B6823F0DB
:1025C000F8027B681B69DB00524913430B603AE059
:1025D0007B68DB68002B20D04F4B01221A60FFF78D
:1025E00053FC386108E0FFF74FFC02463B69D31A01
:1025F000022B01D90323A5E1464B1B6803F002031C
:10260000002BF0D0434B1B6823F0F8027B681B695A
:10261000DB00404913430B6015E03F4B00221A607A
:10262000FFF732FC386108E0FFF72EFC02463B69F9
:10263000D31A022B01D9032384E1364B1B6803F024
:102640000203002BF0D17B681B6803F00803002B0A
:1026500030D07B685B69002B16D0304B01221A60AA
:10266000FFF712FC386108E0FFF70EFC02463B69F9
:10267000D31A022B01D9032364E1264B5B6F03F0CD
:102680000203002BF0D015E0244B00221A60FFF764
:10269000FBFB386108E0FFF7F7FB02463B69D31A02
:1026A000022B01D903234DE11A4B5B6F03F00203A8
:1026B000002BF0D17B681B6803F00403002B00F0B3
:1026C000A0800023FB75134B1B6C03F08053002B81
:1026D0000FD10023BB600F4B1B6C0E4A43F080539D
:1026E00013640C4B1B6C03F08053BB60BB6801236D
:1026F000FB750B4B1B6803F48073002B21D1084B37
:102700001B68074A43F480731360FFF7BDFB386111
:1027100011E000BF0038024000004742800E4742EF
:1027200000700040FFF7B0FB02463B69D31A022B52
:1027300001D9032306E1854B1B6803F48073002B4A
:10274000F0D07B689B68012B06D1814B1B6F804AC0
:1027500043F0010313671CE07B689B68052B0CD1D9
:102760007B4B1B6F7A4A43F004031367784B1B6F54
:10277000774A43F0010313670BE0754B1B6F744AF4
:1027800023F001031367724B1B6F714A23F004039C
:1027900013677B689B68002B15D0FFF775FB3861CA
:1027A0000AE0FFF771FB02463B69D31A41F2883217
:1027B000934201D90323C5E0654B1B6F03F002036D
:1027C000002BEED014E0FFF75FFB38610AE0FFF763
:1027D0005BFB02463B69D31A41F28832934201D92E
:1027E0000323AFE05A4B1B6F03F00203002BEED123
:1027F000FB7D012B05D1564B1B6C554A23F08053B2
:1028000013647B689B69002B00F09B80504B9B6896
:1028100003F00C03082B5CD07B689B69022B41D131
:102820004C4B00221A60FFF72FFB386108E0FFF7DE
:102830002BFB02463B69D31A022B01D9032381E00B
:10284000434B1B6803F00073002BF0D17B68DA69FF
:102850007B681B6A1A437B685B6A9B011A437B682F
:102860009B6A5B08013B1B041A437B68DB6A1B06FF
:10287000374913434B60374B01221A60FFF704FBC3
:10288000386108E0FFF700FB02463B69D31A022BD0
:1028900001D9032356E02E4B1B6803F00073002B75
:1028A000F0D04EE02B4B00221A60FFF7EDFA3861B2
:1028B00008E0FFF7E9FA02463B69D31A022B01D977
:1028C00003233FE0224B1B6803F00073002BF0D181
:1028D00037E07B689B69012B01D1012332E01C4B5F
:1028E0005B68FB607B689B69012B28D0FB6803F465
:1028F00080027B68DB699A4221D1FB6803F03F02CA
:102900007B681B6A9A421AD1FA6847F6C073134073
:102910007A68526A9201934211D1FB6803F4403203
:102920007B689B6A5B08013B1B049A4207D1FB68EA
:1029300003F070627B68DB6A1B069A4201D00123B8
:1029400000E0002318461837BD4680BD00700040E7
:10295000003802406000474280B584B000AF786024
:1029600039607B68002B01D10123CCE0684B1B68E8
:1029700003F007033A689A420CD9654B3A68D2B221
:102980001A70634B1B6803F007033A689A4201D040
:102990000123B8E07B681B6803F00203002B20D002
:1029A0007B681B6803F00403002B05D0594B9B6820
:1029B000584A43F4E05393607B681B6803F00803B4
:1029C000002B05D0534B9B68524A43F460439360FD
:1029D000504B9B6823F0F0027B689B684D49134382
:1029E0008B607B681B6803F00103002B44D07B687D
:1029F0005B68012B07D1474B1B6803F40033002BA6
:102A000019D101237FE07B685B68022B03D07B68D0
:102A10005B68032B07D13F4B1B6803F00073002B4F
:102A200009D101236FE03B4B1B6803F00203002B2D
:102A300001D1012367E0374B9B6823F003027B68D9
:102A40005B68344913438B60FFF71EFAF8600AE0B5
:102A5000FFF71AFA0246FB68D31A41F28832934212
:102A600001D903234FE02B4B9B6803F00C027B68DA
:102A70005B689B009A42EBD1254B1B6803F0070370
:102A80003A689A420CD2224B3A68D2B21A70204B62
:102A90001B6803F007033A689A4201D0012332E031
:102AA0007B681B6803F00403002B08D0194B9B685C
:102AB00023F4E0527B68DB68164913438B607B6824
:102AC0001B6803F00803002B09D0124B9B6823F40A
:102AD00060427B681B69DB000E4913438B6000F08A
:102AE00021F802460B4B9B681B0903F00F030A49B0
:102AF000CB5C22FA03F3094A1360094B1B681846A2
:102B0000FFF7A2F8002318461037BD4680BD00BF6E
:102B1000003C024000380240A0810008180000205C
:102B20001C000020B0B584B000AF00217960002106
:102B3000F960002139600021B9605249896801F0CB
:102B40000C0108290DD0082900F29480002902D038
:102B5000042903D08EE04C4BBB608EE04B4BBB6036
:102B60008BE04849496801F03F017960454949686F
:102B700001F48001002924D04249496889090846A6
:102B80004FF0000140F2FF144FF0000500EA04028C
:102B900001EA05033D4901FB03F0002101FB02F1BD
:102BA00044183A49A2FB0101631819467B681A468A
:102BB0004FF00003FDF7FAFF02460B461346FB6099
:102BC0004AE0304B5B689B091A464FF0000340F225
:102BD000FF104FF0000102EA000403EA010520465D
:102BE00029464FF000024FF000034B0143EAD06347
:102BF000420110461946001B61EB05014FF000022F
:102C00004FF000038B0143EA90638201121A63EBD9
:102C100001034FF000004FF00001D90041EA52716A
:102C2000D00002460B46121945EB03034FF000009B
:102C30004FF00001990241EA9251900202460B4680
:102C4000104619467B681A464FF00003FDF7AEFFA9
:102C500002460B461346FB600A4B5B681B0C03F0F5
:102C6000030301335B003B60FA683B68B2FBF3F39C
:102C7000BB6002E0044BBB6000BFBB681846103766
:102C8000BD46B0BD003802400024F40040787D010C
:102C900080B400AF034B1B681846BD465DF8047B4B
:102CA000704700BF1800002080B500AFFFF7F0FFAD
:102CB0000246054B9B689B0A03F007030349CB5C64
:102CC00022FA03F3184680BD00380240B0810008A4
:102CD00080B483B000AF786039607B680F221A60DF
:102CE000124B9B6803F003027B685A600F4B9B6892
:102CF00003F0F0027B689A600C4B9B6803F4E0528F
:102D00007B68DA60094B9B68DB0803F4E0527B6860
:102D10001A61074B1B6803F007023B681A6000BF8B
:102D20000C37BD465DF8047B704700BF0038024099
:102D3000003C024080B582B000AF78607B68002B19
:102D400001D1012341E07B6893F83D30DBB2002BD9
:102D500006D17B68002283F83C207868FEF718FFD4
:102D60007B68022283F83D207B681A687B68043305
:102D70001946104600F0AEFD7B68012283F846201C
:102D80007B68012283F83E207B68012283F83F2084
:102D90007B68012283F840207B68012283F8412070
:102DA0007B68012283F842207B68012283F843205C
:102DB0007B68012283F844207B68012283F8452048
:102DC0007B68012283F83D20002318460837BD4662
:102DD00080BD000080B485B000AF78607B6893F858
:102DE0003D30DBB2012B01D001234EE07B68022293
:102DF00083F83D207B681B68DA687B681B6842F0BB
:102E00000102DA607B681B68234A934222D07B6808
:102E10001B68B3F1804F1DD07B681B681F4A93422B
:102E200018D07B681B681E4A934213D07B681B68CE
:102E30001C4A93420ED07B681B681B4A934209D000
:102E40007B681B68194A934204D07B681B68184A48
:102E5000934211D17B681B689B6803F00703FB60FA
:102E6000FB68062B10D07B681B681A687B681B68A0
:102E700042F001021A6007E07B681B681A687B68F1
:102E80001B6842F001021A60002318461437BD4641
:102E90005DF8047B704700BF000001400004004063
:102EA00000080040000C00400004014000400140C8
:102EB0000018004080B582B000AF78607B68002BBE
:102EC00001D1012341E07B6893F83D30DBB2002B58
:102ED00006D17B68002283F83C20786800F039F83E
:102EE0007B68022283F83D207B681A687B68043384
:102EF0001946104600F0EEFC7B68012283F846205C
:102F00007B68012283F83E207B68012283F83F2002
:102F10007B68012283F840207B68012283F84120EE
:102F20007B68012283F842207B68012283F84320DA
:102F30007B68012283F844207B68012283F84520C6
:102F40007B68012283F83D20002318460837BD46E0
:102F500080BD80B483B000AF786000BF0C37BD4641
:102F60005DF8047B7047000080B584B000AF7860E6
:102F700039603B68002B09D17B6893F83E30DBB2A7
:102F8000012B14BF01230023DBB222E03B68042B9A
:102F900009D17B6893F83F30DBB2012B14BF0123CA
:102FA0000023DBB215E03B68082B09D17B6893F85E
:102FB0004030DBB2012B14BF01230023DBB208E059
:102FC0007B6893F84130DBB2012B14BF012300234F
:102FD000DBB2002B01D001237CE03B68002B04D145
:102FE0007B68022283F83E2013E03B68042B04D167
:102FF0007B68022283F83F200BE03B68082B04D15A
:103000007B68022283F8402003E07B68022283F879
:1030100041207B681B6801223968184600F044FF94
:103020007B681B682D4A934204D07B681B682C4A3E
:10303000934201D1012300E00023002B07D07B68DD
:103040001B685A6C7B681B6842F400425A647B68B8
:103050001B68224A934222D07B681B68B3F1804FE1
:103060001DD07B681B681F4A934218D07B681B6881
:103070001D4A934213D07B681B681C4A93420ED0B2
:103080007B681B68164A934209D07B681B68184A04
:10309000934204D07B681B68164A934211D17B6827
:1030A0001B689B6803F00703FB60FB68062B10D0CE
:1030B0007B681B681A687B681B6842F001021A6013
:1030C00007E07B681B681A687B681B6842F0010296
:1030D0001A60002318461037BD4680BD000001402D
:1030E000000401400004004000080040000C0040C3
:1030F000004001400018004080B586B000AF786005
:1031000039607B68002B01D1012397E07B6893F83D
:103110003D30DBB2002B06D17B68002283F83C20D7
:103120007868FEF79BFC7B68022283F83D207B6871
:103130001B689B687A68126823F4804323F00703B6
:1031400093607B681A687B6804331946104600F068
:10315000C1FB7B681B689B687B617B681B689B6904
:103160003B617B681B681B6AFB603B681B687A6974
:1031700013437B613B6923F4407323F003033B61FA
:103180003B689A683B689B691B0213433A69134387
:103190003B613B6923F4406323F00C033B613B69D3
:1031A00023F4704323F0F0033B613B68DA683B682B
:1031B000DB691B0213433A6913433B613B681B699C
:1031C0001A013B681B6A1B0313433A6913433B61B3
:1031D000FB6823F02203FB60FB6823F08803FB609D
:1031E0003B685A683B685B691B011343FA681343E9
:1031F000FB607B681B687A699A607B681B683A6928
:103200009A617B681B68FA681A627B68012283F8FE
:1032100046207B68012283F83E207B68012283F8E8
:103220003F207B68012283F842207B68012283F8DB
:1032300043207B68012283F83D200023184618377D
:10324000BD4680BD80B584B000AF786039607B68D2
:1032500093F83E30FB737B6893F83F30BB737B6819
:1032600093F842307B737B6893F843303B733B6841
:10327000002B10D1FB7B012B02D17B7B012B01D0DA
:10328000012369E07B68022283F83E207B680222EA
:1032900083F8422031E03B68042B10D1BB7B012B2B
:1032A00002D13B7B012B01D0012355E07B68022238
:1032B00083F83F207B68022283F843201DE0FB7BDC
:1032C000012B08D1BB7B012B05D17B7B012B02D1CC
:1032D0003B7B012B01D001233EE07B68022283F877
:1032E0003E207B68022283F83F207B68022283F81D
:1032F00042207B68022283F843203B68002B03D0E6
:103300003B68042B08D00FE07B681B68012200217A
:10331000184600F0C9FD16E07B681B6801220421F5
:10332000184600F0C1FD0EE07B681B6801220021F9
:10333000184600F0B9FD7B681B680122042118467D
:1033400000F0B2FD00BF7B681B681A687B681B68D1
:1033500042F001021A60002318461037BD4680BDB6
:1033600080B582B000AF78607B681B681B6903F092
:103370000203022B22D17B681B68DB6803F0020387
:10338000022B1BD17B681B686FF002021A617B68FD
:1033900001221A777B681B689B6903F00303002BEB
:1033A00003D0786800F077FA05E0786800F069FAF1
:1033B000786800F07AFA7B6800221A777B681B68CD
:1033C0001B6903F00403042B22D17B681B68DB68B4
:1033D00003F00403042B1BD17B681B686FF004020D
:1033E0001A617B6802221A777B681B689B6903F469
:1033F0004073002B03D0786800F04DFA05E0786840
:1034000000F03FFA786800F050FA7B6800221A77E3
:103410007B681B681B6903F00803082B22D17B68BB
:103420001B68DB6803F00803082B1BD17B681B6853
:103430006FF008021A617B6804221A777B681B68A8
:10344000DB6903F00303002B03D0786800F023FA54
:1034500005E0786800F015FA786800F026FA7B68D5
:1034600000221A777B681B681B6903F01003102B7E
:1034700022D17B681B68DB6803F01003102B1BD183
:103480007B681B686FF010021A617B6808221A774C
:103490007B681B68DB6903F44073002B03D07868FA
:1034A00000F0F9F905E0786800F0EBF9786800F0D1
:1034B000FCF97B6800221A777B681B681B6903F0A4
:1034C0000103012B0ED17B681B68DB6803F001034D
:1034D000012B07D17B681B686FF001021A617868C5
:1034E000FEF70EFA7B681B681B6903F08003802BD4
:1034F0000ED17B681B68DB6803F08003802B07D14B
:103500007B681B686FF080021A61786800F0CAFD62
:103510007B681B681B6903F04003402B0ED17B685E
:103520001B68DB6803F04003402B07D17B681B68F6
:103530006FF040021A61786800F0C1F97B681B687F
:103540001B6903F02003202B0ED17B681B68DB680E
:1035500003F02003202B07D17B681B686FF020024B
:103560001A61786800F094FD00BF0837BD4680BD41
:1035700080B586B000AFF860B9607A600023FB7553
:10358000FB6893F83C30012B01D10223AEE0FB68CD
:10359000012283F83C207B680C2B00F29F8001A263
:1035A00052F823F0D9350008DD360008DD36000872
:1035B000DD36000819360008DD360008DD36000863
:1035C000DD3600085B360008DD360008DD36000811
:1035D000DD3600089B360008FB681B68B968184692
:1035E00000F018FAFB681B689A69FB681B6842F0D8
:1035F00008029A61FB681B689A69FB681B6822F0E5
:1036000004029A61FB681B689969BB681A69FB68C8
:103610001B680A439A6164E0FB681B68B968184636
:1036200000F068FAFB681B689A69FB681B6842F443
:1036300000629A61FB681B689A69FB681B6822F448
:1036400080629A61FB681B689969BB681B691A02F2
:10365000FB681B680A439A6143E0FB681B68B96812
:10366000184600F0BDFAFB681B68DA69FB681B6846
:1036700042F00802DA61FB681B68DA69FB681B68C4
:1036800022F00402DA61FB681B68D969BB681A6919
:10369000FB681B680A43DA6123E0FB681B68B968B2
:1036A000184600F011FBFB681B68DA69FB681B68B1
:1036B00042F40062DA61FB681B68DA69FB681B6828
:1036C00022F48062DA61FB681B68D969BB681B69F8
:1036D0001A02FB681B680A43DA6102E00123FB75EA
:1036E00000BFFB68002283F83C20FB7D184618379A
:1036F000BD4680BD80B584B000AF786039600023DE
:10370000FB737B6893F83C30012B01D10223B4E0BA
:103710007B68012283F83C207B68022283F83D20ED
:103720007B681B689B68BB60BB6823F07703BB604A
:10373000BB6823F47F43BB607B681B68BA689A60F0
:103740003B681B68B3F5005F3ED0B3F5005F00F245
:103750008780B3F5805F00F08680B3F5805F7FD807
:10376000702B1AD0702B7BD8602B50D0602B77D861
:10377000502B3CD0502B73D8402B58D0402B6FD8B7
:10378000302B64D0302B6BD8202B60D0202B67D807
:10379000002B5CD0102B5AD062E07B6818683B6825
:1037A00099683B685A683B68DB6800F05DFB7B68A2
:1037B0001B689B68BB60BB6843F07703BB607B689A
:1037C0001B68BA689A604FE07B6818683B68996824
:1037D0003B685A683B68DB6800F046FB7B681B6807
:1037E0009A687B681B6842F480429A603CE07B6880
:1037F00018683B6859683B68DB681A4600F0BAFAFB
:103800007B681B685021184600F013FB2CE07B6896
:1038100018683B6859683B68DB681A4600F0D9FABB
:103820007B681B686021184600F003FB1CE07B6886
:1038300018683B6859683B68DB681A4600F09AFADA
:103840007B681B684021184600F0F3FA0CE07B68A7
:103850001A683B681B681946104600F0EAFA03E054
:103860000123FB7300E000BF7B68012283F83D2049
:103870007B68002283F83C20FB7B18461037BD464E
:1038800080BD80B483B000AF786000BF0C37BD4608
:103890005DF8047B704780B483B000AF786000BFF0
:1038A0000C37BD465DF8047B704780B483B000AF31
:1038B000786000BF0C37BD465DF8047B704780B46C
:1038C00083B000AF786000BF0C37BD465DF8047B65
:1038D0007047000080B485B000AF786039607B68C5
:1038E0001B68FB607B68404A934213D07B68B3F14E
:1038F000804F0FD07B683D4A93420BD07B683C4A97
:10390000934207D07B683B4A934203D07B683A4A94
:10391000934208D1FB6823F07003FB603B685B684F
:10392000FA681343FB607B682F4A93422BD07B6875
:10393000B3F1804F27D07B682C4A934223D07B6819
:103940002B4A93421FD07B682A4A93421BD07B6844
:10395000294A934217D07B68284A934213D07B6848
:10396000274A93420FD07B68264A93420BD07B684C
:10397000254A934207D07B68244A934203D07B6850
:10398000234A934208D1FB6823F44073FB603B68F1
:10399000DB68FA681343FB60FB6823F080023B6836
:1039A0005B691343FB607B68FA681A603B689A683E
:1039B0007B68DA623B681A687B689A627B680A4AAD
:1039C000934203D07B680C4A934203D13B681A6947
:1039D0007B681A637B6801225A6100BF1437BD46B9
:1039E0005DF8047B704700BF000001400004004008
:1039F00000080040000C004000040140004001406D
:103A0000004401400048014000180040001C0040F4
:103A10000020004080B487B000AF786039607B68D8
:103A20001B6A23F001027B681A627B681B6A7B6158
:103A30007B685B683B617B689B69FB60FB6823F08C
:103A40007003FB60FB6823F00303FB603B681B68AB
:103A5000FA681343FB607B6923F002037B613B68D8
:103A60009B687A6913437B617B68204A934203D049
:103A70007B681F4A93420CD17B6923F008037B616A
:103A80003B68DB687A6913437B617B6923F004033D
:103A90007B617B68154A934203D07B68144A93424A
:103AA00011D13B6923F480733B613B6923F40073BC
:103AB0003B613B685B693A6913433B613B689B69C7
:103AC0003A6913433B617B683A695A607B68FA68DC
:103AD0009A613B685A687B685A637B687A691A62A4
:103AE00000BF1C37BD465DF8047B704700000140F5
:103AF0000004014080B487B000AF786039607B6813
:103B00001B6A23F010027B681A627B681B6A7B6168
:103B10007B685B683B617B689B69FB60FB6823F4A7
:103B2000E043FB60FB6823F44073FB603B681B6869
:103B30001B02FA681343FB607B6923F020037B615F
:103B40003B689B681B017A6913437B617B68224A4F
:103B5000934203D07B68214A93420DD17B6923F0C5
:103B600080037B613B68DB681B017A6913437B61DF
:103B70007B6923F040037B617B68174A934203D043
:103B80007B68164A934213D13B6923F480633B61FF
:103B90003B6923F400633B613B685B699B003A69C6
:103BA00013433B613B689B699B003A6913433B614C
:103BB0007B683A695A607B68FA689A613B685A6820
:103BC0007B689A637B687A691A6200BF1C37BD46BE
:103BD0005DF8047B704700BF000001400004014015
:103BE00080B487B000AF786039607B681B6A23F4CB
:103BF00080727B681A627B681B6A7B617B685B688A
:103C00003B617B68DB69FB60FB6823F07003FB6052
:103C1000FB6823F00303FB603B681B68FA681343EF
:103C2000FB607B6923F400737B613B689B681B022C
:103C30007A6913437B617B68214A934203D07B6896
:103C4000204A93420DD17B6923F400637B613B687A
:103C5000DB681B027A6913437B617B6923F4806311
:103C60007B617B68164A934203D07B68154A934276
:103C700013D13B6923F480533B613B6923F4005328
:103C80003B613B685B691B013A6913433B613B68DD
:103C90009B691B013A6913433B617B683A695A602F
:103CA0007B68FA68DA613B685A687B68DA637B682C
:103CB0007A691A6200BF1C37BD465DF8047B704705
:103CC000000001400004014080B487B000AF78607C
:103CD00039607B681B6A23F480527B681A627B68B8
:103CE0001B6A3B617B685B687B617B68DB69FB60AF
:103CF000FB6823F4E043FB60FB6823F44073FB6044
:103D00003B681B681B02FA681343FB603B6923F4A2
:103D100000533B613B689B681B033A6913433B615B
:103D20007B68124A934203D07B68114A934209D1BF
:103D30007B6923F480437B613B685B699B017A6903
:103D400013437B617B687A695A607B68FA68DA6141
:103D50003B685A687B681A647B683A691A6200BFDC
:103D60001C37BD465DF8047B704700BF0000014072
:103D70000004014080B487B000AFF860B9607A6099
:103D8000FB681B6A7B61FB681B6A23F00102FB680E
:103D90001A62FB689B693B613B6923F0F0033B615E
:103DA0007B681B013A6913433B617B6923F00A037B
:103DB0007B617A69BB6813437B61FB683A699A61EE
:103DC000FB687A691A6200BF1C37BD465DF8047B48
:103DD000704780B487B000AFF860B9607A60FB6864
:103DE0001B6A23F01002FB681A62FB689B697B6107
:103DF000FB681B6A3B617B6923F470437B617B68D2
:103E00001B037A6913437B613B6923F0A0033B6189
:103E1000BB681B013A6913433B61FB687A699A618D
:103E2000FB683A691A6200BF1C37BD465DF8047B27
:103E3000704780B485B000AF786039607B689B685C
:103E4000FB60FB6823F07003FB603A68FB68134378
:103E500043F00703FB607B68FA689A6000BF143781
:103E6000BD465DF8047B704780B487B000AFF86052
:103E7000B9607A603B60FB689B687B617B6923F477
:103E80007F437B613B681A027B681A43BB6813431C
:103E90007A6913437B61FB687A699A6000BF1C37BB
:103EA000BD465DF8047B704780B487B000AFF86012
:103EB000B9607A60BB6803F01F03012202FA03F3C2
:103EC0007B61FB681A6A7B69DB431A40FB681A62F4
:103ED000FB681A6ABB6803F01F03796801FA03F3F1
:103EE0001A43FB681A6200BF1C37BD465DF8047BAD
:103EF0007047000080B485B000AF786039607B689F
:103F000093F83C30012B01D102235AE07B68012257
:103F100083F83C207B68022283F83D207B681B6885
:103F20005B68FB607B681B689B68BB60FB6823F079
:103F30007003FB603B681B68FA681343FB607B6897
:103F40001B68FA685A607B681B68214A934222D03A
:103F50007B681B68B3F1804F1DD07B681B681D4ACE
:103F6000934218D07B681B681B4A934213D07B682E
:103F70001B681A4A93420ED07B681B68184A93420A
:103F800009D07B681B68174A934204D07B681B6882
:103F9000154A93420CD1BB6823F08003BB603B6899
:103FA0005B68BA681343BB607B681B68BA689A6039
:103FB0007B68012283F83D207B68002283F83C2047
:103FC000002318461437BD465DF8047B704700BFD8
:103FD000000001400004004000080040000C0040C8
:103FE00000040140004001400018004080B485B04A
:103FF00000AF786039600023FB607B6893F83C3049
:10400000012B01D102233DE07B68012283F83C2093
:10401000FB6823F0FF023B68DB681343FB60FB682F
:1040200023F440723B689B681343FB60FB6823F4F6
:1040300080623B685B681343FB60FB6823F40062AB
:104040003B681B681343FB60FB6823F480523B68AA
:104050001B691343FB60FB6823F400523B685B69F8
:104060001343FB60FB6823F480423B68DB69134326
:10407000FB607B681B68FA685A647B68002283F8DF
:104080003C20002318461437BD465DF8047B70477A
:1040900080B483B000AF786000BF0C37BD465DF8D8
:1040A000047B704780B483B000AF786000BF0C37EA
:1040B000BD465DF8047B704780B483B000AF034613
:1040C0003960FB7197F90730002B0ADB3B68DAB2E5
:1040D0000C4997F907301201D2B20B4483F8002340
:1040E0000AE03B68DAB20849FB7903F00F03043BAE
:1040F0001201D2B20B441A7600BF0C37BD465DF8F0
:10410000047B704700E100E000ED00E080B500AF07
:10411000054B1B6801F028FD0346012B01D002F07E
:1041200013FB00BF80BD00BF10E000E080B500AF12
:1041300000216FF00400FFF7BFFF00BF80BD00004B
:1041400080B483B000AFEFF305833B603B68002B86
:1041500003D06FF005037B600CE00A4B1B68002B5B
:1041600005D1084B01221A6000237B6002E04FF06A
:10417000FF337B607B6818460C37BD465DF8047BD7
:10418000704700BFC802002080B582B000AFEFF3D7
:1041900005833B603B68002B03D06FF005037B6019
:1041A00010E00B4B1B68012B09D1FFF7BFFF084B39
:1041B00002221A6001F07CF800237B6002E04FF0DD
:1041C000FF337B607B6818460837BD4680BD00BF63
:1041D000C802002080B58EB004AFF860B9607A6084
:1041E00000233B61EFF305837B617B69002B7ED16C
:1041F000FB68002B7BD080233B621823FB610023EC
:104200007B624FF0FF33BB617B68002B45D07B683E
:104210001B68002B02D07B681B687B627B689B69F4
:10422000002B02D07B689B69FB61FB69002B08D0E7
:10423000FB69382B05D87B685B6803F00103002B12
:1042400001D0002354E07B685B69002B03D07B68BE
:104250005B699B083B627B689B68002B0ED07B6888
:10426000DB68BB2B0AD97B681B69002B06D07B68F7
:104270005B69002B02D00123BB6110E07B689B6867
:10428000002B0CD17B68DB68002B08D17B681B6995
:10429000002B04D10023BB6101E00023BB61BB699B
:1042A000012B10D17B681B697A6892680292019396
:1042B000FB690093BB683A6A796AF86800F00CFE03
:1042C00003463B6113E0BB69002B10D13B6A9AB2F5
:1042D00007F110030193FB690093BB68796AF868E2
:1042E00000F057FE0346012B01D000233B613B69E0
:1042F00018462837BD4680BD80B584B000AF7860D1
:10430000EFF30583BB60BB68002B03D06FF00503A0
:10431000FB6007E00023FB607B68002B02D078681D
:1043200000F092FFFB6818461037BD4680BD0000C4
:1043300080B485B000AFF860B9607A60FB68074A66
:104340001A60BB68064A1A607B6880221A6000BF48
:104350001437BD465DF8047B704700BFCC020020D7
:104360008803002080B485B000AFF860B9607A603F
:10437000FB68074A1A60BB68064A1A607B684FF4FC
:1043800080721A6000BF1437BD465DF8047B704729
:10439000880500204406002080B483B000AF786018
:1043A0007B6803F108027B685A607B684FF0FF323C
:1043B0009A607B6803F108027B68DA607B6803F12E
:1043C00008027B681A617B6800221A6000BF0C3704
:1043D000BD465DF8047B704780B483B000AF786061
:1043E0007B6800221A6100BF0C37BD465DF8047B74
:1043F000704780B485B000AF786039607B685B68D7
:10440000FB603B68FA685A60FB689A683B689A6090
:10441000FB689B683A685A60FB683A689A603B6838
:104420007A681A617B681B685A1C7B681A6000BF37
:104430001437BD465DF8047B704780B485B000AF8B
:10444000786039603B681B68BB60BB68B3F1FF3FB5
:1044500003D17B681B69FB600CE07B680833FB6061
:1044600002E0FB685B68FB60FB685B681B68BA681E
:104470009A42F6D2FB685A683B685A603B685B68B0
:104480003A689A603B68FA689A60FB683A685A60D2
:104490003B687A681A617B681B685A1C7B681A60E3
:1044A00000BF1437BD465DF8047B704780B485B00B
:1044B00000AF78607B681B69FB607B685B687A682B
:1044C00092689A607B689B687A6852685A60FB6859
:1044D0005B687A689A4203D17B689A68FB685A6085
:1044E0007B6800221A61FB681B685A1EFB681A6011
:1044F000FB681B6818461437BD465DF8047B70479F
:1045000080B584B000AF786039607B68FB60FB6881
:10451000002B0AD14FF0500383F31188BFF36F8F44
:10452000BFF34F8FBB6000BFFEE702F07BF8FB6874
:104530001A68FB68DB6BF968096C01FB03F31A442A
:10454000FB689A60FB6800229A63FB681A68FB6844
:104550005A60FB681A68FB68DB6B013BF968096C01
:1045600001FB03F31A44FB68DA60FB68FF2283F85F
:104570004420FB68FF2283F845203B68002B14D1C0
:10458000FB681B69002B1AD0FB681033184601F03A
:1045900029F90346002B12D00C4B4FF080521A60C1
:1045A000BFF34F8FBFF36F8F09E0FB6810331846DE
:1045B000FFF7F2FEFB6824331846FFF7EDFE02F02A
:1045C00061F8012318461037BD4680BD04ED00E0B8
:1045D00080B58EB002AFF860B9607A603B60FB686E
:1045E000002B0AD14FF0500383F31188BFF36F8F74
:1045F000BFF34F8FBB6200BFFEE73B68002B0AD1C1
:104600004FF0500383F31188BFF36F8FBFF34F8FC9
:104610007B6200BFFEE77B68002B02D0BB68002BEB
:1046200001D0012300E00023002B0AD14FF05003FA
:1046300083F31188BFF36F8FBFF34F8F3B6200BFCF
:10464000FEE77B68002B02D1BB68002B01D1012360
:1046500000E00023002B0AD14FF0500383F31188B0
:10466000BFF36F8FBFF34F8FFB6100BFFEE7502397
:104670007B617B69502B0AD04FF0500383F3118884
:10468000BFF36F8FBFF34F8FBB6100BFFEE77B6946
:104690003B68FB62FB6A002B0DD0FB6A012283F8AA
:1046A000462097F83820FB6A009313467A68B96869
:1046B000F86800F005F8FB6A18463037BD4680BD43
:1046C00080B584B000AFF860B9607A60FB70BB68F9
:1046D000002B03D1BB69BA691A6002E0BB697A6832
:1046E0001A60BB69FA68DA63BB69BA681A640121A7
:1046F000B869FFF705FFBB69FA7883F84C2000BF63
:104700001037BD4680BD000080B58EB000AFF860A8
:10471000B9607A603B6000237B63FB683B633B6B63
:10472000002B0AD14FF0500383F31188BFF36F8F32
:10473000BFF34F8FBB6200BFFEE7BB68002B03D106
:104740003B6B1B6C002B01D1012300E00023002BED
:104750000AD14FF0500383F31188BFF36F8FBFF37B
:104760004F8F7B6200BFFEE73B68022B03D13B6BA0
:10477000DB6B012B01D1012300E00023002B0AD1C8
:104780004FF0500383F31188BFF36F8FBFF34F8F48
:104790003B6200BFFEE701F0E7F90346002B02D1C0
:1047A0007B68002B01D1012300E00023002B0AD1FC
:1047B0004FF0500383F31188BFF36F8FBFF34F8F18
:1047C000FB6100BFFEE701F02DFF3B6B9A6B3B6B7B
:1047D000DB6B9A4202D33B68022B29D13A68B96855
:1047E000386B00F00BFAF8623B6B5B6A002B10D061
:1047F0003B6B2433184600F0F5FF0346002B13D023
:104800003F4B4FF080521A60BFF34F8FBFF36F8F53
:104810000AE0FB6A002B07D0394B4FF080521A6038
:10482000BFF34F8FBFF36F8F01F02CFF012363E0C5
:104830007B68002B03D101F025FF00235CE07B6B3C
:10484000002B06D107F11403184601F02FF80123BD
:104850007B6301F017FF00F09BFD01F0E3FE3B6B73
:1048600093F844305BB2B3F1FF3F03D13B6B0022BE
:1048700083F844203B6B93F845305BB2B3F1FF3FC4
:1048800003D13B6B002283F8452001F0FBFE3A1D6B
:1048900007F114031146184601F01EF80346002BD9
:1048A00024D1386B00F0A2FA0346002B18D03B6BE2
:1048B00010337A681146184600F044FF386B00F058
:1048C0002DFA00F073FD0346002B7FF47CAF0C4BF8
:1048D0004FF080521A60BFF34F8FBFF36F8F72E7B4
:1048E000386B00F01BFA00F061FD6CE7386B00F0EC
:1048F00015FA00F05BFD002318463837BD4680BD31
:1049000004ED00E080B590B000AFF860B9607A6067
:104910003B60FB68BB63BB6B002B0AD14FF05003BD
:1049200083F31188BFF36F8FBFF34F8FBB6200BF5C
:10493000FEE7BB68002B03D1BB6B1B6C002B01D1C6
:10494000012300E00023002B0AD14FF0500383F332
:104950001188BFF36F8FBFF34F8F7B6200BFFEE7FD
:104960003B68022B03D1BB6BDB6B012B01D1012315
:1049700000E00023002B0AD14FF0500383F311888D
:10498000BFF36F8FBFF34F8F3B6200BFFEE701F0B5
:104990002BFFEFF311824FF0500383F31188BFF325
:1049A0006F8FBFF34F8FFA61BB61FB697B63BB6B9A
:1049B0009A6BBB6BDB6B9A4202D33B68022B2FD105
:1049C000BB6B93F8453087F83330BB6B9B6BFB6256
:1049D0003A68B968B86B00F011F997F93330B3F160
:1049E000FF3F12D1BB6B5B6A002B16D0BB6B24332D
:1049F000184600F0F7FE0346002B0ED07B68002B14
:104A00000BD07B6801221A6007E097F8333001333E
:104A1000DBB25AB2BB6B83F845200123FB6301E094
:104A20000023FB637B6B7B617B6983F3118800BF91
:104A3000FB6B18464037BD4680BD000080B58CB08A
:104A400000AFF860B9607A600023FB62FB68BB626C
:104A5000BB6A002B0AD14FF0500383F31188BFF3D8
:104A60006F8FBFF34F8F3B6200BFFEE7BB68002B29
:104A700003D1BB6A1B6C002B01D1012300E0002392
:104A8000002B0AD14FF0500383F31188BFF36F8FCF
:104A9000BFF34F8FFB6100BFFEE701F065F80346EF
:104AA000002B02D17B68002B01D1012300E0002301
:104AB000002B0AD14FF0500383F31188BFF36F8F9F
:104AC000BFF34F8FBB6100BFFEE701F0ABFDBB6AD8
:104AD0009B6B7B627B6A002B1FD0B968B86A00F0C1
:104AE000F7F87B6A5A1EBB6A9A63BB6A1B69002B84
:104AF0000FD0BB6A1033184600F074FE0346002B3B
:104B000007D03D4B4FF080521A60BFF34F8FBFF379
:104B10006F8F01F0B7FD012369E07B68002B03D1A3
:104B200001F0B0FD002362E0FB6A002B06D107F123
:104B30001003184600F0BAFE0123FB6201F0A2FD4B
:104B400000F026FC01F06EFDBB6A93F844305BB2C6
:104B5000B3F1FF3F03D1BB6A002283F84420BB6A54
:104B600093F845305BB2B3F1FF3F03D1BB6A00223B
:104B700083F8452001F086FD3A1D07F11003114628
:104B8000184600F0A9FE0346002B23D1B86A00F0B6
:104B900017F90346002B17D0BB6A24337A681146F5
:104BA000184600F0CFFDB86A00F0B8F800F0FEFB40
:104BB0000346002B89D1104B4FF080521A60BFF38F
:104BC0004F8FBFF36F8F80E7B86A00F0A7F800F04F
:104BD000EDFB7AE7B86A00F0A1F800F0E7FBB86AED
:104BE00000F0EEF80346002B3FF46FAF00231846A9
:104BF0003037BD4680BD00BF04ED00E080B586B013
:104C000000AFF860B9607A6000237B61FB689B6B42
:104C10003B61FB681B6C002B0DD1FB681B68002BF4
:104C20004DD1FB689B68184600F0BCFF7861FB68BB
:104C300000229A6043E07B68002B19D1FB6858681A
:104C4000FB681B6C1A46B96802F05EFDFB685A6887
:104C5000FB681B6C1A44FB685A60FB685A68FB6867
:104C60009B689A422BD3FB681A68FB685A6026E05F
:104C7000FB68D868FB681B6C1A46B96802F044FDF3
:104C8000FB68DA68FB681B6C5B421A44FB68DA60FD
:104C9000FB68DA68FB681B689A4207D2FB689A686F
:104CA000FB681B6C5B421A44FB68DA607B68022B72
:104CB00005D13B69002B02D03B69013B3B613B695D
:104CC0005A1CFB689A637B6918461837BD4680BD3D
:104CD00080B582B000AF786039607B681B6C002BB8
:104CE00018D07B68DA687B681B6C1A447B68DA60D2
:104CF0007B68DA687B689B689A4203D37B681A6892
:104D00007B68DA607B68D9687B681B6C1A463868F8
:104D100002F0FAFC00BF0837BD4680BD80B584B004
:104D200000AF786001F07EFC7B6893F84530FB7340
:104D300011E07B685B6A002B12D07B682433184635
:104D400000F050FD0346002B01D000F027FEFB7B56
:104D5000013BDBB2FB7397F90F30002BE9DC00E07D
:104D600000BF7B68FF2283F8452001F08BFC01F037
:104D700059FC7B6893F84430BB7311E07B681B6976
:104D8000002B12D07B681033184600F02BFD034631
:104D9000002B01D000F002FEBB7B013BDBB2BB73FA
:104DA00097F90E30002BE9DC00E000BF7B68FF22A2
:104DB00083F8442001F066FC00BF1037BD4680BD7B
:104DC00080B584B000AF786001F02CFC7B689B6BF1
:104DD000002B02D10123FB6001E00023FB6001F006
:104DE00051FCFB6818461037BD4680BD80B584B0C5
:104DF00000AF786001F016FC7B689A6B7B68DB6B18
:104E00009A4202D10123FB6001E00023FB6001F024
:104E100039FCFB6818461037BD4680BD80B485B0AC
:104E200000AF786039600023FB6014E00F4AFB6834
:104E300052F83330002B0BD10C49FB683A6841F82B
:104E400033200A4AFB68DB0013447A685A6006E0A4
:104E5000FB680133FB60FB68072BE7D900BF00BF8D
:104E60001437BD465DF8047B704700BFEC5000204E
:104E700080B586B000AFF860B9607A60FB687B618E
:104E800001F0D0FB7B6993F844305BB2B3F1FF3F94
:104E900003D17B69002283F844207B6993F8453075
:104EA0005BB2B3F1FF3F03D17B69002283F8452059
:104EB00001F0E8FB7B699B6B002B06D17B692433F7
:104EC0007A68B968184600F061FC7869FFF726FF38
:104ED00000BF1837BD4680BD80B58EB004AFF86006
:104EE000B9607A603B607B6B002B0AD14FF05003B6
:104EF00083F31188BFF36F8FBFF34F8F3B6200BF07
:104F0000FEE7BB6B002B0AD14FF0500383F31188EF
:104F1000BFF36F8FBFF34F8FFB6100BFFEE7BC2372
:104F20003B613B69BC2B0AD04FF0500383F31188DF
:104F3000BFF36F8FBFF34F8FBB6100BFFEE73B69CD
:104F4000BB6B002B1ED07B6B002B1BD0BB6B7B6223
:104F50007B6A7A6B1A637B6A022283F8B92000238A
:104F600003937B6A029307F1140301933B6B009355
:104F70003B687A68B968F86800F050F8786A00F021
:104F8000F3F801E000237B617B6918462837BD46B2
:104F900080BD80B58CB004AFF860B9603B6013464B
:104FA000FB80FB889B00184601F05EFC78617B6902
:104FB000002B0ED0BC2001F057FCF861FB69002BE0
:104FC00003D0FB697A691A6305E0786901F018FD7E
:104FD00001E00023FB61FB69002B17D0FB69002275
:104FE00083F8B920FA8800230393FB690293FB6AD4
:104FF0000193BB6A00933B68B968F86800F00EF84B
:10500000F86900F0B1F80123BB6102E04FF0FF3313
:10501000BB61BB6918462037BD4680BD80B588B0EE
:1050200000AFF860B9607A603B603B6B186B7B68DF
:105030009B001A46A52102F075FB3B6B1A6B7B683F
:1050400003F18043013B9B001344BB61BB6923F028
:105050000703BB61BB6903F00703002B0AD04FF0C5
:10506000500383F31188BFF36F8FBFF34F8F7B61C2
:1050700000BFFEE7BB68002B1FD00023FB6112E0DE
:10508000BA68FB69134419783A6BFB6913443433EB
:105090000A461A70BA68FB6913441B78002B06D0C5
:1050A000FB690133FB61FB690F2BE9D900E000BF0D
:1050B0003B6B002283F8432003E03B6B002283F824
:1050C0003420BB6A372B01D93723BB623B6BBA6AEA
:1050D000DA623B6BBA6ADA643B6B00221A653B6B9F
:1050E00004331846FFF778F93B6B18331846FFF77F
:1050F00073F93B6B3A6B1A61BB6AC3F138023B6BC5
:105100009A613B6B3A6B5A623B6B0022C3F8B42046
:105110003B6B002283F8B8203B6B543360220021A4
:10512000184602F0FFFA3B6B0C4A9A653B6B0C4A3F
:10513000DA653B6B0B4A1A663A68F968B86901F0A0
:1051400041F902463B6B1A60FB6A002B02D0FB6AF6
:105150003A6B1A6000BF2037BD4680BD3C8C00080A
:105160005C8C00081C8C000880B582B000AF7860B1
:1051700001F058FA2D4B1B6801332C4A13602C4B5D
:105180001B68002B09D12A4A7B681360274B1B68D8
:10519000012B10D100F026FC0DE0264B1B68002BE4
:1051A00009D1234B1B68DA6A7B68DB6A9A4202D812
:1051B0001F4A7B681360204B1B6801331E4A136033
:1051C0001D4B1A687B685A647B68DA6A1B4B1B6844
:1051D0009A4203D97B68DB6A184A13607B68DA6AF3
:1051E00013469B0013449B00154A1A447B68043302
:1051F00019461046FFF7FDF801F044FA0D4B1B6805
:10520000002B0ED00A4B1B68DA6A7B68DB6A9A4275
:1052100007D20C4B4FF080521A60BFF34F8FBFF391
:105220006F8F00BF0837BD4680BD00BF180F00203C
:10523000440A0020240F0020340F0020200F0020FB
:10524000480A002004ED00E080B584B000AF78602B
:105250000023FB607B68002B17D0134B1B68002BCF
:105260000AD04FF0500383F31188BFF36F8FBFF361
:105270004F8FBB6000BFFEE700F08AF8002178681E
:1052800000F0FEFC00F092F8F860FB68002B07D1FC
:10529000064B4FF080521A60BFF34F8FBFF36F8FF2
:1052A00000BF1037BD4680BD400F002004ED00E078
:1052B00080B58AB004AF0023BB6000237B603A4610
:1052C000391D07F108031846FFF732F839687B6883
:1052D000BA68029201930023009300230A462449EE
:1052E0002448FFF7F9FD0346234A1360224B1B684D
:1052F000002B02D001237B6101E000237B617B69ED
:10530000012B02D100F010FD78617B69012B1BD1CC
:105310004FF0500383F31188BFF36F8FBFF34F8FAC
:105320003B6100BF154B1B685433154A1360154B86
:105330004FF0FF321A60144B01221A60134B002207
:105340001A6001F0CDF80EE07B69B3F1FF3F0AD19E
:105350004FF0500383F31188BFF36F8FBFF34F8F6C
:10536000FB6000BFFEE700BF1837BD4680BD00BF31
:105370001C810008B55900083C0F0020440A002099
:1053800028000020380F0020240F00201C0F0020D0
:1053900080B400AF044B1B680133034A136000BFA5
:1053A000BD465DF8047B7047400F002080B584B097
:1053B00000AF0023FB600023BB60424B1B68002B47
:1053C0000AD14FF0500383F31188BFF36F8FBFF3FF
:1053D0004F8F3B6000BFFEE701F024F9394B1B689B
:1053E000013B384A1360374B1B68002B62D1364BA8
:1053F0001B68002B5ED02FE0344BDB68DB68FB6062
:10540000FB6818331846FFF751F8FB680433184659
:10541000FFF74CF8FB68DA6A2D4B1B689A4203D9F8
:10542000FB68DB6A2A4A1360FB68DA6A13469B0052
:1054300013449B00274A1A44FB680433194610465C
:10544000FEF7D7FFFB68DA6A234B1B68DB6A9A42D8
:1054500002D3224B01221A601C4B1B68002BCBD1BC
:10546000FB68002B01D000F05FFB1D4B1B687B60CD
:105470007B68002B10D000F047F80346002B02D0C9
:10548000164B01221A607B68013B7B607B68002B16
:10549000F1D1134B00221A60104B1B68002B09D06E
:1054A0000123BB600F4B4FF080521A60BFF34F8F48
:1054B000BFF36F8F01F0E6F8BB6818461037BD46A2
:1054C00080BD00BF400F0020180F0020D80E002024
:1054D000200F0020480A0020440A00202C0F002042
:1054E000280F002004ED00E080B483B000AF054B2E
:1054F0001B687B607B6818460C37BD465DF8047BF3
:10550000704700BF1C0F002080B586B000AF00239D
:105510007B614F4B1B68002B40F08F804D4B1B680D
:1055200001333B614B4A3B6913603B69002B20D13F
:10553000494B1B681B68002B0AD04FF0500383F3C4
:105540001188BFF36F8FBFF34F8F3B6000BFFEE743
:10555000414B1B68FB60414B1B683F4A13603F4A4D
:10556000FB6813603E4B1B6801333D4A136000F03B
:10557000DBFA3C4B1B683A699A4249D3364B1B68AD
:105580001B68002B04D1374B4FF0FF321A603FE00D
:10559000314B1B68DB68DB68BB60BB685B687B60AA
:1055A0003A697B689A4203D22E4A7B6813602FE0E7
:1055B000BB6804331846FEF779FFBB689B6A002B73
:1055C00004D0BB6818331846FEF770FFBB68DA6A70
:1055D000254B1B689A4203D9BB68DB6A224A1360D9
:1055E000BB68DA6A13469B0013449B001F4A1A44A7
:1055F000BB68043319461046FEF7FBFEBB68DA6A47
:105600001B4B1B68DB6A9A42B8D301237B61B5E769
:10561000174B1B68DA6A154913469B0013449B001D
:105620000B441B68012B01D901237B61114B1B68C3
:10563000002B07D001237B6104E00F4B1B68013373
:105640000D4A13607B6918461837BD4680BD00BF00
:10565000400F00201C0F0020D00E0020D40E002090
:10566000300F0020380F0020200F0020480A0020B3
:10567000440A00202C0F0020280F002080B485B0A1
:1056800000AF2A4B1B68002B03D0294B01221A6064
:1056900046E0274B00221A60264B1B68FB6010E097
:1056A000FB68002B0AD14FF0500383F31188BFF33E
:1056B0006F8FBFF34F8F7B6000BFFEE7FB68013B3E
:1056C000FB601D49FA6813469B0013449B000B4482
:1056D0001B68002BE4D0FA6813469B0013449B0020
:1056E000154A1344BB60BB685B685A68BB685A6064
:1056F000BB685A68BB6808339A4204D1BB685B68D0
:105700005A68BB685A60BB685B68DB680B4A136009
:10571000084AFB681360094B1B685433084A13603E
:1057200000BF1437BD465DF8047B7047400F002072
:105730002C0F0020200F0020480A0020440A0020DF
:105740002800002080B584B000AF786039607B68A5
:10575000002B0AD14FF0500383F31188BFF36F8FF2
:10576000BFF34F8FFB6000BFFEE7074B1B6818338A
:1057700019467868FEF761FE0121386800F080FA6A
:1057800000BF1037BD4680BD440A002080B586B0FA
:1057900000AFF860B9607A60FB68002B0AD14FF067
:1057A000500383F31188BFF36F8FBFF34F8F7B617B
:1057B00000BFFEE70A4B1B6818331946F868FEF76E
:1057C00018FE7B68002B02D04FF0FF33BB60796876
:1057D000B86800F055FA00BF1837BD4680BD00BF5D
:1057E000440A002080B586B000AF78607B68DB6833
:1057F000DB683B613B69002B0AD14FF0500383F318
:105800001188BFF36F8FBFF34F8FFB6000BFFEE7C0
:105810003B6918331846FEF749FE1E4B1B68002BE8
:105820001DD13B6904331846FEF740FE3B69DA6A36
:10583000194B1B689A4203D93B69DB6A164A13600D
:105840003B69DA6A13469B0013449B00134A1A44CF
:105850003B69043319461046FEF7CBFD05E03B6972
:10586000183319460E48FEF7C4FD3B69DA6A0D4B42
:105870001B68DB6A9A4205D901237B610A4B01222E
:105880001A6001E000237B617B6918461837BD462A
:1058900080BD00BF400F0020200F0020480A0020DC
:1058A000D80E0020440A00202C0F002080B483B0C2
:1058B00000AF7860064B1A687B681A60054B1A685F
:1058C0007B685A6000BF0C37BD465DF8047B7047AB
:1058D000300F00201C0F002080B588B000AF78602A
:1058E00039607B68002B0AD14FF0500383F3118895
:1058F000BFF36F8FBFF34F8F3B6100BFFEE73B6885
:10590000002B0AD14FF0500383F31188BFF36F8F40
:10591000BFF34F8FFB6000BFFEE700F083FE1D4B1F
:105920001B68BB617B685B68BA69D31A7B613B68A3
:105930001B68B3F1FF3F02D10023FB6123E07B68CA
:105940001A68154B1B689A4207D07B685B68BA6976
:105950009A4202D30123FB6115E03B681B687A6918
:105960009A420BD23B681A687B69D21A3B681A606C
:105970007868FFF79BFF0023FB6104E03B6800228F
:105980001A600123FB6100F07DFEFB691846203799
:10599000BD4680BD1C0F0020300F002080B400AF3A
:1059A000034B01221A6000BFBD465DF8047B7047BF
:1059B0002C0F002080B582B000AF786000F052F864
:1059C000064B1B68012BF9D9054B4FF080521A602A
:1059D000BFF34F8FBFF36F8FF0E700BF480A00207F
:1059E00004ED00E080B582B000AF00237B600CE0E6
:1059F0007A6813469B0013449B00124A13441846CE
:105A0000FEF7CAFC7B6801337B607B68372BEFD9DC
:105A10000D48FEF7C1FC0D48FEF7BEFC0C48FEF732
:105A2000BBFC0C48FEF7B8FC0B48FEF7B5FC0B4B73
:105A3000054A1A600A4B054A1A6000BF0837BD467E
:105A400080BD00BF480A0020A80E0020BC0E002028
:105A5000D80E0020EC0E0020040F0020D00E0020F5
:105A6000D40E002080B582B000AF19E000F0DAFD5E
:105A7000104BDB68DB687B607B6804331846FEF7FD
:105A800015FD0D4B1B68013B0B4A13600B4B1B684C
:105A9000013B0A4A136000F0F5FD786800F010F849
:105AA000064B1B68002BE1D100BF00BF0837BD4685
:105AB00080BD00BFEC0E0020180F0020000F00205A
:105AC00080B584B000AF78607B685433184601F02D
:105AD00099FE7B6893F8B930002B08D17B681B6B6B
