:020000040800F2
:10000000000002205D2700083D2600084326000866
:10001000492600084F260008552600080000000069
:1000200000000000000000000000000071880008CF
:100030005B26000800000000C18A00086D6000080F
:10004000AD270008AD270008AD270008AD27000840
:10005000AD270008AD270008AD270008AD27000830
:10006000AD270008AD270008AD270008AD27000820
:10007000AD270008AD27000869260008AD27000855
:10008000AD270008AD270008AD270008AD27000800
:10009000AD270008AD270008AD270008AD270008F0
:1000A000AD270008AD270008AD2700087D26000811
:1000B000AD270008AD270008AD270008AD270008D0
:1000C000AD270008AD270008AD270008AD270008C0
:1000D000AD270008AD270008AD27000891260008CD
:1000E000AD270008AD270008AD270008AD270008A0
:1000F000AD270008AD270008AD270008AD27000890
:10010000AD270008AD270008AD270008AD2700087F
:10011000AD270008AD270008A5260008AD27000878
:10012000B9260008AD270008AD270008AD27000854
:10013000AD270008AD270008AD270008AD2700084F
:10014000AD270008AD270008AD270008AD2700083F
:10015000AD270008AD270008AD270008AD2700082F
:10016000AD270008AD270008AD270008AD2700081F
:10017000AD270008AD270008AD27000800000000EB
:08018000AD270008AD270008BF
:1001900010B5054C237833B9044B13B10448AFF3C1
:1001A00000800123237010BD7800002000000000B3
:1001B0009CA0000808B5034B1BB103490348AFF3EB
:1001C000008008BD000000007C0000209CA000080A
:1001D000034613F8012B002AFBD1181A0138704787
:1001E00001F0FF01102A2BDB10F0070F08D010F8E8
:1001F000013B013A8B422DD010F0070F42B3F6D1EC
:10020000F0B441EA012141EA014122F007047FF004
:1002100000070023F0E80256083C85EA010586EA5B
:10022000010685FA47F5A3FA87F586FA47F6A5FA97
:1002300087F68EB9EED1F0BC01F0FF0102F00702A3
:1002400032B110F8013B013A83EA010313B1F8D14E
:100250000020704701387047002D06BF354603382F
:10026000073815F0010F07D1013015F4807F02BF68
:10027000013015F4C03F0130F0BC0138704700BFB9
:1002800081F0004102E000BF83F0004330B54FEA47
:1002900041044FEA430594EA050F08BF90EA020FB4
:1002A0001FBF54EA000C55EA020C7FEA645C7FEA47
:1002B000655C00F0E2804FEA5454D4EB5555B8BF6A
:1002C0006D420CDD2C4480EA020281EA030382EADB
:1002D000000083EA010180EA020281EA0303362D6D
:1002E00088BF30BD11F0004F4FEA01314FF4801C40
:1002F0004CEA113102D0404261EB410113F0004F52
:100300004FEA03334CEA133302D0524263EB430308
:1003100094EA050F00F0A780A4F10104D5F1200EA6
:100320000DDB02FA0EFC22FA05F2801841F1000101
:1003300003FA0EF2801843FA05F359410EE0A5F1D5
:1003400020050EF1200E012A03FA0EFC28BF4CF006
:10035000020C43FA05F3C01851EBE37101F00045BC
:1003600007D54FF0000EDCF1000C7EEB00006EEBC9
:100370000101B1F5801F1BD3B1F5001F0CD3490853
:100380005FEA30004FEA3C0C04F101044FEA4452AA
:1003900012F5800F80F09A80BCF1004F08BF5FEA31
:1003A000500C50F1000041EB045141EA050130BD11
:1003B0005FEA4C0C404141EB0101013C28BFB1F523
:1003C000801FE9D291F0000F04BF01460020B1FA6E
:1003D00081F308BF2033A3F10B03B3F120020CDA41
:1003E0000C3208DD02F1140CC2F10C0201FA0CF01F
:1003F00021FA02F10CE002F11402D8BFC2F1200C84
:1004000001FA02F120FA0CFCDCBF41EA0C01904039
:10041000E41AA2BF01EB0451294330BD6FEA040482
:100420001F3C1CDA0C340EDC04F11404C4F120026D
:1004300020FA04F001FA02F340EA030021FA04F37F
:1004400045EA030130BDC4F10C04C4F1200220FAD6
:1004500002F001FA04F340EA0300294630BD21FA14
:1004600004F0294630BD94F0000F83F4801306BFDA
:1004700081F480110134013D4EE77FEA645C18BFCE
:100480007FEA655C29D094EA050F08BF90EA020F65
:1004900005D054EA000C04BF1946104630BD91EA5D
:1004A000030F1EBF0021002030BD5FEA545C05D160
:1004B0004000494128BF41F0004130BD14F580049F
:1004C0003CBF01F5801130BD01F0004545F0FE4113
:1004D00041F470014FF0000030BD7FEA645C1ABF48
:1004E000194610467FEA655C1CBF0B46024650EA7F
:1004F000013406BF52EA033591EA030F41F40021AB
:1005000030BD00BF90F0000F04BF0021704730B530
:100510004FF4806404F132044FF000054FF0000105
:1005200050E700BF90F0000F04BF0021704730B5C6
:100530004FF4806404F1320410F0004548BF40429B
:100540004FF000013EE700BF42004FEAE2014FEAF0
:1005500031014FEA02701FBF12F07F4393F07F4FCB
:1005600081F06051704732F07F4208BF704793F0CE
:100570007F4F04BF41F40021704730B54FF46074E1
:1005800001F0004521F000411CE700BF50EA0102E4
:1005900008BF704730B54FF000050AE050EA01028D
:1005A00008BF704730B511F0004502D5404261EBFD
:1005B00041014FF4806404F132045FEA915C3FF43E
:1005C000D8AE4FF003025FEADC0C18BF03325FEADB
:1005D000DC0C18BF033202EBDC02C2F1200300FA8C
:1005E00003FC20FA02F001FA03FE40EA0E0021FAB1
:1005F00002F11444BDE600BF70B54FF0FF0C4CF49F
:10060000E06C1CEA11541DBF1CEA135594EA0C0F50
:1006100095EA0C0F00F0DEF82C4481EA030621EA8B
:100620004C5123EA4C5350EA013518BF52EA0335C6
:1006300041F4801143F4801338D0A0FB02CE4FF078
:100640000005E1FB02E506F00042E0FB03E54FF0A8
:100650000006E1FB03569CF0000F18BF4EF0010EA0
:10066000A4F1FF04B6F5007F64F5407404D25FEA9C
:100670004E0E6D4146EB060642EAC62141EA55514F
:100680004FEAC52040EA5E504FEACE2EB4F1FD0C91
:1006900088BFBCF5E06F1ED8BEF1004F08BF5FEA0F
:1006A000500E50F1000041EB045170BD06F00046C1
:1006B00046EA010140EA020081EA0301B4EB5C046E
:1006C000C2BFD4EB0C0541EA045170BD41F4801166
:1006D0004FF0000E013C00F3AB8014F1360FDEBF8B
:1006E000002001F0004170BDC4F10004203C35DA67
:1006F0000C341BDC04F11404C4F1200500FA05F3EA
:1007000020FA04F001FA05F240EA020001F000428A
:1007100021F0004110EBD37021FA04F642EB060100
:100720005EEA430E08BF20EAD37070BDC4F10C042A
:10073000C4F1200500FA04F320FA05F001FA04F2EE
:1007400040EA020001F0004110EBD37041F10001DA
:100750005EEA430E08BF20EAD37070BDC4F12005E5
:1007600000FA05F24EEA020E20FA04F301FA05F24D
:1007700043EA020321FA04F001F0004121FA04F2F5
:1007800020EA020000EBD3705EEA430E08BF20EAC5
:10079000D37070BD94F0000F0FD101F000464000FF
:1007A00041EB010111F4801F08BF013CF7D041EA81
:1007B000060195F0000F18BF704703F00046520085
:1007C00043EB030313F4801F08BF013DF7D043EA56
:1007D0000603704794EA0C0F0CEA135518BF95EA0C
:1007E0000C0F0CD050EA410618BF52EA4306D1D193
:1007F00081EA030101F000414FF0000070BD50EAB2
:10080000410606BF1046194652EA430619D094EA3B
:100810000C0F02D150EA013613D195EA0C0F05D125
:1008200052EA03361CBF104619460AD181EA030179
:1008300001F0004141F0FE4141F470014FF0000031
:1008400070BD41F0FE4141F4780170BD70B54FF0CC
:10085000FF0C4CF4E06C1CEA11541DBF1CEA13554C
:1008600094EA0C0F95EA0C0F00F0A7F8A4EB05042E
:1008700081EA030E52EA03354FEA013100F0888025
:100880004FEA03334FF0805545EA131343EA1263EE
:100890004FEA022245EA111545EA10654FEA0026A3
:1008A0000EF000419D4208BF964244F1FD0404F55C
:1008B000407402D25B084FEA3202B61A65EB0305B8
:1008C0005B084FEA32024FF480104FF4002CB6EB75
:1008D000020E75EB030E22BFB61A754640EA0C00F5
:1008E0005B084FEA3202B6EB020E75EB030E22BF35
:1008F000B61A754640EA5C005B084FEA3202B6EB76
:10090000020E75EB030E22BFB61A754640EA9C0034
:100910005B084FEA3202B6EB020E75EB030E22BF04
:10092000B61A754640EADC0055EA060E18D04FEAC2
:10093000051545EA16754FEA06164FEAC30343EA62
:1009400052734FEAC2025FEA1C1CC0D111F4801F2F
:100950000BD141EA00014FF000004FF0004CB6E728
:1009600011F4801F04BF01430020B4F1FD0C88BFC7
:10097000BCF5E06F3FF6AFAEB5EB030C04BFB6EBD2
:10098000020C5FEA500C50F1000041EB045170BDC5
:100990000EF0004E4EEA113114EB5C04C2BFD4EBF2
:1009A0000C0541EA045170BD41F480114FF0000E76
:1009B000013C90E645EA060E8DE60CEA135594EAF2
:1009C0000C0F08BF95EA0C0F3FF43BAF94EA0C0FF5
:1009D0000AD150EA01347FF434AF95EA0C0F7FF46A
:1009E00025AF104619462CE795EA0C0F06D152EABE
:1009F00003353FF4FDAE1046194622E750EA4106A2
:100A000018BF52EA43067FF4C5AE50EA41047FF4B2
:100A10000DAF52EA43057FF4EBAE12E74FF0FF3C17
:100A200006E000BF4FF0010C02E000BF4FF0010CE8
:100A30004DF804CD4FEA410C7FEA6C5C4FEA430C61
:100A400018BF7FEA6C5C1BD001B050EA410C0CBFB0
:100A500052EA430C91EA030F02BF90EA020F002012
:100A6000704710F1000F91EA030F58BF994208BF79
:100A700090422CBFD8176FEAE37040F00100704736
:100A80004FEA410C7FEA6C5C02D150EA013C07D18D
:100A90004FEA430C7FEA6C5CD6D152EA033CD3D0D8
:100AA0005DF8040B704700BF8446104662468C46D2
:100AB0001946634600E000BF01B5FFF7B7FF002805
:100AC00048BF10F1000F01BD4DF808EDFFF7F4FF2E
:100AD0000CBF012000205DF808FB00BF4DF808EDB9
:100AE000FFF7EAFF34BF012000205DF808FB00BFDC
:100AF0004DF808EDFFF7E0FF94BF012000205DF8FE
:100B000008FB00BF4DF808EDFFF7CEFF94BF0120B2
:100B100000205DF808FB00BF4DF808EDFFF7C4FFAB
:100B200034BF012000205DF808FB00BF4A0011D24D
:100B300012F5001211D20DD56FF47873B3EB625237
:100B40000ED44FEAC12343F0004343EA505323FA43
:100B500002F070474FF00000704750EA013002D1B8
:100B60004FF0FF3070474FF00000704753B94AB95B
:100B7000002908BF00281CBF4FF0FF314FF0FF30A5
:100B800000F06EB9ADF1080C6DE904CE00F006F886
:100B9000DDF804E0DDE9022304B070472DE9F047F9
:100BA000089D04468C46002B40F083808A421746FD
:100BB00047D9B2FA82F242B1C2F1200024FA00F021
:100BC0009140974040EA010C94404FEA1748230CAB
:100BD000BCFBF8F61FFA87FE08FB16C143EA014387
:100BE00006FB0EF1994209D9FB1806F1FF3080F09F
:100BF0001981994240F21681023E3B445B1AA4B22D
:100C0000B3FBF8F008FB103344EA034400FB0EFE8C
:100C1000A64509D93C1900F1FF3380F00581A645AE
:100C200040F2028102383C4440EA0640A4EB0E0444
:100C300000261DB1D4400023C5E900433146BDE87C
:100C4000F08702B9FFDEB2FA82F2002A50D1CB1B44
:100C50004FEA174E1FFA87F80126B3FBFEFC210C62
:100C60000EFB1C3341EA034108FB0CF38B4207D90E
:100C700079180CF1FF3002D28B4200F2E9808446F1
:100C8000C91AA3B2B1FBFEF00EFB101143EA0144F6
:100C900008FB00F8A04507D93C1900F1FF3302D248
:100CA000A04500F2D9801846A4EB080440EA0C40A5
:100CB000BFE78B4209D9002D00F0B1800026C5E9BD
:100CC000000130463146BDE8F087B3FA83F6002EC6
:100CD0004AD18B4202D3824200F2B880841A61EB7F
:100CE000030101208C46002DA8D0C5E9004CA5E7E2
:100CF000C2F1200320FA03F6974001FA02F04FEA0E
:100D0000174ED9403043030CB1FBFEF61FFA87F8AB
:100D10000EFB161143EA014306FB08F1994204FA5F
:100D200002F409D9FB1806F1FF3C80F08D8099424E
:100D300040F28A80023E3B445B1A81B2B3FBFEF074
:100D40000EFB103341EA034100FB08F38B4207D945
:100D5000791800F1FF3C73D28B4271D902383944C3
:100D6000CB1A40EA064678E7C6F1200C03FA06F4EF
:100D700022FA0CF31C4320FA0CF701FA06F34FEAAF
:100D8000144E21FA0CF11F433B0CB1FBFEF91FFA84
:100D900084F80EFB191143EA014109FB08FA8A4560
:100DA00002FA06F200FA06F308D9611809F1FF30D9
:100DB00048D28A4546D9A9F102092144A1EB0A018A
:100DC000BFB2B1FBFEF00EFB101147EA014700FB7A
:100DD00008F8B84507D9E71900F1FF312ED2B84518
:100DE0002CD90238274440EA0940A7EB0807A0FBAA
:100DF00002894F45C64649461AD317D05DB1B3EBB9
:100E00000E0267EB010707FA0CFCF2404CEA020203
:100E1000F740C5E9002700263146BDE8F0872E4699
:100E200028460BE70646E9E61846FDE64345E5D2C7
:100E3000B8EB020E69EB04010138DFE70846D2E7A0
:100E400060468DE78146B9E7664675E730464AE772
:100E5000ACF1020C394413E702383C4424E700BFEC
:100E6000704700BF80B483B000AF7860064B1B684A
:100E70005A69054B1B6822F080025A6100BF0C378B
:100E8000BD465DF8047B70474802002080B483B003
:100E900000AF78607B6800225A807B6800229A80CD
:100EA0007B6818460C37BD465DF8047B7047000030
:100EB00080B586B000AF78607B68514A934240F0BD
:100EC0009A800023FB7507F10C031846FFF7DEFF3D
:100ED0004C4B1B78BB754B4B5B787B7507F108035C
:100EE00003224949184608F0ADFB0023FB72BB7D85
:100EF000462B35D17B7D572B0ED101233B7307F158
:100F000008030A220021184608F02AFD03469BB276
:100F1000FB810123FB755BE07B7D4C2B0ED1032312
:100F20003B7307F108030A220021184608F018FD58
:100F300003469BB23B820123FB7549E07B7D522B2C
:100F400046D105233B7307F108030A220021184606
:100F500008F006FD03469BB23B820123FB7537E098
:100F6000BB7D422B34D17B7D572B0ED102233B73AB
:100F700007F108030A220021184608F0F1FC034695
:100F80009BB2FB810123FB7522E07B7D4C2B0ED1B4
:100F900004233B7307F108030A220021184608F0D6
:100FA000DFFC03469BB23B820123FB7510E07B7D97
:100FB000522B0DD106233B7307F108030A220021AF
:100FC000184608F0CDFC03469BB23B820123FB751B
:100FD000FB7D002B0AD00D4B02221A700C4B1868B7
:100FE00007F10C010023002205F0C4F90522054990
:100FF000034804F096F900BF1837BD4680BD00BF16
:1010000048020020C8000020CA000020D4000020B0
:10101000D000002080B500AF01F0CAFB00F08EF8D0
:1010200000F074FB00F0AEF900F0F0F800F03AFACE
:1010300000F04AF900F034FB00F004FB0C212A48D0
:1010400003F07AF83C21294803F0E4F93C212848D0
:1010500003F0E0F90021274803F06EF80421254849
:1010600003F06AF8244A0021244801F0E7FF052232
:101070002349244804F055F9234B01221A7005F046
:101080000FF8002206210A2005F001F903461F4A45
:101090001360002202210A2005F0F9F803461C4AD9
:1010A0001360002204210A2005F0F1F80346194AD2
:1010B0001360194A0021194805F03CF80346184A04
:1010C0001360184A0021184805F034F80346174AFF
:1010D0001360174A0021174805F02CF80346164AFA
:1010E000136005F001F8FEE7B80100202801002098
:1010F0007001002000020020650E00088C02002014
:10110000C800002048020020D4000020D0000020A9
:10111000DC000020D80000203CA100089D1B000836
:101120004C03002060A10008AD1B00085003002004
:1011300084A100081D1F00085403002080B594B04E
:1011400000AF07F1200330220021184608F088FA8A
:1011500007F10C0300221A605A609A60DA601A6183
:101160000023BB60274B1B6C264A43F0805313645B
:10117000244B1B6C03F08053BB60BB6800237B6077
:10118000214B1B68204A43F4804313601E4B1B68AD
:1011900003F480437B607B6802233B620123FB6294
:1011A00010233B630023BB6307F12003184602F0C2
:1011B0002FFA0346002B14BF01230023DBB2002BC0
:1011C00001D000F05FFF0F23FB6000233B61002391
:1011D0007B610023BB610023FB6107F10C0300214D
:1011E000184602F08DFC0346002B14BF0123002398
:1011F000DBB2002B01D000F045FF00BF5037BD46E9
:1012000080BD00BF003802400070004080B58CB047
:1012100000AF07F10C0324220021184608F020FA41
:101220003B1D00221A605A60264B4FF080421A6024
:10123000244B00225A60234B00229A60214B4FF628
:10124000FF72DA601F4B00221A611E4B80229A61E6
:101250000323FB6000233B6101237B610023BB610F
:101260000A23FB6100233B6201237B620023BB62F4
:101270000A23FB6207F10C031946124803F024F815
:101280000346002B14BF01230023DBB2002B01D047
:1012900000F0F8FE00237B600023BB603B1D194675
:1012A000084803F00FFF0346002B14BF012300235F
:1012B000DBB2002B01D000F0E5FE00BF3037BD46A9
:1012C00080BD00BF2801002080B58CB000AF07F1C1
:1012D0000C0324220021184608F0C2F93B1D00220D
:1012E0001A605A60254B264A1A60244B00225A6025
:1012F000224B00229A60214B4FF6FF72DA601F4B9F
:1013000000221A611D4B80229A610323FB60002397
:101310003B6101237B610023BB610A23FB61002346
:101320003B6201237B620023BB620A23FB6207F15D
:101330000C031946114802F0C7FF0346002B14BFE7
:1013400001230023DBB2002B01D000F09BFE002321
:101350007B600023BB603B1D1946084803F0B2FECA
:101360000346002B14BF01230023DBB2002B01D066
:1013700000F088FE00BF3037BD4680BD7001002000
:101380000004004080B58EB000AF07F128030022B2
:101390001A605A609A60DA6007F1200300221A602E
:1013A0005A603B1D00221A605A609A60DA601A6126
:1013B0005A619A61394B3A4A1A60384B40F23F12EF
:1013C0005A60364B00229A60344B40F2E732DA60C2
:1013D000324B00221A61314B80229A612F4802F071
:1013E00091FD0346002B14BF01230023DBB2002B29
:1013F00001D000F047FE4FF48053BB6207F1280391
:101400001946264803F05EFA0346002B14BF012359
:101410000023DBB2002B01D000F034FE1F4802F0A5
:1014200031FE0346002B14BF01230023DBB2002B47
:1014300001D000F027FE00233B6200237B6207F10E
:1014400020031946154803F03DFE0346002B14BF48
:1014500001230023DBB2002B01D000F013FE602338
:101460007B600023BB600023FB6000237B613B1D8E
:101470000C221946094803F063F90346002B14BFF8
:1014800001230023DBB2002B01D000F0FBFD034859
:1014900000F098FF00BF3837BD4680BDB80100207E
:1014A0000008004080B596B000AF07F14803002265
:1014B0001A605A609A60DA6007F1400300221A60ED
:1014C0005A6007F1240300221A605A609A60DA60B9
:1014D0001A615A619A613B1D20220021184608F0CA
:1014E000BFF8564B564A1A60544B01225A60534B70
:1014F00000229A60514B41F63F72DA604F4B002256
:101500001A614E4B00225A614C4B80229A614B4823
:1015100002F0F8FC0346002B14BF01230023DBB2CA
:10152000002B01D000F0AEFD4FF48053BB6407F1F7
:1015300048031946414803F0C5F90346002B14BF80
:1015400001230023DBB2002B01D000F09BFD3B48C0
:1015500002F098FD0346002B14BF01230023DBB2E9
:10156000002B01D000F08EFD00233B6400237B6440
:1015700007F140031946314803F0A4FD0346002B50
:1015800014BF01230023DBB2002B01D000F07AFD51
:1015900060237B620023BB620023FB6200233B636A
:1015A00000237B630023BB630023FB6307F1240359
:1015B00000221946214803F0C3F80346002B14BF4C
:1015C00001230023DBB2002B01D000F05BFD07F10B
:1015D000240304221946194803F0B2F80346002BED
:1015E00014BF01230023DBB2002B01D000F04AFD21
:1015F00000237B600023BB600023FB6000233B6172
:1016000000237B614FF40053BB6100233B623B1D11
:1016100019460A4803F0D2FD0346002B14BF0123EC
:101620000023DBB2002B01D000F02CFD034800F0BA
:10163000C9FE00BF5837BD4680BD00BF0002002074
:101640000004014080B500AF134B144A1A60124BDE
:101650004FF4E1325A60104B00229A600E4B002288
:10166000DA600D4B00221A610B4B0C225A610A4BB7
:1016700000229A61084B0022DA61074803F004FE59
:101680000346002B14BF01230023DBB2002B01D043
:1016900000F0F8FC00BF80BD480200200048004078
:1016A00080B582B000AF00237B60174B1B6B164ADE
:1016B00043F400131363144B1B6B03F400137B60A0
:1016C0007B6800233B60104B1B6B0F4A43F4800385
:1016D00013630D4B1B6B03F480033B603B680022DC
:1016E00005210E2001F05EF90E2001F077F90022AD
:1016F0000521382001F056F9382001F06FF900BFBC
:101700000837BD4680BD00BF0038024080B58AB0B2
:1017100000AF07F1140300221A605A609A60DA6081
:101720001A6100233B613E4B1B6B3D4A43F00103B2
:1017300013633B4B1B6B03F001033B613B690023CD
:10174000FB60374B1B6B364A43F010031363344B7B
:101750001B6B03F01003FB60FB680023BB60304B86
:101760001B6B2F4A43F0080313632D4B1B6B03F0D5
:101770000803BB60BB6800237B60294B1B6B284AB6
:1017800043F004031363264B1B6B03F004037B60DD
:101790007B6800233B60224B1B6B214A43F0020312
:1017A00013631F4B1B6B03F002033B603B6800227B
:1017B0003C211C4801F012FF002210211A4801F0C0
:1017C0000DFF3C237B610123BB610023FB610023F0
:1017D0003B6207F114031946124801F063FD4FF410
:1017E00080637B610123BB610023FB6100233B62BB
:1017F00007F1140319460D4801F054FD10237B61D5
:101800000123BB610023FB6100233B6207F114034A
:101810001946054801F046FD00BF2837BD4680BD8A
:101820000038024000000240000C0240001002405C
:1018300080B500AF00220421094801F0CFFE01224B
:101840000821074801F0CAFE01221021044801F0D6
:10185000C5FE00222021024801F0C0FE00BF80BD6D
:101860000000024080B500AF01220421094801F0C8
:10187000B5FE00220821074801F0B0FE0022102129
:10188000044801F0ABFE01222021024801F0A6FE2F
:1018900000BF80BD0000024080B500AF00220421DF
:1018A000094801F09BFE00220821074801F096FE3E
:1018B00000221021044801F091FE0022202102485C
:1018C00001F08CFE00BF80BD0000024080B500AF7B
:1018D000054B1B684B221A644FF4FA7004F0BCFCF1
:1018E00000F024F800BF80BDB801002080B500AF33
:1018F000054B1B685F221A644FF4FA7004F0ACFCCD
:1019000000F014F800BF80BDB801002080B500AF22
:10191000054B1B6838221A644FF4FA7004F09CFCE3
:1019200000F004F800BF80BDB801002080B500AF12
:10193000044B1B6800221A64FA2004F08DFC00BFDF
:1019400080BD00BFB801002080B485B000AFF86052
:10195000B9607A607B681B681B6803F01003102B6A
:101960000CBF01230023DBB2002B0ED0BA68FB684A
:101970009A4203D8FA68BB68D31A14E0FA68BB68C5
:10198000D31A03F57F43FF330DE0BA68FB689A4230
:1019900003D3BA68FB68D31A05E0BA68FB68D31AA8
:1019A00003F57F43FF3318461437BD465DF8047BCB
:1019B000704700000000000080B588B000AF3B46D3
:1019C00083E803003B78012B02D03B78022B1ED129
:1019D0007B881846FEF7A6FD69A3D3E90023FEF72E
:1019E00035FF02460B4610461946FFF79FF803469F
:1019F0001846FEF787FD02460B466549C1E90023FC
:101A0000634BD3E900236349C1E90023B0E0BB88FD
:101A10001846FEF777FD4FF000025F4BFEF716FF0A
:101A200002460B461046194653A3D3E90023FEF79E
:101A3000E3FD02460B461046194651A3D3E90023A5
:101A4000FEF704FF02460B4610461946FFF76EF8F4
:101A50000346FB61BB881846FEF754FD4FF00002B9
:101A60004D4BFEF7F3FE02460B461046194646A3C1
:101A7000D3E90023FEF7C0FD02460B461046194687
:101A80003FA3D3E90023FEF7E1FE02460B461046D2
:101A90001946FFF74BF80346BB613B78032B02D096
:101AA0003B78042B2FD1BB881846FEF72BFD4FF057
:101AB00000024FF00003FEF79FFD02460B46104662
:101AC00019462FA3D3E90023FEF7C0FE02460B46BA
:101AD000C7E90223F869FEF715FDD7E90223FEF7EF
:101AE000D5FB02460B462A49C1E90023B869FEF737
:101AF00009FDD7E90223FEF7C9FB02460B4625493B
:101B0000C1E9002334E03B78052B02D03B78062B5B
:101B10002ED1BB881846FEF7F5FC4FF000024FF0BF
:101B20000003FEF769FD02460B461046194614A352
:101B3000D3E90023FEF78AFE02460B46C7E90423D9
:101B4000B869FEF7DFFCD7E90423FEF79FFB0246E6
:101B50000B460F49C1E90023F869FEF7D3FCD7E92A
:101B60000423FEF793FB02460B460A49C1E9002312
:101B70002037BD4680BD00BF95438B6CE7EB6940C5
:101B800084DCBFD321648B3F2DB29DEFA73E734011
:101B9000B0000020980000200080764080B582B020
:101BA00000AF7860012004F057FBFBE790B593B0DD
:101BB00000AF786007F108031846FFF767F90023C4
:101BC00087F83730FFF768FE244B1B685B6A7B643D
:101BD00000F024FEF863224B1B685B6A3B6400F054
:101BE0001DFEB86301211F4807F065FC01211E4856
:101BF00007F061FC97F8373083F00103DBB2002B6C
:101C00006BD01A4B186807F108010023002204F07A
:101C100011FC38633B6B002B5FD13B7A022B05D064
:101C20003B7A042B02D03B7A062B02D1FFF71AFE37
:101C300001E0FFF7FDFD3B7A012B02D03B7A022B3E
:101C400002D1FFF743FE15E03B7A032B02D03B7A2B
:101C5000042B0DD1FFF75AFE0CE000BF2801002035
:101C60007001002058030020D0030020D000002085
:101C7000FFF73CFE07F1080393E80300FFF79CFE23
:101C800098494FF000024FF00003C1E90023964944
:101C90004FF000024FF00003C1E9002393494FF0D9
:101CA00000024FF00003C1E9002391494FF0000208
:101CB0004FF00003C1E900238E4B1B685B6A7B6415
:101CC00000F0ACFDF8638C4B1B685B6A3B6400F072
:101CD000A5FDB863012387F8373097F83730002B1C
:101CE00000F0EE80854B03221A70824B1B685B6A02
:101CF000FB6200F093FDB8627F4B1B685B6A7B62FE
:101D000000F08CFD3862BA6AFB6BD31AFB613A6A49
:101D1000BB6BD31ABB61774AF96A786CFFF714FE84
:101D20007861754A796A386CFFF70EFE3861786918
:101D3000FEF7E8FB6D4BD3E90023FEF7A7FA024656
:101D40000B466A49C1E900233869FEF7DBFB654BA6
:101D5000D3E90023FEF79AFA02460B466149C1E92E
:101D60000023F969664807F09BF9B969654807F0EF
:101D700097F9002387F83630002387F83530624B17
:101D8000D3E90001594BD3E90023FEF77DFA02465F
:101D90000B461046194601231C464FF000025B4BD0
:101DA000FEF7A6FE0346002B01D100231C46E3B23A
:101DB000002B1BD04D494FF000024FF00003C1E94A
:101DC00000234B494FF000024FF00003C1E900230C
:101DD0004D494FF000024FF00003C1E900234C4B86
:101DE0001B6800225A63012387F83630494BD3E938
:101DF00000013C4BD3E90023FEF746FA02460B46AE
:101E00001046194601231C464FF000023F4BFEF7D7
:101E10006FFE0346002B01D100231C46E3B2002BCA
:101E20001BD030494FF000024FF00003C1E90023FE
:101E30002D494FF000024FF00003C1E9002335495E
:101E40004FF000024FF00003C1E90023304B1B6844
:101E500000229A63012387F8353097F8363083F0F3
:101E60000103DBB2002B04D0294B1B6840F2DC528B
:101E70005A6397F8353083F00103DBB2002B04D0AE
:101E8000234B1B6840F2DC529A6397F83630002BE4
:101E900016D097F83530002B12D01F4B1B68184610
:101EA00004F026FB0346002B0CBF01230023DBB20A
:101EB000002B02D0114B01221A70002387F8373013
:101EC0000C4B1B685B6A7B6400F0A8FCF8630A4B50
:101ED0001B685B6A3B6400F0A1FCB863322004F02D
:101EE000BBF987E6A8000020A0000020C000002069
:101EF000B80000202801002070010020D40000203C
:101F0000D003002058030020B0000020000044400F
:101F10000002002098000020D0000020B0B59AB048
:101F200002AF7860424B1B78DBB21A4607F14C03D4
:101F30004049184607F070FC3F4B186807F14A010A
:101F40000023002204F076FAF865FB6D002B08D020
:101F500007F14003394A92E80300186004331980FE
:101F600008E0B7F84A301A4607F1400334491846EA
:101F700007F052FC334B186807F13C0100230022A4
:101F800004F058FAB865BB6D002B06D007F12C039E
:101F90002D4A07CA83E8070007E0BB8F1A46FB8F6C
:101FA00007F12C00294907F037FC07F10803232229
:101FB0000021184607F054FB07F1400107F14C02DD
:101FC00007F1080007F12C0300930B46204907F0A6
:101FD00023FC07F108031846FEF7FAF803461A46F1
:101FE00007F1080313441B491A460B461B8813804C
:101FF000194B1B685A69184B1B6842F080025A61E2
:1020000007F10804144B1B6804331D4607F108034D
:102010001846FEF7DDF8034601332A4621460F48ED
:1020200000F098FD4FF4FA7004F016F97AE700BF5B
:10203000D4000020E0A00008DC000020E8A0000898
:10204000F0A00008D8000020F8A0000804A10008B3
:1020500014A1000820A10008480200208C020020E2
:1020600080B582B000AF78607B681B68044A9342F9
:1020700001D100F0BFFB00BF0837BD4680BD00BFE7
:102080000010004080B400AF72B600BFFEE7000051
:1020900080B584B002AF786039607B68012B24D1B1
:1020A0003B684FF6FF7293421FD100230193012337
:1020B00000939FED112B9FED121B9FED130B144B03
:1020C000144A1549154806F0ABFF0023019301237C
:1020D00000939FED092B9FED0A1B9FED0B0B104BFF
:1020E000104A1149114806F09BFF00BF0837BD4652
:1020F00080BD00BFAFF30080333333333333D33F7E
:10210000333333333333C33F000000000000FC3F60
:1021100098000020A0000020A80000205803002004
:10212000B0000020B8000020C0000020D003002034
:1021300080B500AF4FF6FF710120FFF7A9FF80BD0A
:1021400080B582B000AF00237B60124B5B6C114AFC
:1021500043F4804353640F4B5B6C03F480437B6018
:102160007B6800233B600B4B1B6C0A4A43F0805397
:102170001364084B1B6C03F080533B603B680022E8
:102180000F216FF0010000F00DFC00BF0837BD46C5
:1021900080BD00BF0038024080B58CB000AF7860D1
:1021A00007F11C0300221A605A609A60DA601A6113
:1021B0007B681B68314A934235D10023BB61304BA9
:1021C0005B6C2F4A43F0010353642D4B5B6C03F0AF
:1021D0000103BB61BB6900237B61294B1B6B284A50
:1021E00043F010031363264B1B6B03F010037B615A
:1021F0007B694FF40053FB6102233B6200237B6247
:102200000023BB620123FB6207F11C0319461D4832
:1022100001F048F8002205211B2000F0C3FB1B2021
:1022200000F0DCFB26E07B681B68174A93420ED166
:1022300000233B61124B1B6C114A43F004031364EF
:102240000F4B1B6C03F004033B613B6912E07B689E
:102250001B680E4A93420DD10023FB60084B5B6C58
:10226000074A43F002035364054B5B6C03F002031F
:10227000FB60FB6800BF3037BD4680BD00000140F9
:1022800000380240001002400008004000040140F5
:1022900080B58CB000AF786007F11C0300221A6093
:1022A0005A609A60DA601A617B681B68B3F1804FEC
:1022B0004BD10023BB613F4B1B6C3E4A43F00103F3
:1022C00013643C4B1B6C03F00103BB61BB6900232F
:1022D0007B61384B1B6B374A43F001031363354B6B
:1022E0001B6B03F001037B617B6900233B61314B76
:1022F0001B6B304A43F0020313632E4B1B6B03F03E
:1023000002033B613B694FF40043FB6102233B62E4
:1023100000237B620023BB620123FB6207F11C03E5
:102320001946254800F0BEFF0823FB6102233B62EB
:1023300000237B620023BB620123FB6207F11C03C5
:1023400019461E4800F0AEFF30E07B681B681C4A4F
:1023500093422BD10023FB60164B1B6C154A43F0B4
:1023600002031364134B1B6C03F00203FB60FB6856
:102370000023BB600F4B1B6B0E4A43F0010313633A
:102380000C4B1B6B03F00103BB60BB68C023FB61FC
:1023900002233B6200237B620023BB620223FB62B9
:1023A00007F11C031946044800F07CFF00BF3037DA
:1023B000BD4680BD003802400000024000040240DB
:1023C0000004004080B58AB000AF786007F11403C4
:1023D00000221A605A609A60DA601A617B681B6892
:1023E000244A93421FD100233B61234B1B6B224A9B
:1023F00043F008031363204B1B6B03F008033B619E
:102400003B694FF400437B610223BB610023FB6106
:1024100000233B6202237B6207F11403194617482D
:1024200000F040FF22E07B681B68154A93421DD1F3
:102430000023FB60104B1B6B0F4A43F00403136334
:102440000D4B1B6B03F00403FB60FB68C0237B6137
:102450000223BB610023FB6100233B6203237B62F9
:1024600007F114031946074800F01CFF00BF283786
:10247000BD4680BD0008004000380240000C02400C
:10248000000401400008024080B58AB000AF7860C7
:1024900007F1140300221A605A609A60DA601A6128
:1024A0007B681B68344A934262D100233B61334B03
:1024B0001B6C324A43F480231364304B1B6C03F4CF
:1024C00080233B613B690023FB602C4B1B6B2B4A39
:1024D00043F004031363294B1B6B03F00403FB60FD
:1024E000FB684FF440637B610223BB610023FB6107
:1024F00003233B6207237B6207F11403194620483C
:1025000000F0D0FE1F4B204A1A601E4B4FF00062B5
:102510005A601C4B40229A601A4B0022DA60194B19
:102520004FF480621A61174B00225A61154B00224A
:102530009A61144B0022DA61124B00221A62114B8D
:1025400000225A620F4800F057FA0346002B01D0D0
:10255000FFF798FD7B680B4A5A630A4A7B689363CE
:1025600000220521272000F01DFA272000F036FA6E
:1025700000BF2837BD4680BD0048004000380240FB
:10258000000802408C0200205860024080B58CB0E8
:1025900000AF78600023FB620023BB6200227968F1
:1025A000362000F0FFF9362000F018FA0023FB6017
:1025B0001E4B1B6C1D4A43F0100313641B4B1B6C1A
:1025C00003F01003FB60FB6807F1100207F114032E
:1025D0001146184601F064FC01F03AFCF862FB6A0F
:1025E000134AA2FB03239B0C013BBB62114B124A13
:1025F0001A60104B40F2E732DA600E4ABB6A536051
:102600000C4B00221A610B4B00229A60094801F022
:1026100079FC0346002B04D1064801F0C3FC0346B5
:1026200000E0012318463037BD4680BD0038024027
:1026300083DE1B43244E00200010004080B400AF16
:10264000FEE780B400AFFEE780B400AFFEE780B4E1
:1026500000AFFEE780B400AFFEE780B400AF00BF7C
:10266000BD465DF8047B704780B500AF024800F0BE
:102670005BFB00BF80BD00BF8C02002080B500AFB7
:10268000024801F055FF00BF80BD00BFE000002000
:1026900080B500AF024802F075FE00BF80BD00BFEC
:1026A0004802002080B500AF024801F041FF00BFA2
:1026B00080BD00BF244E002080B500AF024800F06E
:1026C00033FB00BF80BD00BFEC02002080B586B0A8
:1026D00000AF7860144A154BD31A7B617B693B616C
:1026E000134B1B68002B02D1114B124A1A60104B7E
:1026F0001A687B6813443A699A4207D206F076FF5B
:1027000003460C221A604FF0FF3309E0084B1B68A8
:10271000FB60074B1A687B681344054A1360FB682B
:1027200018461837BD4680BD000002200004000096
:1027300048040020C04E002080B400AF064BD3F800
:102740008830054A43F47003C2F8883000BFBD46A4
:102750005DF8047B704700BF00ED00E0DFF834D087
:102760000D480E490E4A002302E0D458C4500433E9
:10277000C4188C42F9D30B4A0B4C002301E01360C0
:102780000432A242FBD3FFF7D7FF06F035FFFEF776
:1027900041FC70470000022000000020740000206F
:1027A00070A3000878000020C04E0020FEE7000063
:1027B00080B500AF0E4B1B680D4A43F400731360E5
:1027C0000B4B1B680A4A43F480631360084B1B6879
:1027D000074A43F480731360032000F0D8F80F20F9
:1027E000FFF7D4FEFFF7ACFC0023184680BD00BF06
:1027F000003C024080B400AF064B1B781A46064BE3
:102800001B681344044A136000BFBD465DF8047B97
:10281000704700BF080000206C4E002080B400AF5D
:10282000034B1B681846BD465DF8047B704700BF2C
:102830006C4E002080B485B000AF78607B6803F0F8
:102840000703FB600C4BDB68BB60BA684FF6FF0305
:102850001340BB60FB681A02BB68134343F0BF63BD
:1028600043F40033BB60044ABB68D36000BF143735
:10287000BD465DF8047B704700ED00E080B400AF1A
:10288000044BDB681B0A03F007031846BD465DF8DE
:10289000047B704700ED00E080B483B000AF0346D6
:1028A000FB7197F90730002B0BDBFB7903F01F025C
:1028B000074997F907305B09012000FA02F241F855
:1028C000232000BF0C37BD465DF8047B704700BF76
:1028D00000E100E080B483B000AF03463960FB71D3
:1028E00097F90730002B0ADB3B68DAB20C4997F9FD
:1028F00007301201D2B20B4483F800230AE03B6890
:10290000DAB20849FB7903F00F03043B1201D2B29B
:102910000B441A7600BF0C37BD465DF8047B704748
:1029200000E100E000ED00E080B489B000AFF860A5
:10293000B9607A60FB6803F00703FB61FB69C3F1D0
:102940000703042B28BF0423BB61FB690433062B58
:1029500002D9FB69033B00E000237B614FF0FF32AB
:10296000BB6902FA03F3DA43BB681A407B699A40F9
:102970004FF0FF317B6901FA03F3D9437B680B40C9
:10298000134318462437BD465DF8047B704780B575
:1029900082B000AF78607868FFF74CFF00BF08375F
:1029A000BD4680BD80B586B000AF0346B9607A6091
:1029B000FB7300237B61FFF761FF78617A68B96878
:1029C0007869FFF7B1FF024697F90F3011461846B4
:1029D000FFF780FF00BF1837BD4680BD80B582B0CD
:1029E00000AF0346FB7197F907301846FFF754FF15
:1029F00000BF0837BD4680BD80B586B000AF7860A7
:102A000000237B61FFF70AFF38617B68002B01D14F
:102A1000012399E07B68022283F835207B6800223D
:102A200083F834207B681B681A687B681B6822F077
:102A300001021A600FE0FFF7F1FE02463B69D31A6C
:102A4000052B08D97B6820225A657B68032283F80E
:102A50003520032378E07B681B681B6803F00103C3
:102A6000002BE8D17B681B681B687B617A69384B57
:102A700013407B617B685A687B689B681A437B685C
:102A8000DB681A437B681B691A437B685B691A43DE
:102A90007B689B691A437B68DB691A437B681B6A06
:102AA00013437A6913437B617B685B6A042B07D10C
:102AB0007B68DA6A7B681B6B13437A6913437B611B
:102AC0007B681B687A691A607B681B685B697B613D
:102AD0007B6923F007037B617B685B6A7A69134338
:102AE0007B617B685B6A042B17D17B689B6A7A6980
:102AF00013437B617B68DB6A002B0ED0786800F0A3
:102B000055FB0346002B08D07B6840225A657B6842
:102B1000012283F83520012316E07B681B687A695F
:102B20005A61786800F00CFB0346FB607B68DB6D44
:102B30003F229A40FB689A607B6800225A657B6856
:102B4000012283F83520002318461837BD4680BD82
:102B50003F8010F080B586B000AFF860B9607A6051
:102B60003B600023FB75FB689B6D3B61FB6893F842
:102B70003430012B01D1022340E0FB68012283F8AD
:102B80003420FB6893F83530DBB2012B2FD1FB6882
:102B9000022283F83520FB6800225A653B687A6878
:102BA000B968F86800F09EFAFB68DB6D3F229A4036
:102BB0003B699A60FB681B681A68FB681B6842F0F7
:102BC00016021A60FB681B6C002B07D0FB681B68A1
:102BD0001A68FB681B6842F008021A60FB681B68F1
:102BE0001A68FB681B6842F001021A6005E0FB6886
:102BF000002283F834200223FB75FB7D184618372A
:102C0000BD4680BD80B584B000AF78607B689B6DA9
:102C1000FB60FFF703FEB8607B6893F83530DBB2EA
:102C2000022B08D07B6880225A657B68002283F8DB
:102C30003420012352E07B681B681A687B681B689C
:102C400022F016021A607B681B685A697B681B6851
:102C500022F080025A617B681B6C002B03D17B68D9
:102C60009B6C002B07D07B681B681A687B681B680D
:102C700022F008021A607B681B681A687B681B6870
:102C800022F001021A6013E0FFF7C8FD0246BB689C
:102C9000D31A052B0CD97B6820225A657B68032246
:102CA00083F835207B68002283F83420032315E065
:102CB0007B681B681B6803F00103002BE4D17B6871
:102CC000DB6D3F229A40FB689A607B68012283F8A3
:102CD00035207B68002283F8342000231846103703
:102CE000BD4680BD80B483B000AF78607B6893F848
:102CF0003530DBB2022B04D07B6880225A65012379
:102D00000CE07B68052283F835207B681B681A6815
:102D10007B681B6822F001021A60002318460C37FA
:102D2000BD465DF8047B704780B586B000AF786023
:102D30000023BB60924B1B68924AA2FB03239B0AB1
:102D40007B617B689B6D3B613B691B68FB607B68BB
:102D5000DB6D08229A40FB681340002B1AD07B6879
:102D60001B681B6803F00403002B13D07B681B68EF
:102D70001A687B681B6822F004021A607B68DB6DAE
:102D800008229A403B699A607B685B6D43F00102C0
:102D90007B685A657B68DB6D01229A40FB681340B3
:102DA000002B12D07B681B685B6903F08003002B4B
:102DB0000BD07B68DB6D01229A403B699A607B688F
:102DC0005B6D43F002027B685A657B68DB6D042211
:102DD0009A40FB681340002B12D07B681B681B686D
:102DE00003F00203002B0BD07B68DB6D04229A40BA
:102DF0003B699A607B685B6D43F004027B685A65AF
:102E00007B68DB6D10229A40FB681340002B43D097
:102E10007B681B681B6803F00803002B3CD07B68B1
:102E2000DB6D10229A403B699A607B681B681B68C7
:102E300003F48023002B18D07B681B681B6803F405
:102E40000023002B08D17B681B6C002B24D07B68EF
:102E50001B6C786898471FE07B689B6C002B1BD02D
:102E60007B689B6C7868984716E07B681B681B68DA
:102E700003F48073002B07D17B681B681A687B689A
:102E80001B6822F008021A607B681B6C002B03D0C1
:102E90007B681B6C786898477B68DB6D20229A40C2
:102EA000FB681340002B00F08E807B681B681B685A
:102EB00003F01003002B00F086807B68DB6D20227E
:102EC0009A403B699A607B6893F83530DBB2052BFA
:102ED00036D17B681B681A687B681B6822F0160273
:102EE0001A607B681B685A697B681B6822F0800245
:102EF0005A617B681B6C002B03D17B689B6C002B99
:102F000007D07B681B681A687B681B6822F0080280
:102F10001A607B68DB6D3F229A403B699A607B6850
:102F2000012283F835207B68002283F834207B68F7
:102F30001B6D002B7DD07B681B6D7868984778E00F
:102F40007B681B681B6803F48023002B1CD07B6804
:102F50001B681B6803F40023002B08D17B685B6CA3
:102F6000002B30D07B685B6C786898472BE07B68DF
:102F7000DB6B002B27D07B68DB6B7868984722E0FF
:102F800000000020B5814E1B7B681B681B6803F4A2
:102F90008073002B0FD17B681B681A687B681B68E5
:102FA00022F010021A607B68012283F835207B68CA
:102FB000002283F834207B68DB6B002B03D07B6816
:102FC000DB6B786898477B685B6D002B32D07B6841
:102FD0005B6D03F00103002B22D07B68052283F890
:102FE00035207B681B681A687B681B6822F0010229
:102FF0001A60BB680133BB607A699A4207D37B6869
:103000001B681B6803F00103002BF2D100E000BF36
:103010007B68012283F835207B68002283F8342006
:103020007B68DB6C002B05D07B68DB6C786898478D
:1030300000E000BF1837BD4680BD00BF80B487B038
:1030400000AFF8600B467A60FB720023FB75FB68EB
:1030500093F83430012B01D102233CE0FB680122BC
:1030600083F83420FB6893F83530DBB2012B29D18B
:10307000FB7A052B29D801A252F823F095300008DD
:103080009D300008A5300008AD300008B5300008BC
:10309000BD300008FB687A68DA6317E0FB687A687D
:1030A0001A6413E0FB687A685A640FE0FB687A6878
:1030B0009A640BE0FB687A68DA6407E0FB687A6878
:1030C0001A6503E00123FB7500E000BFFB680022E6
:1030D00083F83420FB7D18461C37BD465DF8047B21
:1030E000704700BF80B485B000AFF860B9607A6007
:1030F0003B60FB681B681A68FB681B6822F480222F
:103100001A60FB681B683A685A60FB689B68402B32
:1031100008D1FB681B687A689A60FB681B68BA680C
:10312000DA6007E0FB681B68BA689A60FB681B6896
:103130007A68DA6000BF1437BD465DF8047B7047DB
:1031400080B485B000AF78607B681B68DBB2103B51
:10315000144AA2FB03231B09FB60134AFB681344B8
:103160001B781A467B68DA65FB68032B09D97B68F4
:103170001B6823F47F7323F003031A1D7B689A6591
:1031800007E07B681B6823F47F7323F003037A68EE
:1031900093657B689B6D18461437BD465DF8047BCC
:1031A000704700BFABAAAAAAC0A1000880B485B02E
:1031B00000AF78600023FB737B689B6ABB607B6811
:1031C0009B69002B1FD1BB68032B56D801A252F874
:1031D00023F000BFE5310008F7310008E5310008B1
:1031E0007B3200087B68DB6A03F08073002B46D0DB
:1031F0000123FB7343E07B68DB6AB3F1C07F40D1FE
:103200000123FB733DE07B689B69B3F5005F21D12F
:10321000BB68032B37D801A252F823F02D320008E7
:10322000333200082D320008453200080123FB73B9
:1032300030E07B68DB6A03F08073002B25D001232C
:10324000FB7322E07B68DB6AB3F1C07F1FD10123EF
:10325000FB731CE0BB68022B03D9BB68032B03D0B4
:1032600018E00123FB7315E07B68DB6A03F08073D1
:10327000002B0ED00123FB730BE000BF0AE000BF60
:1032800008E000BF06E000BF04E000BF02E000BFAE
:1032900000E000BFFB7B18461437BD465DF8047B99
:1032A000704700BF80B489B000AF786039600023F8
:1032B0007B6100233B610023BB610023FB616BE169
:1032C0000122FB6902FA03F37B613B681B687A69A0
:1032D00013403B613A697B699A4240F05A813B68EE
:1032E0005B6803F00303012B05D03B685B6803F0C8
:1032F0000303022B30D17B689B68BB61FB695B00D9
:10330000032202FA03F3DB43BA691340BB613B6853
:10331000DA68FB695B0002FA03F3BA691343BB6125
:103320007B68BA699A607B685B68BB610122FB6954
:1033300002FA03F3DB43BA691340BB613B685B6885
:103340001B0903F00102FB6902FA03F3BA69134394
:10335000BB617B68BA695A603B685B6803F0030332
:10336000032B17D07B68DB68BB61FB695B00032222
:1033700002FA03F3DB43BA691340BB613B689A6806
:10338000FB695B0002FA03F3BA691343BB617B6814
:10339000BA69DA603B685B6803F00303022B23D150
:1033A000FB69DA087B68083253F82230BB61FB699D
:1033B00003F007039B000F2202FA03F3DB43BA6911
:1033C0001340BB613B681A69FB6903F007039B006C
:1033D00002FA03F3BA691343BB61FB69DA087B683D
:1033E0000832B96943F822107B681B68BB61FB692E
:1033F0005B00032202FA03F3DB43BA691340BB61AB
:103400003B685B6803F00302FB695B0002FA03F3AD
:10341000BA691343BB617B68BA691A603B685B6831
:1034200003F44033002B00F0B4800023FB60604BBA
:103430005B6C5F4A43F4804353645D4B5B6C03F405
:103440008043FB60FB685B4AFB699B08023352F8D0
:103450002330BB61FB6903F003039B000F2202FAD8
:1034600003F3DB43BA691340BB617B68524A934262
:103470002BD07B68514A934225D07B68504A9342B7
:103480001FD07B684F4A934219D07B684E4A9342C3
:1034900013D07B684D4A93420DD07B684C4A9342CF
:1034A00007D07B684B4A934201D107230EE00823E3
:1034B0000CE006230AE0052308E0042306E00323CA
:1034C00004E0022302E0012300E00023FA6902F095
:1034D000030292009340BA691343BB613549FB690B
:1034E0009B080233BA6941F823203B4B1B68BB6140
:1034F0003B69DB43BA691340BB613B685B6803F41B
:103500008033002B03D0BA693B691343BB61324A55
:10351000BB691360304B5B68BB613B69DB43BA69D5
:103520001340BB613B685B6803F40033002B03D09E
:10353000BA693B691343BB61274ABB695360264B99
:103540009B68BB613B69DB43BA691340BB613B6865
:103550005B6803F48013002B03D0BA693B69134303
:10356000BB611D4ABB6993601B4BDB68BB613B6958
:10357000DB43BA691340BB613B685B6803F400132B
:10358000002B03D0BA693B691343BB61124ABB6984
:10359000D360FB690133FB61FB690F2B7FF690AEB3
:1035A00000BF00BF2437BD465DF8047B704700BFF5
:1035B0000038024000380140000002400004024090
:1035C00000080240000C02400010024000140240BB
:1035D00000180240001C0240003C014080B483B04F
:1035E00000AF78600B467B8013467B707B78002BA6
:1035F00003D07A887B689A6103E07B881A047B6831
:103600009A6100BF0C37BD465DF8047B704700002F
:1036100080B586B000AF78607B68002B01D10123B4
:1036200064E27B681B6803F00103002B75D0A34B99
:103630009B6803F00C03042B0CD0A04B9B6803F099
:103640000C03082B12D19D4B5B6803F48003B3F588
:10365000800F0BD1994B1B6803F40033002B5BD018
:103660007B685B68002B57D101233FE27B685B6876
:10367000B3F5803F06D1914B1B68904A43F48033E9
:1036800013601DE07B685B68B3F5A02F0CD18B4BFA
:103690001B688A4A43F480231360884B1B68874A5F
:1036A00043F4803313600BE0844B1B68834A23F49C
:1036B00080331360814B1B68804A23F4802313609E
:1036C0007B685B68002B13D0FFF7A8F8386108E02F
:1036D000FFF7A4F802463B69D31A642B01D90323F0
:1036E00004E2764B1B6803F40033002BF0D014E0A7
:1036F000FFF794F8386108E0FFF790F802463B695D
:10370000D31A642B01D90323F0E16C4B1B6803F43B
:103710000033002BF0D100E000BF7B681B6803F092
:103720000203002B63D0654B9B6803F00C03002B56
:103730000BD0624B9B6803F00C03082B1CD15F4B32
:103740005B6803F48003002B16D15C4B1B6803F00D
:103750000203002B05D07B68DB68012B01D001231D
:10376000C4E1564B1B6823F0F8027B681B69DB0041
:10377000524913430B603AE07B68DB68002B20D092
:103780004F4B01221A60FFF749F8386108E0FFF754
:1037900045F802463B69D31A022B01D90323A5E160
:1037A000464B1B6803F00203002BF0D0434B1B6811
:1037B00023F0F8027B681B69DB00404913430B6070
:1037C00015E03F4B00221A60FFF728F8386108E047
:1037D000FFF724F802463B69D31A022B01D90323D1
:1037E00084E1364B1B6803F00203002BF0D17B68A9
:1037F0001B6803F00803002B30D07B685B69002B4B
:1038000016D0304B01221A60FFF708F8386108E043
:10381000FFF704F802463B69D31A022B01D90323B0
:1038200064E1264B5B6F03F00203002BF0D015E040
:10383000244B00221A60FEF7F1FF386108E0FEF722
:10384000EDFF02463B69D31A022B01D903234DE158
:103850001A4B5B6F03F00203002BF0D17B681B68EF
:1038600003F00403002B00F0A0800023FB75134B32
:103870001B6C03F08053002B0FD10023BB600F4B58
:103880001B6C0E4A43F0805313640C4B1B6C03F00B
:103890008053BB60BB680123FB750B4B1B6803F4B3
:1038A0008073002B21D1084B1B68074A43F48073B7
:1038B0001360FEF7B3FF386111E000BF003802402B
:1038C00000004742800E474200700040FEF7A6FF0E
:1038D00002463B69D31A022B01D9032306E1854B2B
:1038E0001B6803F48073002BF0D07B689B68012B6E
:1038F00006D1814B1B6F804A43F0010313671CE024
:103900007B689B68052B0CD17B4B1B6F7A4A43F07D
:1039100004031367784B1B6F774A43F00103136767
:103920000BE0754B1B6F744A23F001031367724B56
:103930001B6F714A23F0040313677B689B68002B9D
:1039400015D0FEF76BFF38610AE0FEF767FF02460D
:103950003B69D31A41F28832934201D90323C5E06F
:10396000654B1B6F03F00203002BEED014E0FEF753
:1039700055FF38610AE0FEF751FF02463B69D31A52
:1039800041F28832934201D90323AFE05A4B1B6FB7
:1039900003F00203002BEED1FB7D012B05D1564B2A
:1039A0001B6C554A23F0805313647B689B69002B82
:1039B00000F09B80504B9B6803F00C03082B5CD0FD
:1039C0007B689B69022B41D14C4B00221A60FEF7A9
:1039D00025FF386108E0FEF721FF02463B69D31A54
:1039E000022B01D9032381E0434B1B6803F00073D2
:1039F000002BF0D17B68DA697B681B6A1A437B680D
:103A00005B6A9B011A437B689B6A5B08013B1B0452
:103A10001A437B68DB6A1B06374913434B60374BFD
:103A200001221A60FEF7FAFE386108E0FEF7F6FEA2
:103A300002463B69D31A022B01D9032356E02E4BD1
:103A40001B6803F00073002BF0D04EE02B4B0022DC
:103A50001A60FEF7E3FE386108E0FEF7DFFE02467B
:103A60003B69D31A022B01D903233FE0224B1B6889
:103A700003F00073002BF0D137E07B689B69012BCA
:103A800001D1012332E01C4B5B68FB607B689B69C2
:103A9000012B28D0FB6803F480027B68DB699A4223
:103AA00021D1FB6803F03F027B681B6A9A421AD15E
:103AB000FA6847F6C07313407A68526A92019342DB
:103AC00011D1FB6803F440327B689B6A5B08013BC1
:103AD0001B049A4207D1FB6803F070627B68DB6AC3
:103AE0001B069A4201D0012300E000231846183734
:103AF000BD4680BD00700040003802406000474273
:103B000080B584B000AF786039607B68002B01D14C
:103B10000123CCE0684B1B6803F007033A689A4224
:103B20000CD9654B3A68D2B21A70634B1B6803F02C
:103B300007033A689A4201D00123B8E07B681B680A
:103B400003F00203002B20D07B681B6803F0040302
:103B5000002B05D0594B9B68584A43F4E0539360BF
:103B60007B681B6803F00803002B05D0534B9B6850
:103B7000524A43F460439360504B9B6823F0F00239
:103B80007B689B684D4913438B607B681B6803F01F
:103B90000103002B44D07B685B68012B07D1474BA6
:103BA0001B6803F40033002B19D101237FE07B68ED
:103BB0005B68022B03D07B685B68032B07D13F4B0C
:103BC0001B6803F00073002B09D101236FE03B4B0E
:103BD0001B6803F00203002B01D1012367E0374B80
:103BE0009B6823F003027B685B68344913438B6056
:103BF000FEF714FEF8600AE0FEF710FE0246FB68CE
:103C0000D31A41F28832934201D903234FE02B4B60
:103C10009B6803F00C027B685B689B009A42EBD1C7
:103C2000254B1B6803F007033A689A420CD2224BDB
:103C30003A68D2B21A70204B1B6803F007033A6847
:103C40009A4201D0012332E07B681B6803F0040331
:103C5000002B08D0194B9B6823F4E0527B68DB688B
:103C6000164913438B607B681B6803F00803002B25
:103C700009D0124B9B6823F460427B681B69DB0010
:103C80000E4913438B6000F021F802460B4B9B68F2
:103C90001B0903F00F030A49CB5C22FA03F3094A1C
:103CA0001360094B1B681846FEF770FC002318468A
:103CB0001037BD4680BD00BF003C024000380240C6
:103CC000A8A100080000002004000020B0B584B0C6
:103CD00000AF002179600021F960002139600021E6
:103CE000B9605249896801F00C0108290DD00829F2
:103CF00000F29480002902D0042903D08EE04C4BBE
:103D0000BB608EE04B4BBB608BE04849496801F0DB
:103D10003F0179604549496801F48001002924D0B8
:103D200042494968890908464FF0000140F2FF14F2
:103D30004FF0000500EA040201EA05033D4901FBDA
:103D400003F0002101FB02F144183A49A2FB0101F2
:103D5000631819467B681A464FF00003FCF706FF0C
:103D600002460B461346FB604AE0304B5B689B09FA
:103D70001A464FF0000340F2FF104FF0000102EA34
:103D8000000403EA0105204629464FF000024FF0E7
:103D900000034B0143EAD063420110461946001B61
:103DA00061EB05014FF000024FF000038B0143EA85
:103DB00090638201121A63EB01034FF000004FF091
:103DC0000001D90041EA5271D00002460B46121997
:103DD00045EB03034FF000004FF00001990241EA68
:103DE0009251900202460B46104619467B681A46CD
:103DF0004FF00003FCF7BAFE02460B461346FB6089
:103E00000A4B5B681B0C03F0030301335B003B6050
:103E1000FA683B68B2FBF3F3BB6002E0044BBB60A3
:103E200000BFBB6818461037BD46B0BD0038024021
:103E30000024F40040787D0180B400AF034B1B6880
:103E40001846BD465DF8047B704700BF00000020A7
:103E500080B500AFFFF7F0FF0246054B9B689B0A59
:103E600003F007030349CB5C22FA03F3184680BD35
:103E700000380240B8A1000880B500AFFFF7DCFFB2
:103E80000246054B9B685B0B03F007030349CB5CC1
:103E900022FA03F3184680BD00380240B8A100089A
:103EA00080B483B000AF786039607B680F221A60FD
:103EB000124B9B6803F003027B685A600F4B9B68B0
:103EC00003F0F0027B689A600C4B9B6803F4E052AD
:103ED0007B68DA60094B9B68DB0803F4E0527B687F
:103EE0001A61074B1B6803F007023B681A6000BFAA
:103EF0000C37BD465DF8047B704700BF00380240B8
:103F0000003C024080B582B000AF78607B68002B37
:103F100001D1012341E07B6893F83D30DBB2002BF7
:103F200006D17B68002283F83C207868FEF734F9DC
:103F30007B68022283F83D207B681A687B68043323
:103F40001946104600F0AEFD7B68012283F846203A
:103F50007B68012283F83E207B68012283F83F20A2
:103F60007B68012283F840207B68012283F841208E
:103F70007B68012283F842207B68012283F843207A
:103F80007B68012283F844207B68012283F8452066
:103F90007B68012283F83D20002318460837BD4680
:103FA00080BD000080B485B000AF78607B6893F876
:103FB0003D30DBB2012B01D001234EE07B680222B1
:103FC00083F83D207B681B68DA687B681B6842F0D9
:103FD0000102DA607B681B68234A934222D07B6827
:103FE0001B68B3F1804F1DD07B681B681F4A93424A
:103FF00018D07B681B681E4A934213D07B681B68ED
:104000001C4A93420ED07B681B681B4A934209D01E
:104010007B681B68194A934204D07B681B68184A66
:10402000934211D17B681B689B6803F00703FB6018
:10403000FB68062B10D07B681B681A687B681B68BE
:1040400042F001021A6007E07B681B681A687B680F
:104050001B6842F001021A60002318461437BD465F
:104060005DF8047B704700BF000001400004004081
:1040700000080040000C00400004014000400140E6
:104080000018004080B582B000AF78607B68002BDC
:1040900001D1012341E07B6893F83D30DBB2002B76
:1040A00006D17B68002283F83C20786800F039F85C
:1040B0007B68022283F83D207B681A687B680433A2
:1040C0001946104600F0EEFC7B68012283F846207A
:1040D0007B68012283F83E207B68012283F83F2021
:1040E0007B68012283F840207B68012283F841200D
:1040F0007B68012283F842207B68012283F84320F9
:104100007B68012283F844207B68012283F84520E4
:104110007B68012283F83D20002318460837BD46FE
:1041200080BD80B483B000AF786000BF0C37BD465F
:104130005DF8047B7047000080B584B000AF786004
:1041400039603B68002B09D17B6893F83E30DBB2C5
:10415000012B14BF01230023DBB222E03B68042BB8
:1041600009D17B6893F83F30DBB2012B14BF0123E8
:104170000023DBB215E03B68082B09D17B6893F87C
:104180004030DBB2012B14BF01230023DBB208E077
:104190007B6893F84130DBB2012B14BF012300236D
:1041A000DBB2002B01D001237CE03B68002B04D163
:1041B0007B68022283F83E2013E03B68042B04D185
:1041C0007B68022283F83F200BE03B68082B04D178
:1041D0007B68022283F8402003E07B68022283F898
:1041E00041207B681B6801223968184600F044FFB3
:1041F0007B681B682D4A934204D07B681B682C4A5D
:10420000934201D1012300E00023002B07D07B68FB
:104210001B685A6C7B681B6842F400425A647B68D6
:104220001B68224A934222D07B681B68B3F1804FFF
:104230001DD07B681B681F4A934218D07B681B689F
:104240001D4A934213D07B681B681C4A93420ED0D0
:104250007B681B68164A934209D07B681B68184A22
:10426000934204D07B681B68164A934211D17B6845
:104270001B689B6803F00703FB60FB68062B10D0EC
:104280007B681B681A687B681B6842F001021A6031
:1042900007E07B681B681A687B681B6842F00102B4
:1042A0001A60002318461037BD4680BD000001404B
:1042B000000401400004004000080040000C0040E1
:1042C000004001400018004080B586B000AF786023
:1042D00039607B68002B01D1012397E07B6893F85C
:1042E0003D30DBB2002B06D17B68002283F83C20F6
:1042F0007868FDF7CDFF7B68022283F83D207B685C
:104300001B689B687A68126823F4804323F00703D4
:1043100093607B681A687B6804331946104600F086
:10432000C1FB7B681B689B687B617B681B689B6922
:104330003B617B681B681B6AFB603B681B687A6992
:1043400013437B613B6923F4407323F003033B6118
:104350003B689A683B689B691B0213433A691343A5
:104360003B613B6923F4406323F00C033B613B69F1
:1043700023F4704323F0F0033B613B68DA683B6849
:10438000DB691B0213433A6913433B613B681B69BA
:104390001A013B681B6A1B0313433A6913433B61D1
:1043A000FB6823F02203FB60FB6823F08803FB60BB
:1043B0003B685A683B685B691B011343FA68134307
:1043C000FB607B681B687A699A607B681B683A6946
:1043D0009A617B681B68FA681A627B68012283F81D
:1043E00046207B68012283F83E207B68012283F807
:1043F0003F207B68012283F842207B68012283F8FA
:1044000043207B68012283F83D200023184618379B
:10441000BD4680BD80B584B000AF786039607B68F0
:1044200093F83E30FB737B6893F83F30BB737B6837
:1044300093F842307B737B6893F843303B733B685F
:10444000002B10D1FB7B012B02D17B7B012B01D0F8
:10445000012369E07B68022283F83E207B68022208
:1044600083F8422031E03B68042B10D1BB7B012B49
:1044700002D13B7B012B01D0012355E07B68022256
:1044800083F83F207B68022283F843201DE0FB7BFA
:10449000012B08D1BB7B012B05D17B7B012B02D1EA
:1044A0003B7B012B01D001233EE07B68022283F895
:1044B0003E207B68022283F83F207B68022283F83B
:1044C00042207B68022283F843203B68002B03D004
:1044D0003B68042B08D00FE07B681B680122002199
:1044E000184600F0C9FD16E07B681B680122042114
:1044F000184600F0C1FD0EE07B681B680122002118
:10450000184600F0B9FD7B681B680122042118469B
:1045100000F0B2FD00BF7B681B681A687B681B68EF
:1045200042F001021A60002318461037BD4680BDD4
:1045300080B582B000AF78607B681B681B6903F0B0
:104540000203022B22D17B681B68DB6803F00203A5
:10455000022B1BD17B681B686FF002021A617B681B
:1045600001221A777B681B689B6903F00303002B09
:1045700003D0786800F077FA05E0786800F069FA0F
:10458000786800F07AFA7B6800221A777B681B68EB
:104590001B6903F00403042B22D17B681B68DB68D2
:1045A00003F00403042B1BD17B681B686FF004022B
:1045B0001A617B6802221A777B681B689B6903F487
:1045C0004073002B03D0786800F04DFA05E078685E
:1045D00000F03FFA786800F050FA7B6800221A7702
:1045E0007B681B681B6903F00803082B22D17B68DA
:1045F0001B68DB6803F00803082B1BD17B681B6872
:104600006FF008021A617B6804221A777B681B68C6
:10461000DB6903F00303002B03D0786800F023FA72
:1046200005E0786800F015FA786800F026FA7B68F3
:1046300000221A777B681B681B6903F01003102B9C
:1046400022D17B681B68DB6803F01003102B1BD1A1
:104650007B681B686FF010021A617B6808221A776A
:104660007B681B68DB6903F44073002B03D0786818
:1046700000F0F9F905E0786800F0EBF9786800F0EF
:10468000FCF97B6800221A777B681B681B6903F0C2
:104690000103012B0ED17B681B68DB6803F001036B
:1046A000012B07D17B681B686FF001021A617868E3
:1046B000FDF7D6FC7B681B681B6903F08003802B29
:1046C0000ED17B681B68DB6803F08003802B07D169
:1046D0007B681B686FF080021A61786800F0CAFD81
:1046E0007B681B681B6903F04003402B0ED17B687D
:1046F0001B68DB6803F04003402B07D17B681B6815
:104700006FF040021A61786800F0C1F97B681B689D
:104710001B6903F02003202B0ED17B681B68DB682C
:1047200003F02003202B07D17B681B686FF0200269
:104730001A61786800F094FD00BF0837BD4680BD5F
:1047400080B586B000AFF860B9607A600023FB7571
:10475000FB6893F83C30012B01D10223AEE0FB68EB
:10476000012283F83C207B680C2B00F29F8001A281
:1047700052F823F0A9470008AD480008AD480008EA
:10478000AD480008E9470008AD480008AD480008FA
:10479000AD4800082B480008AD480008AD480008A7
:1047A000AD4800086B480008FB681B68B9681846EC
:1047B00000F018FAFB681B689A69FB681B6842F0F6
:1047C00008029A61FB681B689A69FB681B6822F003
:1047D00004029A61FB681B689969BB681A69FB68E7
:1047E0001B680A439A6164E0FB681B68B968184655
:1047F00000F068FAFB681B689A69FB681B6842F462
:1048000000629A61FB681B689A69FB681B6822F466
:1048100080629A61FB681B689969BB681B691A0210
:10482000FB681B680A439A6143E0FB681B68B96830
:10483000184600F0BDFAFB681B68DA69FB681B6864
:1048400042F00802DA61FB681B68DA69FB681B68E2
:1048500022F00402DA61FB681B68D969BB681A6937
:10486000FB681B680A43DA6123E0FB681B68B968D0
:10487000184600F011FBFB681B68DA69FB681B68CF
:1048800042F40062DA61FB681B68DA69FB681B6846
:1048900022F48062DA61FB681B68D969BB681B6916
:1048A0001A02FB681B680A43DA6102E00123FB7508
:1048B00000BFFB68002283F83C20FB7D18461837B8
:1048C000BD4680BD80B584B000AF786039600023FC
:1048D000FB737B6893F83C30012B01D10223B4E0D9
:1048E0007B68012283F83C207B68022283F83D200C
:1048F0007B681B689B68BB60BB6823F07703BB6069
:10490000BB6823F47F43BB607B681B68BA689A600E
:104910003B681B68B3F5005F3ED0B3F5005F00F263
:104920008780B3F5805F00F08680B3F5805F7FD825
:10493000702B1AD0702B7BD8602B50D0602B77D87F
:10494000502B3CD0502B73D8402B58D0402B6FD8D5
:10495000302B64D0302B6BD8202B60D0202B67D825
:10496000002B5CD0102B5AD062E07B6818683B6843
:1049700099683B685A683B68DB6800F05DFB7B68C0
:104980001B689B68BB60BB6843F07703BB607B68B8
:104990001B68BA689A604FE07B6818683B68996842
:1049A0003B685A683B68DB6800F046FB7B681B6825
:1049B0009A687B681B6842F480429A603CE07B689E
:1049C00018683B6859683B68DB681A4600F0BAFA19
:1049D0007B681B685021184600F013FB2CE07B68B5
:1049E00018683B6859683B68DB681A4600F0D9FADA
:1049F0007B681B686021184600F003FB1CE07B68A5
:104A000018683B6859683B68DB681A4600F09AFAF8
:104A10007B681B684021184600F0F3FA0CE07B68C5
:104A20001A683B681B681946104600F0EAFA03E072
:104A30000123FB7300E000BF7B68012283F83D2067
:104A40007B68002283F83C20FB7B18461037BD466C
:104A500080BD80B483B000AF786000BF0C37BD4626
:104A60005DF8047B704780B483B000AF786000BF0E
:104A70000C37BD465DF8047B704780B483B000AF4F
:104A8000786000BF0C37BD465DF8047B704780B48A
:104A900083B000AF786000BF0C37BD465DF8047B83
:104AA0007047000080B485B000AF786039607B68E3
:104AB0001B68FB607B68404A934213D07B68B3F16C
:104AC000804F0FD07B683D4A93420BD07B683C4AB5
:104AD000934207D07B683B4A934203D07B683A4AB3
:104AE000934208D1FB6823F07003FB603B685B686E
:104AF000FA681343FB607B682F4A93422BD07B6894
:104B0000B3F1804F27D07B682C4A934223D07B6837
:104B10002B4A93421FD07B682A4A93421BD07B6862
:104B2000294A934217D07B68284A934213D07B6866
:104B3000274A93420FD07B68264A93420BD07B686A
:104B4000254A934207D07B68244A934203D07B686E
:104B5000234A934208D1FB6823F44073FB603B680F
:104B6000DB68FA681343FB60FB6823F080023B6854
:104B70005B691343FB607B68FA681A603B689A685C
:104B80007B68DA623B681A687B689A627B680A4ACB
:104B9000934203D07B680C4A934203D13B681A6965
:104BA0007B681A637B6801225A6100BF1437BD46D7
:104BB0005DF8047B704700BF000001400004004026
:104BC00000080040000C004000040140004001408B
:104BD000004401400048014000180040001C004013
:104BE0000020004080B487B000AF786039607B68F7
:104BF0001B6A23F001027B681A627B681B6A7B6177
:104C00007B685B683B617B689B69FB60FB6823F0AA
:104C10007003FB60FB6823F00303FB603B681B68C9
:104C2000FA681343FB607B6923F002037B613B68F6
:104C30009B687A6913437B617B68204A934203D067
:104C40007B681F4A93420CD17B6923F008037B6188
:104C50003B68DB687A6913437B617B6923F004035B
:104C60007B617B68154A934203D07B68144A934268
:104C700011D13B6923F480733B613B6923F40073DA
:104C80003B613B685B693A6913433B613B689B69E5
:104C90003A6913433B617B683A695A607B68FA68FA
:104CA0009A613B685A687B685A637B687A691A62C2
:104CB00000BF1C37BD465DF8047B70470000014013
:104CC0000004014080B487B000AF786039607B6831
:104CD0001B6A23F010027B681A627B681B6A7B6187
:104CE0007B685B683B617B689B69FB60FB6823F4C6
:104CF000E043FB60FB6823F44073FB603B681B6888
:104D00001B02FA681343FB607B6923F020037B617D
:104D10003B689B681B017A6913437B617B68224A6D
:104D2000934203D07B68214A93420DD17B6923F0E3
:104D300080037B613B68DB681B017A6913437B61FD
:104D40007B6923F040037B617B68174A934203D061
:104D50007B68164A934213D13B6923F480633B611D
:104D60003B6923F400633B613B685B699B003A69E4
:104D700013433B613B689B699B003A6913433B616A
:104D80007B683A695A607B68FA689A613B685A683E
:104D90007B689A637B687A691A6200BF1C37BD46DC
:104DA0005DF8047B704700BF000001400004014033
:104DB00080B487B000AF786039607B681B6A23F4E9
:104DC00080727B681A627B681B6A7B617B685B68A8
:104DD0003B617B68DB69FB60FB6823F07003FB6071
:104DE000FB6823F00303FB603B681B68FA6813430E
:104DF000FB607B6923F400737B613B689B681B024B
:104E00007A6913437B617B68214A934203D07B68B4
:104E1000204A93420DD17B6923F400637B613B6898
:104E2000DB681B027A6913437B617B6923F480632F
:104E30007B617B68164A934203D07B68154A934294
:104E400013D13B6923F480533B613B6923F4005346
:104E50003B613B685B691B013A6913433B613B68FB
:104E60009B691B013A6913433B617B683A695A604D
:104E70007B68FA68DA613B685A687B68DA637B684A
:104E80007A691A6200BF1C37BD465DF8047B704723
:104E9000000001400004014080B487B000AF78609A
:104EA00039607B681B6A23F480527B681A627B68D6
:104EB0001B6A3B617B685B687B617B68DB69FB60CD
:104EC000FB6823F4E043FB60FB6823F44073FB6062
:104ED0003B681B681B02FA681343FB603B6923F4C1
:104EE00000533B613B689B681B033A6913433B617A
:104EF0007B68124A934203D07B68114A934209D1DE
:104F00007B6923F480437B613B685B699B017A6921
:104F100013437B617B687A695A607B68FA68DA615F
:104F20003B685A687B681A647B683A691A6200BFFA
:104F30001C37BD465DF8047B704700BF0000014090
:104F40000004014080B487B000AFF860B9607A60B7
:104F5000FB681B6A7B61FB681B6A23F00102FB682C
:104F60001A62FB689B693B613B6923F0F0033B617C
:104F70007B681B013A6913433B617B6923F00A0399
:104F80007B617A69BB6813437B61FB683A699A610C
:104F9000FB687A691A6200BF1C37BD465DF8047B66
:104FA000704780B487B000AFF860B9607A60FB6882
:104FB0001B6A23F01002FB681A62FB689B697B6125
:104FC000FB681B6A3B617B6923F470437B617B68F0
:104FD0001B037A6913437B613B6923F0A0033B61A8
:104FE000BB681B013A6913433B61FB687A699A61AC
:104FF000FB683A691A6200BF1C37BD465DF8047B46
:10500000704780B485B000AF786039607B689B687A
:10501000FB60FB6823F07003FB603A68FB68134396
:1050200043F00703FB607B68FA689A6000BF14379F
:10503000BD465DF8047B704780B487B000AFF86070
:10504000B9607A603B60FB689B687B617B6923F495
:105050007F437B613B681A027B681A43BB6813433A
:105060007A6913437B61FB687A699A6000BF1C37D9
:10507000BD465DF8047B704780B487B000AFF86030
:10508000B9607A60BB6803F01F03012202FA03F3E0
:105090007B61FB681A6A7B69DB431A40FB681A6212
:1050A000FB681A6ABB6803F01F03796801FA03F30F
:1050B0001A43FB681A6200BF1C37BD465DF8047BCB
:1050C0007047000080B485B000AF786039607B68BD
:1050D00093F83C30012B01D102235AE07B68012276
:1050E00083F83C207B68022283F83D207B681B68A4
:1050F0005B68FB607B681B689B68BB60FB6823F098
:105100007003FB603B681B68FA681343FB607B68B5
:105110001B68FA685A607B681B68214A934222D058
:105120007B681B68B3F1804F1DD07B681B681D4AEC
:10513000934218D07B681B681B4A934213D07B684C
:105140001B681A4A93420ED07B681B68184A934228
:1051500009D07B681B68174A934204D07B681B68A0
:10516000154A93420CD1BB6823F08003BB603B68B7
:105170005B68BA681343BB607B681B68BA689A6057
:105180007B68012283F83D207B68002283F83C2065
:10519000002318461437BD465DF8047B704700BFF6
:1051A000000001400004004000080040000C0040E6
:1051B00000040140004001400018004080B485B068
:1051C00000AF786039600023FB607B6893F83C3067
:1051D000012B01D102233DE07B68012283F83C20B2
:1051E000FB6823F0FF023B68DB681343FB60FB684E
:1051F00023F440723B689B681343FB60FB6823F415
:1052000080623B685B681343FB60FB6823F40062C9
:105210003B681B681343FB60FB6823F480523B68C8
:105220001B691343FB60FB6823F400523B685B6916
:105230001343FB60FB6823F480423B68DB69134344
:10524000FB607B681B68FA685A647B68002283F8FD
:105250003C20002318461437BD465DF8047B704798
:1052600080B483B000AF786000BF0C37BD465DF8F6
:10527000047B704780B483B000AF786000BF0C3708
:10528000BD465DF8047B704780B582B000AF7860A2
:105290007B68002B01D101233FE07B6893F83D3010
:1052A000DBB2002B06D17B68002283F83C207868B3
:1052B000FDF7EAF87B68242283F83D207B681B68B1
:1052C000DA687B681B6822F40052DA60786800F0C4
:1052D000DBFC7B681B681A697B681B6822F49042C0
:1052E0001A617B681B685A697B681B6822F02A0276
:1052F0005A617B681B68DA687B681B6842F400525D
:10530000DA607B6800221A647B68202283F83D20E3
:105310007B68202283F83E20002318460837BD46CC
:1053200080BD80B584B000AFF860B9601346FB80E3
:10533000FB6893F83E30DBB2202B1DD1BB68002BFD
:1053400002D0FB88002B01D1012316E0FB6893F803
:105350003C30012B01D102230FE0FB68012283F8CE
:105360003C20FB6800221A63FB881A46B968F8687B
:1053700000F0B6FA034600E0022318461037BD4697
:1053800080BD000080B5BAB000AF78607B681B6854
:105390001B68C7F8E4307B681B68DB68C7F8E0303F
:1053A0007B681B685B69C7F8DC300023C7F8D8301E
:1053B0000023C7F8D430D7F8E43003F00F03C7F860
:1053C000D830D7F8D830002B0FD1D7F8E43003F01D
:1053D0002003002B09D0D7F8E03003F02003002B86
:1053E00003D0786800F095FB56E2D7F8D830002B50
:1053F00000F0DE80D7F8DC3003F00103002B06D18B
:10540000D7F8E03003F49073002B00F0D180D7F888
:10541000E43003F00103002B0BD0D7F8E03003F4A5
:105420008073002B05D07B681B6C43F001027B6806
:105430001A64D7F8E43003F00403002B0BD0D7F83C
:10544000DC3003F00103002B05D07B681B6C43F0BC
:1054500002027B681A64D7F8E43003F00203002BE1
:105460000BD0D7F8DC3003F00103002B05D07B68AC
:105470001B6C43F004027B681A64D7F8E43003F035
:105480000803002B11D0D7F8E03003F02003002BE5
:1054900005D1D7F8DC3003F00103002B05D07B6881
:1054A0001B6C43F008027B681A647B681B6C002B42
:1054B00000F0ED81D7F8E43003F02003002B08D092
:1054C000D7F8E03003F02003002B02D0786800F01A
:1054D00020FB7B681B685B6903F04003402B0CBF1B
:1054E00001230023DBB2C7F8D4307B681B6C03F0C8
:1054F0000803002B03D1D7F8D430002B4FD07868A5
:1055000000F028FA7B681B685B6903F04003402BBE
:1055100041D17B681B681433C7F89C30D7F89C30A6
:1055200053E8003FC7F89830D7F8983023F040038D
:10553000C7F8D0307B681B681433D7F8D020C7F881
:10554000A820C7F8A430D7F8A410D7F8A82041E8BD
:105550000023C7F8A030D7F8A030002BD9D17B6842
:105560009B6B002B13D07B689B6B7D4A1A657B6815
:105570009B6B1846FDF7B6FB0346002B16D07B68E5
:105580009B6B1B6D7A68926B104698470EE07868AB
:1055900000F090F90AE0786800F08CF906E078688D
:1055A00000F088F97B6800221A6470E100BF6EE1A8
:1055B0007B681B6B012B40F04A81D7F8E43003F085
:1055C0001003002B00F04381D7F8E03003F0100304
:1055D000002B00F03C810023BB607B681B681B68CC
:1055E000BB607B681B685B68BB60BB687B681B68D3
:1055F0005B6903F04003402B40F0B4807B689B6BF9
:105600001B685B68A7F8BE30B7F8BE30002B00F00F
:1056100040817B689B8DB7F8BE209A4280F039812B
:105620007B68B7F8BE20DA857B689B6BDB69B3F5D6
:10563000807F00F088807B681B680C33C7F8883057
:10564000D7F8883053E8003FC7F88430D7F8843063
:1056500023F48073C7F8B8307B681B680C33D7F825
:10566000B820C7F89420C7F89030D7F89010D7F832
:10567000942041E80023C7F88C30D7F88C30002BF9
:10568000D9D17B681B6814337B677B6F53E8003F7D
:105690003B673B6F23F00103C7F8B4307B681B689E
:1056A0001433D7F8B420C7F88020FB67F96FD7F818
:1056B000802041E80023BB67BB6F002BE1D17B68F2
:1056C0001B6814333B663B6E53E8003FFB65FB6D84
:1056D00023F04003C7F8B0307B681B681433D7F859
:1056E000B020FA66BB66B96EFA6E41E800237B66AD
:1056F0007B6E002BE3D17B68202283F83E207B6801
:1057000000221A637B681B680C33FB64FB6C53E854
:10571000003FBB64BB6C23F01003C7F8AC307B6860
:105720001B680C33D7F8AC20BA657B65796DBA6D10
:1057300041E800233B653B6D002BE3D17B689B6B0D
:105740001846FDF75FFA7B689A8D7B68DB8D9BB20C
:10575000D31A9BB21946786800F0B6F899E000BFFA
:105760001B5A00087B689A8D7B68DB8D9BB2D31A2D
:10577000A7F8CE307B68DB8D9BB2002B00F08B80CE
:10578000B7F8CE30002B00F086807B681B680C33A6
:10579000BB63BB6B53E8003F7B637B6B23F490736D
:1057A000C7F8C8307B681B680C33D7F8C8207A6408
:1057B0003B64396C7A6C41E80023FB63FB6B002B84
:1057C000E3D17B681B6814337B627B6A53E8003F3C
:1057D0003B623B6A23F00103C7F8C4307B681B6857
:1057E0001433D7F8C4203A63FB62F96A3A6B41E894
:1057F0000023BB62BB6A002BE3D17B68202283F8C5
:105800003E207B6800221A637B681B680C333B6177
:105810003B6953E8003FFB60FB6823F01003C7F8C7
:10582000C0307B681B680C33D7F8C020FA61BB61BD
:10583000B969FA6941E800237B617B69002BE3D1F8
:10584000B7F8CE301946786800F03EF823E0D7F874
:10585000E43003F08003002B09D0D7F8E03003F0E8
:105860008003002B03D0786800F0EBF814E0D7F841
:10587000E43003F04003002B0ED0D7F8E03003F003
:105880004003002B08D0786800F02BF904E000BF3B
:1058900002E000BF00E000BFE837BD4680BD00BFAA
:1058A00080B483B000AF786000BF0C37BD465DF8B0
:1058B000047B704780B483B000AF786000BF0C37C2
:1058C000BD465DF8047B704780B483B000AF78605C
:1058D0000B467B8000BF0C37BD465DF8047B7047EC
:1058E00080B485B000AFF860B9601346FB80FB68F8
:1058F000BA689A62FB68FA889A85FB68FA88DA8542
:10590000FB6800221A64FB68222283F83E20FB68B1
:10591000002283F83C20FB681B68DA68FB681B6880
:1059200042F48072DA60FB681B685A69FB681B6886
:1059300042F001025A61FB681B68DA68FB681B6869
:1059400042F02002DA60002318461437BD465DF8A5
:10595000047B704780B495B000AF78607B681B68AB
:105960000C337B637B6B53E8003F3B633B6B23F45F
:105970009073FB647B681B680C33FA6C3A64FB63BE
:10598000F96B3A6C41E80023BB63BB6B002BE5D19C
:105990007B681B6814333B623B6A53E8003FFB6142
:1059A000FB6923F00103BB647B681B681433BA6C8A
:1059B000FA62BB62B96AFA6A41E800237B627B6AD9
:1059C000002BE5D17B681B6B012B19D17B681B6811
:1059D0000C33FB60FB6853E8003FBB60BB6823F0FF
:1059E00010037B647B681B680C337A6CBA617B6143
:1059F0007969BA6941E800233B613B69002BE5D135
:105A00007B68202283F83E207B6800221A6300BF57
:105A10005437BD465DF8047B704780B584B000AF55
:105A200078607B689B6BFB60FB680022DA85FB6813
:105A30000022DA84F868FFF73DFF00BF1037BD464B
:105A400080BD80B485B000AF78607B6893F83D304E
:105A5000DBB2212B3ED17B689B68B3F5805F14D10C
:105A60007B681B69002B10D17B681B6AFB60FB689D
:105A70001B881A467B681B68C2F308025A607B6861
:105A80001B6A9A1C7B681A6208E07B681B6A591CB7
:105A90007A6811621A787B681B685A607B68DB8CB5
:105AA0009BB2013B9BB27A681946D184002B0FD17F
:105AB0007B681B68DA687B681B6822F08002DA600A
:105AC0007B681B68DA687B681B6842F04002DA601A
:105AD000002300E0022318461437BD465DF8047B1E
