:020000040800F2
:1000000000000220A1080008290800082F080008A5
:10001000350800083B0800084108000800000000FF
:100020000000000000000000000000004708000879
:100030005508000800000000630800087108000867
:10004000F1080008F1080008F1080008F1080008AC
:10005000F1080008F1080008F1080008F10800089C
:10006000F1080008F1080008F1080008F10800088C
:10007000F1080008F1080008F1080008F10800087C
:10008000F1080008F1080008F1080008F10800086C
:10009000F1080008F1080008F1080008F10800085C
:1000A000F1080008F1080008F1080008F10800084C
:1000B000F1080008F1080008F1080008F10800083C
:1000C000F1080008F1080008F1080008F10800082C
:1000D000F1080008F1080008F1080008F10800081C
:1000E000F1080008F1080008F1080008F10800080C
:1000F000F1080008F1080008F1080008F1080008FC
:10010000F1080008F1080008F1080008F1080008EB
:10011000F1080008F1080008F1080008F1080008DB
:10012000F1080008F1080008F1080008F1080008CB
:10013000F1080008F1080008F1080008F1080008BB
:10014000F1080008F1080008F1080008F1080008AB
:10015000F1080008F1080008F1080008F10800089B
:10016000F1080008F1080008F1080008F10800088B
:10017000F1080008F1080008F1080008000000007C
:08018000F1080008F108000875
:1001880010B5054C237833B9044B13B10448AFF3C9
:1001980000800123237010BD0C0000200000000027
:1001A800B024000808B5034B1BB103490348AFF35B
:1001B800008008BD0000000010000020B0240008E6
:1001C80053B94AB9002908BF00281CBF4FF0FF31B6
:1001D8004FF0FF3000F06EB9ADF1080C6DE904CEB8
:1001E80000F006F8DDF804E0DDE9022304B070470A
:1001F8002DE9F047089D04468C46002B40F083808B
:100208008A42174647D9B2FA82F242B1C2F12000B7
:1002180024FA00F09140974040EA010C94404FEADC
:100228001748230CBCFBF8F61FFA87FE08FB16C11B
:1002380043EA014306FB0EF1994209D9FB1806F17E
:10024800FF3080F01981994240F21681023E3B440A
:100258005B1AA4B2B3FBF8F008FB103344EA03447A
:1002680000FB0EFEA64509D93C1900F1FF3380F0CA
:100278000581A64540F2028102383C4440EA064026
:10028800A4EB0E0400261DB1D4400023C5E90043A9
:100298003146BDE8F08702B9FFDEB2FA82F2002AE1
:1002A80050D1CB1B4FEA174E1FFA87F80126B3FB34
:1002B800FEFC210C0EFB1C3341EA034108FB0CF346
:1002C8008B4207D979180CF1FF3002D28B4200F229
:1002D800E9808446C91AA3B2B1FBFEF00EFB1011E7
:1002E80043EA014408FB00F8A04507D93C1900F18E
:1002F800FF3302D2A04500F2D9801846A4EB0804C7
:1003080040EA0C40BFE78B4209D9002D00F0B180CC
:100318000026C5E9000130463146BDE8F087B3FA4A
:1003280083F6002E4AD18B4202D3824200F2B88073
:10033800841A61EB030101208C46002DA8D0C5E981
:10034800004CA5E7C2F1200320FA03F6974001FA12
:1003580002F04FEA174ED9403043030CB1FBFEF6CA
:100368001FFA87F80EFB161143EA014306FB08F152
:10037800994204FA02F409D9FB1806F1FF3C80F00F
:100388008D80994240F28A80023E3B445B1A81B2DA
:10039800B3FBFEF00EFB103341EA034100FB08F308
:1003A8008B4207D9791800F1FF3C73D28B4271D97F
:1003B80002383944CB1A40EA064678E7C6F1200CE1
:1003C80003FA06F422FA0CF31C4320FA0CF701FA9C
:1003D80006F34FEA144E21FA0CF11F433B0CB1FB14
:1003E800FEF91FFA84F80EFB191143EA014109FBD3
:1003F80008FA8A4502FA06F200FA06F308D96118E3
:1004080009F1FF3048D28A4546D9A9F102092144A9
:10041800A1EB0A01BFB2B1FBFEF00EFB101147EAD7
:10042800014700FB08F8B84507D9E71900F1FF3183
:100438002ED2B8452CD90238274440EA0940A7EB08
:100448000807A0FB02894F45C64649461AD317D06C
:100458005DB1B3EB0E0267EB010707FA0CFCF24043
:100468004CEA0202F740C5E9002700263146BDE8FC
:10047800F0872E4628460BE70646E9E61846FDE6CD
:100488004345E5D2B8EB020E69EB04010138DFE71A
:100498000846D2E760468DE78146B9E7664675E7C4
:1004A80030464AE7ACF1020C394413E702383C44C1
:1004B80024E700BF704700BF80B500AF00F016FA10
:1004C80000F034F800F008F900F08EF80C21164816
:1004D80001F0E0F9144B1B684B221A6440F6B8305F
:1004E80000F076FA104B1B6832221A6440F6B830D6
:1004F80000F06EFA0C4B1B6864221A6440F6B830A0
:1005080000F066FA084B1B6832221A6440F6B830CD
:1005180000F05EFA044B1B684B221A6440F6B830B0
:1005280000F056FAD6E700BF2800002080B594B046
:1005380000AF07F1200330220021184601F0ACFF7C
:1005480007F10C0300221A605A609A60DA601A6197
:100558000023BB60224B1B6C214A43F08053136479
:100568001F4B1B6C03F08053BB60BB6800237B6090
:100578001C4B1B681B4A43F480431360194B1B68D0
:1005880003F480437B607B6802233B620123FB62A8
:1005980010233B630023BB6307F12003184600F0D8
:1005A800BDFC0346002B01D000F0B0F80F23FB6020
:1005B80000233B6100237B610023BB610023FB61B7
:1005C80007F10C030021184600F020FF0346002B1A
:1005D80001D000F09BF800BF5037BD4680BD00BF7A
:1005E800003802400070004080B58EB000AF07F1BF
:1005F800280300221A605A609A60DA6007F1200323
:1006080000221A605A603B1D00221A605A609A60E4
:10061800DA601A615A619A612D4B2E4A1A602C4B86
:1006280040F23F125A602A4B00229A60284B40F24F
:10063800E732DA60264B00221A61254B80229A6144
:10064800234801F07FF80346002B01D000F05EF844
:100658004FF48053BB6207F1280319461C4801F088
:10066800A3FA0346002B01D000F050F8184801F017
:10067800B8F80346002B01D000F048F800233B628D
:1006880000237B6207F120031946114801F064FE3C
:100698000346002B01D000F039F860237B6000236B
:1006A800BB600023FB6000237B613B1D0C221946C5
:1006B800074801F0B7F90346002B01D000F026F8EF
:1006C800034800F073F800BF3837BD4680BD00BF4F
:1006D800280000200008004080B483B000AF002349
:1006E8007B60094B1B6B084A43F008031363064BF6
:1006F8001B6B03F008037B607B6800BF0C37BD46AB
:100708005DF8047B704700BF0038024080B400AF3A
:1007180072B600BFFEE7000080B483B000AF0023CC
:100728007B60104B5B6C0F4A43F4804353640D4B62
:100738005B6C03F480437B607B6800233B60094B60
:100748001B6C084A43F080531364064B1B6C03F080
:1007580080533B603B6800BF0C37BD465DF8047BA7
:10076800704700BF0038024080B485B000AF7860A1
:100778007B681B680B4A93420DD10023FB600A4B30
:100788001B6C094A43F004031364074B1B6C03F00A
:100798000403FB60FB6800BF1437BD465DF8047BAB
:1007A800704700BF000800400038024080B588B09C
:1007B80000AF786007F10C0300221A605A609A6053
:1007C800DA601A617B681B68124A93421ED10023C3
:1007D800BB60114B1B6B104A43F0080313630E4BAD
:1007E8001B6B03F00803BB60BB684FF40043FB605E
:1007F80002233B6100237B610023BB610223FB6171
:1008080007F10C031946054800F0ECF900BF203742
:10081800BD4680BD0008004000380240000C024080
:1008280080B400AFFEE780B400AFFEE780B400AF4D
:10083800FEE780B400AFFEE780B400AFFEE780B407
:1008480000AF00BFBD465DF8047B704780B400AFC1
:1008580000BFBD465DF8047B704780B400AF00BFA1
:10086800BD465DF8047B704780B500AF00F090F896
:1008780000BF80BD80B400AF064BD3F88830054A6E
:1008880043F47003C2F8883000BFBD465DF8047BAE
:10089800704700BF00ED00E0DFF834D00D480E4986
:1008A8000E4A002302E0D458C4500433C4188C42C2
:1008B800F9D30B4A0B4C002301E013600432A24227
:1008C800FBD3FFF7D7FF01F0C3FDFFF7F5FD704736
:1008D80000000220000000200C000020E82400088E
:1008E8000C00002074000020FEE7000080B500AF77
:1008F8000E4B1B680D4A43F4007313600B4B1B68C7
:100908000A4A43F480631360084B1B68074A43F4A0
:1009180080731360032000F031F90F2000F008F80D
:10092800FFF7FAFE0023184680BD00BF003C0240D6
:1009380080B582B000AF7860124B1A68124B1B78F2
:1009480019464FF47A73B3FBF1F3B2FBF3F318468D
:1009580000F03BF90346002B01D001230EE07B6831
:100968000F2B0AD8002279684FF0FF3000F011F9F8
:10097800064A7B681360002300E001231846083705
:10098800BD4680BD000000200800002004000020B3
:1009980080B400AF064B1B781A46064B1B681344FD
:1009A800044A136000BFBD465DF8047B704700BF72
:1009B800080000207000002080B400AF034B1B68C3
:1009C8001846BD465DF8047B704700BF70000020E4
:1009D80080B584B000AF7860FFF7EEFFB8607B6841
:1009E800FB60FB68B3F1FF3F05D00A4B1B781A4642
:1009F800FB681344FB6000BFFFF7DEFF0246BB68DD
:100A0800D31AFA689A42F7D800BF00BF1037BD461C
:100A180080BD00BF0800002080B485B000AF7860BA
:100A28007B6803F00703FB600C4BDB68BB60BA68AC
:100A38004FF6FF031340BB60FB681A02BB68134301
:100A480043F0BF6343F40033BB60044ABB68D36020
:100A580000BF1437BD465DF8047B704700ED00E029
:100A680080B400AF044BDB681B0A03F00703184689
:100A7800BD465DF8047B704700ED00E080B483B0AC
:100A880000AF03463960FB7197F90730002B0ADB8A
:100A98003B68DAB20C4997F907301201D2B20B441D
:100AA80083F800230AE03B68DAB20849FB7903F0CF
:100AB8000F03043B1201D2B20B441A7600BF0C3765
:100AC800BD465DF8047B704700E100E000ED00E002
:100AD80080B489B000AFF860B9607A60FB6803F051
:100AE8000703FB61FB69C3F10703042B28BF042339
:100AF800BB61FB690433062B02D9FB69033B00E0A9
:100B080000237B614FF0FF32BB6902FA03F3DA433B
:100B1800BB681A407B699A404FF0FF317B6901FA44
:100B280003F3D9437B680B40134318462437BD466B
:100B38005DF8047B7047000080B582B000AF786034
:100B48007B68013BB3F1807F01D301230FE00A4AA0
:100B58007B68013B53600F214FF0FF30FFF78EFF9A
:100B6800054B00229A60044B07221A60002318469E
:100B78000837BD4680BD00BF10E000E080B582B0F8
:100B880000AF78607868FFF747FF00BF0837BD46B9
:100B980080BD80B586B000AF0346B9607A60FB734C
:100BA80000237B61FFF75CFF78617A68B968786930
:100BB800FFF78EFF024697F90F3011461846FFF7E8
:100BC8005DFF00BF1837BD4680BD80B582B000AF5D
:100BD80078607868FFF7B0FF034618460837BD46C7
:100BE80080BD000080B489B000AF78603960002310
:100BF8007B6100233B610023BB610023FB616BE148
:100C08000122FB6902FA03F37B613B681B687A697E
:100C180013403B613A697B699A4240F05A813B68CC
:100C28005B6803F00303012B05D03B685B6803F0A6
:100C38000303022B30D17B689B68BB61FB695B00B7
:100C4800032202FA03F3DB43BA691340BB613B6832
:100C5800DA68FB695B0002FA03F3BA691343BB6104
:100C68007B68BA699A607B685B68BB610122FB6933
:100C780002FA03F3DB43BA691340BB613B685B6864
:100C88001B0903F00102FB6902FA03F3BA69134373
:100C9800BB617B68BA695A603B685B6803F0030311
:100CA800032B17D07B68DB68BB61FB695B00032201
:100CB80002FA03F3DB43BA691340BB613B689A68E5
:100CC800FB695B0002FA03F3BA691343BB617B68F3
:100CD800BA69DA603B685B6803F00303022B23D12F
:100CE800FB69DA087B68083253F82230BB61FB697C
:100CF80003F007039B000F2202FA03F3DB43BA69F0
:100D08001340BB613B681A69FB6903F007039B004A
:100D180002FA03F3BA691343BB61FB69DA087B681B
:100D28000832B96943F822107B681B68BB61FB690C
:100D38005B00032202FA03F3DB43BA691340BB6189
:100D48003B685B6803F00302FB695B0002FA03F38C
:100D5800BA691343BB617B68BA691A603B685B6810
:100D680003F44033002B00F0B4800023FB60604B99
:100D78005B6C5F4A43F4804353645D4B5B6C03F4E4
:100D88008043FB60FB685B4AFB699B08023352F8AF
:100D98002330BB61FB6903F003039B000F2202FAB7
:100DA80003F3DB43BA691340BB617B68524A934241
:100DB8002BD07B68514A934225D07B68504A934296
:100DC8001FD07B684F4A934219D07B684E4A9342A2
:100DD80013D07B684D4A93420DD07B684C4A9342AE
:100DE80007D07B684B4A934201D107230EE00823C2
:100DF8000CE006230AE0052308E0042306E00323A9
:100E080004E0022302E0012300E00023FA6902F073
:100E1800030292009340BA691343BB613549FB69E9
:100E28009B080233BA6941F823203B4B1B68BB611E
:100E38003B69DB43BA691340BB613B685B6803F4F9
:100E48008033002B03D0BA693B691343BB61324A34
:100E5800BB691360304B5B68BB613B69DB43BA69B4
:100E68001340BB613B685B6803F40033002B03D07D
:100E7800BA693B691343BB61274ABB695360264B78
:100E88009B68BB613B69DB43BA691340BB613B6844
:100E98005B6803F48013002B03D0BA693B691343E2
:100EA800BB611D4ABB6993601B4BDB68BB613B6937
:100EB800DB43BA691340BB613B685B6803F400130A
:100EC800002B03D0BA693B691343BB61124ABB6963
:100ED800D360FB690133FB61FB690F2B7FF690AE92
:100EE80000BF00BF2437BD465DF8047B704700BFD4
:100EF800003802400038014000000240000402406F
:100F080000080240000C0240001002400014024099
:100F180000180240001C0240003C014080B586B029
:100F280000AF78607B68002B01D1012364E27B6805
:100F38001B6803F00103002B75D0A34B9B6803F0DB
:100F48000C03042B0CD0A04B9B6803F00C03082B5C
:100F580012D19D4B5B6803F48003B3F5800F0BD16E
:100F6800994B1B6803F40033002B5BD07B685B68EC
:100F7800002B57D101233FE27B685B68B3F5803FC4
:100F880006D1914B1B68904A43F4803313601DE0EF
:100F98007B685B68B3F5A02F0CD18B4B1B688A4A22
:100FA80043F480231360884B1B68874A43F48033DB
:100FB80013600BE0844B1B68834A23F4803313606F
:100FC800814B1B68804A23F4802313607B685B682D
:100FD800002B13D0FFF7F0FC386108E0FFF7ECFCBA
:100FE80002463B69D31A642B01D9032304E2764BEA
:100FF8001B6803F40033002BF0D014E0FFF7DCFC8F
:10100800386108E0FFF7D8FC02463B69D31A642B25
:1010180001D90323F0E16C4B1B6803F40033002B68
:10102800F0D100E000BF7B681B6803F00203002BCF
:1010380063D0654B9B6803F00C03002B0BD0624B0D
:101048009B6803F00C03082B1CD15F4B5B6803F40F
:101058008003002B16D15C4B1B6803F00203002BA6
:1010680005D07B68DB68012B01D00123C4E1564B16
:101078001B6823F0F8027B681B69DB0052491343A5
:101088000B603AE07B68DB68002B20D04F4B0122D5
:101098001A60FFF791FC386108E0FFF78DFC024603
:1010A8003B69D31A022B01D90323A5E1464B1B68E0
:1010B80003F00203002BF0D0434B1B6823F0F80227
:1010C8007B681B69DB00404913430B6015E03F4B0D
:1010D80000221A60FFF770FC386108E0FFF76CFC2B
:1010E80002463B69D31A022B01D9032384E1364B0C
:1010F8001B6803F00203002BF0D17B681B6803F028
:101108000803002B30D07B685B69002B16D0304B6E
:1011180001221A60FFF750FC386108E0FFF74CFC29
:1011280002463B69D31A022B01D9032364E1264BFB
:101138005B6F03F00203002BF0D015E0244B002274
:101148001A60FFF739FC386108E0FFF735FC024602
:101158003B69D31A022B01D903234DE11A4B5B6F6C
:1011680003F00203002BF0D17B681B6803F0040333
:10117800002B00F0A0800023FB75134B1B6C03F0C1
:101188008053002B0FD10023BB600F4B1B6C0E4A02
:1011980043F0805313640C4B1B6C03F08053BB600B
:1011A800BB680123FB750B4B1B6803F48073002B92
:1011B80021D1084B1B68074A43F480731360FFF77B
:1011C800FBFB386111E000BF0038024000004742D5
:1011D800800E474200700040FFF7EEFB02463B6975
:1011E800D31A022B01D9032306E1854B1B6803F4AC
:1011F8008073002BF0D07B689B68012B06D1814B54
:101208001B6F804A43F0010313671CE07B689B68EF
:10121800052B0CD17B4B1B6F7A4A43F004031367F1
:10122800784B1B6F774A43F0010313670BE0754B4C
:101238001B6F744A23F001031367724B1B6F714ACB
:1012480023F0040313677B689B68002B15D0FFF716
:10125800B3FB38610AE0FFF7AFFB02463B69D31ADC
:1012680041F28832934201D90323C5E0654B1B6FD5
:1012780003F00203002BEED014E0FFF79DFB38616A
:101288000AE0FFF799FB02463B69D31A41F288321C
:10129800934201D90323AFE05A4B1B6F03F00203BB
:1012A800002BEED1FB7D012B05D1564B1B6C554A0B
:1012B80023F0805313647B689B69002B00F09B80AC
:1012C800504B9B6803F00C03082B5CD07B689B6930
:1012D800022B41D14C4B00221A60FFF76DFB38619D
:1012E80008E0FFF769FB02463B69D31A022B01D9D4
:1012F800032381E0434B1B6803F00073002BF0D1FC
:101308007B68DA697B681B6A1A437B685B6A9B01A6
:101318001A437B689B6A5B08013B1B041A437B6882
:10132800DB6A1B06374913434B60374B01221A60AF
:10133800FFF742FB386108E0FFF73EFB02463B69D6
:10134800D31A022B01D9032356E02E4B1B6803F056
:101358000073002BF0D04EE02B4B00221A60FFF7F1
:101368002BFB386108E0FFF727FB02463B69D31ADD
:10137800022B01D903233FE0224B1B6803F00073C3
:10138800002BF0D137E07B689B69012B01D1012349
:1013980032E01C4B5B68FB607B689B69012B28D0A3
:1013A800FB6803F480027B68DB699A4221D1FB6801
:1013B80003F03F027B681B6A9A421AD1FA6847F623
:1013C800C07313407A68526A9201934211D1FB6844
:1013D80003F440327B689B6A5B08013B1B049A421A
:1013E80007D1FB6803F070627B68DB6A1B069A42D0
:1013F80001D0012300E0002318461837BD4680BD00
:1014080000700040003802406000474280B584B058
:1014180000AF786039607B68002B01D10123CCE0F4
:10142800684B1B6803F007033A689A420CD9654B6E
:101438003A68D2B21A70634B1B6803F007033A6824
:101448009A4201D00123B8E07B681B6803F00203CD
:10145800002B20D07B681B6803F00403002B05D009
:10146800594B9B68584A43F4E05393607B681B6868
:1014780003F00803002B05D0534B9B68524A43F4F2
:1014880060439360504B9B6823F0F0027B689B6835
:101498004D4913438B607B681B6803F00103002BE5
:1014A80044D07B685B68012B07D1474B1B6803F46A
:1014B8000033002B19D101237FE07B685B68022B86
:1014C80003D07B685B68032B07D13F4B1B6803F095
:1014D8000073002B09D101236FE03B4B1B6803F01D
:1014E8000203002B01D1012367E0374B9B6823F0EF
:1014F80003027B685B68344913438B60FFF75CFA2F
:10150800F8600AE0FFF758FA0246FB68D31A41F27E
:101518008832934201D903234FE02B4B9B6803F099
:101528000C027B685B689B009A42EBD1254B1B68D9
:1015380003F007033A689A420CD2224B3A68D2B2B7
:101548001A70204B1B6803F007033A689A4201D0CF
:10155800012332E07B681B6803F00403002B08D0EA
:10156800194B9B6823F4E0527B68DB6816491343E8
:101578008B607B681B6803F00803002B09D0124BB3
:101588009B6823F460427B681B69DB000E491343A8
:101598008B6000F021F802460B4B9B681B0903F097
:1015A8000F030A49CB5C22FA03F3094A1360094B7B
:1015B8001B681846FFF7BCF9002318461037BD46CC
:1015C80080BD00BF003C024000380240C82400082B
:1015D8000000002004000020B0B584B000AF002156
:1015E80079600021F960002139600021B960524911
:1015F800896801F00C0108290DD0082900F29480AF
:10160800002902D0042903D08EE04C4BBB608EE049
:101618004B4BBB608BE04849496801F03F0179605A
:101628004549496801F48001002924D042494968A4
:10163800890908464FF0000140F2FF144FF00005F9
:1016480000EA040201EA05033D4901FB03F0002119
:1016580001FB02F144183A49A2FB0101631819463B
:101668007B681A464FF00003FEF7AAFD02460B46B8
:101678001346FB604AE0304B5B689B091A464FF003
:10168800000340F2FF104FF0000102EA000403EAF1
:101698000105204629464FF000024FF000034B0198
:1016A80043EAD063420110461946001B61EB05016D
:1016B8004FF000024FF000038B0143EA9063820170
:1016C800121A63EB01034FF000004FF00001D9003C
:1016D80041EA5271D00002460B46121945EB03034A
:1016E8004FF000004FF00001990241EA9251900238
:1016F80002460B46104619467B681A464FF000030F
:10170800FEF75EFD02460B461346FB600A4B5B681C
:101718001B0C03F0030301335B003B60FA683B6872
:10172800B2FBF3F3BB6002E0044BBB6000BFBB68D5
:1017380018461037BD46B0BD003802400024F400FA
:1017480040787D0180B582B000AF78607B68002B5F
:1017580001D1012341E07B6893F83D30DBB2002BD7
:1017680006D17B68002283F83C207868FEF7FCFFEE
:101778007B68022283F83D207B681A687B68043303
:101788001946104600F0D8FA7B68012283F84620F3
:101798007B68012283F83E207B68012283F83F2082
:1017A8007B68012283F840207B68012283F841206E
:1017B8007B68012283F842207B68012283F843205A
:1017C8007B68012283F844207B68012283F8452046
:1017D8007B68012283F83D20002318460837BD4660
:1017E80080BD80B582B000AF78607B68002B01D1E6
:1017F800012341E07B6893F83D30DBB2002B06D132
:101808007B68002283F83C20786800F039F87B6810
:10181800022283F83D207B681A687B6804331946E6
:10182800104600F089FA7B68012283F846207B681D
:10183800012283F83E207B68012283F83F207B68E1
:10184800012283F840207B68012283F841207B68CD
:10185800012283F842207B68012283F843207B68B9
:10186800012283F844207B68012283F845207B68A5
:10187800012283F83D20002318460837BD4680BD65
:1018880080B483B000AF786000BF0C37BD465DF808
:10189800047B704780B584B000AF786039603B68DE
:1018A800002B09D17B6893F83E30DBB2012B14BFC3
:1018B80001230023DBB222E03B68042B09D17B68BB
:1018C80093F83F30DBB2012B14BF01230023DBB2B6
:1018D80015E03B68082B09D17B6893F84030DBB2F0
:1018E800012B14BF01230023DBB208E07B6893F8C7
:1018F8004130DBB2012B14BF01230023DBB2002BE4
:1019080001D001237CE03B68002B04D17B680222D4
:1019180083F83E2013E03B68042B04D17B68022245
:1019280083F83F200BE03B68082B04D17B68022238
:1019380083F8402003E07B68022283F841207B681B
:101948001B6801223968184600F0E0FC7B681B68B8
:101958002D4A934204D07B681B682C4A934201D1DC
:10196800012300E00023002B07D07B681B685A6C1A
:101978007B681B6842F400425A647B681B68224AF1
:10198800934222D07B681B68B3F1804F1DD07B68DF
:101998001B681F4A934218D07B681B681D4A9342F4
:1019A80013D07B681B681C4A93420ED07B681B6867
:1019B800164A934209D07B681B68184A934204D0A0
:1019C8007B681B68164A934211D17B681B689B6829
:1019D80003F00703FB60FB68062B10D07B681B68CD
:1019E8001A687B681B6842F001021A6007E07B688E
:1019F8001B681A687B681B6842F001021A600023A2
:101A080018461037BD4680BD000001400004014063
:101A18000004004000080040000C00400040014065
:101A28000018004080B586B000AFF860B9607A60F1
:101A38000023FB75FB6893F83C30012B01D102238E
:101A4800AEE0FB68012283F83C207B680C2B00F297
:101A58009F8001A252F823F0951A0008991B0008EC
:101A6800991B0008991B0008D51A0008991B000843
:101A7800991B0008991B0008171B0008991B0008F0
:101A8800991B0008991B0008571B0008FB681B6876
:101A9800B968184600F0F0F9FB681B689A69FB689A
:101AA8001B6842F008029A61FB681B689A69FB6828
:101AB8001B6822F004029A61FB681B689969BB687D
:101AC8001A69FB681B680A439A6164E0FB681B6833
:101AD800B968184600F040FAFB681B689A69FB6809
:101AE8001B6842F400629A61FB681B689A69FB688C
:101AF8001B6822F480629A61FB681B689969BB685D
:101B08001B691A02FB681B680A439A6143E0FB6879
:101B18001B68B968184600F095FAFB681B68DA6913
:101B2800FB681B6842F00802DA61FB681B68DA6927
:101B3800FB681B6822F00402DA61FB681B68D9693C
:101B4800BB681A69FB681B680A43DA6123E0FB6813
:101B58001B68B968184600F0E9FAFB681B68DA697F
:101B6800FB681B6842F40062DA61FB681B68DA698B
:101B7800FB681B6822F48062DA61FB681B68D9691C
:101B8800BB681B691A02FB681B680A43DA6102E03A
:101B98000123FB7500BFFB68002283F83C20FB7D16
:101BA80018461837BD4680BD80B584B000AF786050
:101BB80039600023FB737B6893F83C30012B01D11B
:101BC8000223B4E07B68012283F83C207B68022270
:101BD80083F83D207B681B689B68BB60BB6823F06B
:101BE8007703BB60BB6823F47F43BB607B681B68DB
:101BF800BA689A603B681B68B3F5005F3ED0B3F5DE
:101C0800005F00F28780B3F5805F00F08680B3F54F
:101C1800805F7FD8702B1AD0702B7BD8602B50D068
:101C2800602B77D8502B3CD0502B73D8402B58D0F2
:101C3800402B6FD8302B64D0302B6BD8202B60D042
:101C4800202B67D8002B5CD0102B5AD062E07B6821
:101C580018683B6899683B685A683B68DB6800F01D
:101C680035FB7B681B689B68BB60BB6843F07703E8
:101C7800BB607B681B68BA689A604FE07B6818682D
:101C88003B6899683B685A683B68DB6800F01EFB54
:101C98007B681B689A687B681B6842F480429A607C
:101CA8003CE07B6818683B6859683B68DB681A4603
:101CB80000F092FA7B681B685021184600F0EBFA96
:101CC8002CE07B6818683B6859683B68DB681A46F3
:101CD80000F0B1FA7B681B686021184600F0DBFA57
:101CE8001CE07B6818683B6859683B68DB681A46E3
:101CF80000F072FA7B681B684021184600F0CBFAA6
:101D08000CE07B681A683B681B681946104600F0AF
:101D1800C2FA03E00123FB7300E000BF7B680122E5
:101D280083F83D207B68002283F83C20FB7B184623
:101D38001037BD4680BD000080B485B000AF786024
:101D480039607B681B68FB607B68404A934213D00C
:101D58007B68B3F1804F0FD07B683D4A93420BD02C
:101D68007B683C4A934207D07B683B4A934203D046
:101D78007B683A4A934208D1FB6823F07003FB6002
:101D88003B685B68FA681343FB607B682F4A9342A1
:101D98002BD07B68B3F1804F27D07B682C4A9342C5
:101DA80023D07B682B4A93421FD07B682A4A9342F0
:101DB8001BD07B68294A934217D07B68284A9342F4
:101DC80013D07B68274A93420FD07B68264A9342F8
:101DD8000BD07B68254A934207D07B68244A9342FC
:101DE80003D07B68234A934208D1FB6823F44073ED
:101DF800FB603B68DB68FA681343FB60FB6823F011
:101E080080023B685B691343FB607B68FA681A6071
:101E18003B689A687B68DA623B681A687B689A62F2
:101E28007B680A4A934203D07B680C4A934203D1E9
:101E38003B681A697B681A637B6801225A6100BF94
:101E48001437BD465DF8047B704700BF00000140B1
:101E58000004004000080040000C0040000401405D
:101E68000040014000440140004801400018004083
:101E7800001C00400020004080B487B000AF7860AC
:101E880039607B681B6A23F001027B681A627B68F1
:101E98001B6A7B617B685B683B617B689B69FB6055
:101EA800FB6823F07003FB60FB6823F00303FB600F
:101EB8003B681B68FA681343FB607B6923F00203E5
:101EC8007B613B689B687A6913437B617B68204A26
:101ED800934203D07B681F4A93420CD17B6923F05D
:101EE80008037B613B68DB687A6913437B617B6924
:101EF80023F004037B617B68154A934203D07B6817
:101F0800144A934211D13B6923F480733B613B69C6
:101F180023F400733B613B685B693A6913433B6197
:101F28003B689B693A6913433B617B683A695A602D
:101F38007B68FA689A613B685A687B685A637B6871
:101F48007A691A6200BF1C37BD465DF8047B70478A
:101F5800000001400004014080B487B000AF786001
:101F680039607B681B6A23F010027B681A627B6801
:101F78001B6A7B617B685B683B617B689B69FB6074
:101F8800FB6823F4E043FB60FB6823F44073FB60C9
:101F98003B681B681B02FA681343FB607B6923F0EC
:101FA80020037B613B689B681B017A6913437B6153
:101FB8007B68224A934203D07B68214A93420DD121
:101FC8007B6923F080037B613B68DB681B017A69CE
:101FD80013437B617B6923F040037B617B68174A6D
:101FE800934203D07B68164A934213D13B6923F48A
:101FF80080633B613B6923F400633B613B685B6939
:102008009B003A6913433B613B689B699B003A69B3
:1020180013433B617B683A695A607B68FA689A6146
:102028003B685A687B689A637B687A691A6200BF62
:102038001C37BD465DF8047B704700BF00000140B7
:102048000004014080B487B000AF786039607B68D5
:102058001B6A23F480727B681A627B681B6A7B6147
:102068007B685B683B617B68DB69FB60FB6823F02E
:102078007003FB60FB6823F00303FB603B681B688D
:10208800FA681343FB607B6923F400737B613B6848
:102098009B681B027A6913437B617B68214A9342E0
:1020A80003D07B68204A93420DD17B6923F40063F7
:1020B8007B613B68DB681B027A6913437B617B6940
:1020C80023F480637B617B68164A934203D07B6864
:1020D800154A934213D13B6923F480533B613B6912
:1020E80023F400533B613B685B691B013A69134366
:1020F8003B613B689B691B013A6913433B617B6801
:102108003A695A607B68FA68DA613B685A687B68A2
:10211800DA637B687A691A6200BF1C37BD465DF8CE
:10212800047B7047000001400004014080B487B080
:1021380000AF786039607B681B6A23F480527B6843
:102148001A627B681B6A3B617B685B687B617B68A2
:10215800DB69FB60FB6823F4E043FB60FB6823F466
:102168004073FB603B681B681B02FA681343FB6003
:102178003B6923F400533B613B689B681B033A6946
:1021880013433B617B68124A934203D07B68114A30
:10219800934209D17B6923F480437B613B685B6987
:1021A8009B017A6913437B617B687A695A607B6813
:1021B800FA68DA613B685A687B681A647B683A692E
:1021C8001A6200BF1C37BD465DF8047B704700BF2C
:1021D800000001400004014080B487B000AFF860FF
:1021E800B9607A60FB681B6A7B61FB681B6A23F035
:1021F8000102FB681A62FB689B693B613B6923F03B
:10220800F0033B617B681B013A6913433B617B69BF
:1022180023F00A037B617A69BB6813437B61FB681F
:102228003A699A61FB687A691A6200BF1C37BD4631
:102238005DF8047B704780B487B000AFF860B96080
:102248007A60FB681B6A23F01002FB681A62FB685D
:102258009B697B61FB681B6A3B617B6923F4704364
:102268007B617B681B037A6913437B613B6923F0BD
:10227800A0033B61BB681B013A6913433B61FB68E0
:102288007A699A61FB683A691A6200BF1C37BD46D1
:102298005DF8047B704780B485B000AF7860396022
:1022A8007B689B68FB60FB6823F07003FB603A68FF
:1022B800FB68134343F00703FB607B68FA689A6086
:1022C80000BF1437BD465DF8047B704780B487B003
:1022D80000AFF860B9607A603B60FB689B687B611F
:1022E8007B6923F47F437B613B681A027B681A434E
:1022F800BB6813437A6913437B61FB687A699A6008
:1023080000BF1C37BD465DF8047B704780B487B0BA
:1023180000AFF860B9607A60BB6803F01F03012260
:1023280002FA03F37B61FB681A6A7B69DB431A4094
:10233800FB681A62FB681A6ABB6803F01F037968B6
:1023480001FA03F31A43FB681A6200BF1C37BD4643
:102358005DF8047B7047000080B485B000AF7860FA
:1023680039607B6893F83C30012B01D102235AE095
:102378007B68012283F83C207B68022283F83D2099
:102388007B681B685B68FB607B681B689B68BB603D
:10239800FB6823F07003FB603B681B68FA68134313
:1023A800FB607B681B68FA685A607B681B68214A77
:1023B800934222D07B681B68B3F1804F1DD07B68A5
:1023C8001B681D4A934218D07B681B681B4A9342BE
:1023D80013D07B681B681A4A93420ED07B681B682F
:1023E800184A934209D07B681B68174A934204D065
:1023F8007B681B68154A93420CD1BB6823F08003A5
:10240800BB603B685B68BA681343BB607B681B684A
:10241800BA689A607B68012283F83D207B680022B5
:1024280083F83C20002318461437BD465DF8047B2A
:10243800704700BF00000140000400400008004051
:10244800000C00400004014000400140001800401A
:1024580070B50D4D0D4C641BA4100026A64209D181
:102468000B4D0C4C00F020F8641BA4100026A6426B
:1024780005D170BD55F8043B98470136EEE755F88D
:10248800043B98470136F2E7E0240008E0240008FE
:10249800E0240008E424000802440346934200D1E3
:1024A800704703F8011BF9E7F8B500BFF8BC08BC92
:1024B8009E467047F8B500BFF8BC08BC9E467047FA
:1024C80000000000000000000102030406070809DC
:0824D80020DDFF7F0100000080
:0424E000AD01000842
:0424E4008901000862
:0C24E8000024F4001000000001000000BF
:04000005080008A146
:00000001FF
