:020000040800F2
:1000000000000220411700085D1600086316000872
:10001000691600086F160008751600080000000039
:10002000000000000000000000000000B15E0008B9
:100030007B1600080000000001610008393B000841
:1000400091170008911700089117000891170008F0
:1000500091170008911700089117000891170008E0
:1000600091170008911700089117000891170008D0
:1000700091170008911700089117000891170008C0
:1000800091170008911700089117000891170008B0
:1000900091170008911700089117000891170008A0
:1000A0009117000891170008911700089117000890
:1000B0009117000891170008911700089117000880
:1000C0009117000891170008911700089117000870
:1000D0009117000891170008911700089117000860
:1000E0009117000891170008911700089117000850
:1000F0009117000891170008911700089117000840
:10010000911700089117000891170008911700082F
:100110009117000891170008891600089117000828
:100120009D16000891170008911700089117000804
:1001300091170008911700089117000891170008FF
:1001400091170008911700089117000891170008EF
:1001500091170008911700089117000891170008DF
:1001600091170008911700089117000891170008CF
:10017000911700089117000891170008000000006F
:08018000911700089117000817
:1001900010B5054C237833B9044B13B10448AFF3C1
:1001A00000800123237010BD7800002000000000B3
:1001B000BC83000808B5034B1BB103490348AFF3E8
:1001C000008008BD000000007C000020BC83000807
:1001D00001F0FF01102A2BDB10F0070F08D010F8F8
:1001E000013B013A8B422DD010F0070F42B3F6D1FC
:1001F000F0B441EA012141EA014122F007047FF015
:1002000000070023F0E80256083C85EA010586EA6B
:10021000010685FA47F5A3FA87F586FA47F6A5FAA7
:1002200087F68EB9EED1F0BC01F0FF0102F00702B3
:1002300032B110F8013B013A83EA010313B1F8D15E
:100240000020704701387047002D06BF354603383F
:10025000073815F0010F07D1013015F4807F02BF78
:10026000013015F4C03F0130F0BC0138704700BFC9
:1002700081F0004102E000BF83F0004330B54FEA57
:1002800041044FEA430594EA050F08BF90EA020FC4
:100290001FBF54EA000C55EA020C7FEA645C7FEA57
:1002A000655C00F0E2804FEA5454D4EB5555B8BF7A
:1002B0006D420CDD2C4480EA020281EA030382EAEB
:1002C000000083EA010180EA020281EA0303362D7D
:1002D00088BF30BD11F0004F4FEA01314FF4801C50
:1002E0004CEA113102D0404261EB410113F0004F62
:1002F0004FEA03334CEA133302D0524263EB430319
:1003000094EA050F00F0A780A4F10104D5F1200EB6
:100310000DDB02FA0EFC22FA05F2801841F1000111
:1003200003FA0EF2801843FA05F359410EE0A5F1E5
:1003300020050EF1200E012A03FA0EFC28BF4CF016
:10034000020C43FA05F3C01851EBE37101F00045CC
:1003500007D54FF0000EDCF1000C7EEB00006EEBD9
:100360000101B1F5801F1BD3B1F5001F0CD3490863
:100370005FEA30004FEA3C0C04F101044FEA4452BA
:1003800012F5800F80F09A80BCF1004F08BF5FEA41
:10039000500C50F1000041EB045141EA050130BD21
:1003A0005FEA4C0C404141EB0101013C28BFB1F533
:1003B000801FE9D291F0000F04BF01460020B1FA7E
:1003C00081F308BF2033A3F10B03B3F120020CDA51
:1003D0000C3208DD02F1140CC2F10C0201FA0CF02F
:1003E00021FA02F10CE002F11402D8BFC2F1200C94
:1003F00001FA02F120FA0CFCDCBF41EA0C0190404A
:10040000E41AA2BF01EB0451294330BD6FEA040492
:100410001F3C1CDA0C340EDC04F11404C4F120027D
:1004200020FA04F001FA02F340EA030021FA04F38F
:1004300045EA030130BDC4F10C04C4F1200220FAE6
:1004400002F001FA04F340EA0300294630BD21FA24
:1004500004F0294630BD94F0000F83F4801306BFEA
:1004600081F480110134013D4EE77FEA645C18BFDE
:100470007FEA655C29D094EA050F08BF90EA020F75
:1004800005D054EA000C04BF1946104630BD91EA6D
:10049000030F1EBF0021002030BD5FEA545C05D170
:1004A0004000494128BF41F0004130BD14F58004AF
:1004B0003CBF01F5801130BD01F0004545F0FE4123
:1004C00041F470014FF0000030BD7FEA645C1ABF58
:1004D000194610467FEA655C1CBF0B46024650EA8F
:1004E000013406BF52EA033591EA030F41F40021BB
:1004F00030BD00BF90F0000F04BF0021704730B541
:100500004FF4806404F132044FF000054FF0000115
:1005100050E700BF90F0000F04BF0021704730B5D6
:100520004FF4806404F1320410F0004548BF4042AB
:100530004FF000013EE700BF42004FEAE2014FEA00
:1005400031014FEA02701FBF12F07F4393F07F4FDB
:1005500081F06051704732F07F4208BF704793F0DE
:100560007F4F04BF41F40021704730B54FF46074F1
:1005700001F0004521F000411CE700BF50EA0102F4
:1005800008BF704730B54FF000050AE050EA01029D
:1005900008BF704730B511F0004502D5404261EB0D
:1005A00041014FF4806404F132045FEA915C3FF44E
:1005B000D8AE4FF003025FEADC0C18BF03325FEAEB
:1005C000DC0C18BF033202EBDC02C2F1200300FA9C
:1005D00003FC20FA02F001FA03FE40EA0E0021FAC1
:1005E00002F11444BDE600BF70B54FF0FF0C4CF4AF
:1005F000E06C1CEA11541DBF1CEA135594EA0C0F61
:1006000095EA0C0F00F0DEF82C4481EA030621EA9B
:100610004C5123EA4C5350EA013518BF52EA0335D6
:1006200041F4801143F4801338D0A0FB02CE4FF088
:100630000005E1FB02E506F00042E0FB03E54FF0B8
:100640000006E1FB03569CF0000F18BF4EF0010EB0
:10065000A4F1FF04B6F5007F64F5407404D25FEAAC
:100660004E0E6D4146EB060642EAC62141EA55515F
:100670004FEAC52040EA5E504FEACE2EB4F1FD0CA1
:1006800088BFBCF5E06F1ED8BEF1004F08BF5FEA1F
:10069000500E50F1000041EB045170BD06F00046D1
:1006A00046EA010140EA020081EA0301B4EB5C047E
:1006B000C2BFD4EB0C0541EA045170BD41F4801176
:1006C0004FF0000E013C00F3AB8014F1360FDEBF9B
:1006D000002001F0004170BDC4F10004203C35DA77
:1006E0000C341BDC04F11404C4F1200500FA05F3FA
:1006F00020FA04F001FA05F240EA020001F000429B
:1007000021F0004110EBD37021FA04F642EB060110
:100710005EEA430E08BF20EAD37070BDC4F10C043A
:10072000C4F1200500FA04F320FA05F001FA04F2FE
:1007300040EA020001F0004110EBD37041F10001EA
:100740005EEA430E08BF20EAD37070BDC4F12005F5
:1007500000FA05F24EEA020E20FA04F301FA05F25D
:1007600043EA020321FA04F001F0004121FA04F205
:1007700020EA020000EBD3705EEA430E08BF20EAD5
:10078000D37070BD94F0000F0FD101F0004640000F
:1007900041EB010111F4801F08BF013CF7D041EA91
:1007A000060195F0000F18BF704703F00046520095
:1007B00043EB030313F4801F08BF013DF7D043EA66
:1007C0000603704794EA0C0F0CEA135518BF95EA1C
:1007D0000C0F0CD050EA410618BF52EA4306D1D1A3
:1007E00081EA030101F000414FF0000070BD50EAC2
:1007F000410606BF1046194652EA430619D094EA4C
:100800000C0F02D150EA013613D195EA0C0F05D135
:1008100052EA03361CBF104619460AD181EA030189
:1008200001F0004141F0FE4141F470014FF0000041
:1008300070BD41F0FE4141F4780170BD70B54FF0DC
:10084000FF0C4CF4E06C1CEA11541DBF1CEA13555C
:1008500094EA0C0F95EA0C0F00F0A7F8A4EB05043E
:1008600081EA030E52EA03354FEA013100F0888035
:100870004FEA03334FF0805545EA131343EA1263FE
:100880004FEA022245EA111545EA10654FEA0026B3
:100890000EF000419D4208BF964244F1FD0404F56C
:1008A000407402D25B084FEA3202B61A65EB0305C8
:1008B0005B084FEA32024FF480104FF4002CB6EB85
:1008C000020E75EB030E22BFB61A754640EA0C0005
:1008D0005B084FEA3202B6EB020E75EB030E22BF45
:1008E000B61A754640EA5C005B084FEA3202B6EB86
:1008F000020E75EB030E22BFB61A754640EA9C0045
:100900005B084FEA3202B6EB020E75EB030E22BF14
:10091000B61A754640EADC0055EA060E18D04FEAD2
:10092000051545EA16754FEA06164FEAC30343EA72
:1009300052734FEAC2025FEA1C1CC0D111F4801F3F
:100940000BD141EA00014FF000004FF0004CB6E738
:1009500011F4801F04BF01430020B4F1FD0C88BFD7
:10096000BCF5E06F3FF6AFAEB5EB030C04BFB6EBE2
:10097000020C5FEA500C50F1000041EB045170BDD5
:100980000EF0004E4EEA113114EB5C04C2BFD4EB02
:100990000C0541EA045170BD41F480114FF0000E86
:1009A000013C90E645EA060E8DE60CEA135594EA02
:1009B0000C0F08BF95EA0C0F3FF43BAF94EA0C0F05
:1009C0000AD150EA01347FF434AF95EA0C0F7FF47A
:1009D00025AF104619462CE795EA0C0F06D152EACE
:1009E00003353FF4FDAE1046194622E750EA4106B2
:1009F00018BF52EA43067FF4C5AE50EA41047FF4C3
:100A00000DAF52EA43057FF4EBAE12E74FF0FF3C27
:100A100006E000BF4FF0010C02E000BF4FF0010CF8
:100A20004DF804CD4FEA410C7FEA6C5C4FEA430C71
:100A300018BF7FEA6C5C1BD001B050EA410C0CBFC0
:100A400052EA430C91EA030F02BF90EA020F002022
:100A5000704710F1000F91EA030F58BF994208BF89
:100A600090422CBFD8176FEAE37040F00100704746
:100A70004FEA410C7FEA6C5C02D150EA013C07D19D
:100A80004FEA430C7FEA6C5CD6D152EA033CD3D0E8
:100A90005DF8040B704700BF8446104662468C46E2
:100AA0001946634600E000BF01B5FFF7B7FF002815
:100AB00048BF10F1000F01BD4DF808EDFFF7F4FF3E
:100AC0000CBF012000205DF808FB00BF4DF808EDC9
:100AD000FFF7EAFF34BF012000205DF808FB00BFEC
:100AE0004DF808EDFFF7E0FF94BF012000205DF80E
:100AF00008FB00BF4DF808EDFFF7CEFF94BF0120C3
:100B000000205DF808FB00BF4DF808EDFFF7C4FFBB
:100B100034BF012000205DF808FB00BF4FEA410C04
:100B20007FEA6C5C02D150EA013C0AD14FEA430CE7
:100B30007FEA6C5C02D152EA033C02D14FF0000024
:100B400070474FF0010070474A0011D212F50012B1
:100B500011D20DD56FF47873B3EB62520ED44FEA15
:100B6000C12343F0004343EA505323FA02F0704795
:100B70004FF00000704750EA013002D14FF0FF30D3
:100B800070474FF0000070474FEA4102B2F1E04376
:100B900024BFB3F5001CDCF1FE5C0DD901F0004C64
:100BA0004FEAC0024CEA5070B2F1004F40EB8300B4
:100BB00008BF20F00100704711F0804F21D113F1E0
:100BC0003872BCBF01F00040704741F480114FEA19
:100BD0005252C2F11802C2F1200C10FA0CF320FAA2
:100BE00002F018BF40F001004FEAC1234FEAD323BF
:100BF00003FA0CFC40EA0C0023FA02F34FEA430329
:100C0000CCE77FEA625307D150EA01331EBF4FF0B1
:100C1000FE4040F44000704701F0004040F0FE40CC
:100C200040F40000704700BF53B94AB9002908BF1B
:100C300000281CBF4FF0FF314FF0FF3000F06EB9BD
:100C4000ADF1080C6DE904CE00F006F8DDF804E023
:100C5000DDE9022304B070472DE9F047089D044602
:100C60008C46002B40F083808A42174647D9B2FA5F
:100C700082F242B1C2F1200024FA00F09140974084
:100C800040EA010C94404FEA1748230CBCFBF8F6ED
:100C90001FFA87FE08FB16C143EA014306FB0EF16B
:100CA000994209D9FB1806F1FF3080F01981994269
:100CB00040F21681023E3B445B1AA4B2B3FBF8F04B
:100CC00008FB103344EA034400FB0EFEA64509D995
:100CD0003C1900F1FF3380F00581A64540F2028106
:100CE00002383C4440EA0640A4EB0E0400261DB145
:100CF000D4400023C5E900433146BDE8F08702B97E
:100D0000FFDEB2FA82F2002A50D1CB1B4FEA174E17
:100D10001FFA87F80126B3FBFEFC210C0EFB1C33E7
:100D200041EA034108FB0CF38B4207D979180CF117
:100D3000FF3002D28B4200F2E9808446C91AA3B286
:100D4000B1FBFEF00EFB101143EA014408FB00F872
:100D5000A04507D93C1900F1FF3302D2A04500F2AB
:100D6000D9801846A4EB080440EA0C40BFE78B4248
:100D700009D9002D00F0B1800026C5E900013046F8
:100D80003146BDE8F087B3FA83F6002E4AD18B4294
:100D900002D3824200F2B880841A61EB0301012081
:100DA0008C46002DA8D0C5E9004CA5E7C2F1200370
:100DB00020FA03F6974001FA02F04FEA174ED940A5
:100DC0003043030CB1FBFEF61FFA87F80EFB161139
:100DD00043EA014306FB08F1994204FA02F409D9F7
:100DE000FB1806F1FF3C80F08D80994240F28A802A
:100DF000023E3B445B1A81B2B3FBFEF00EFB1033A4
:100E000041EA034100FB08F38B4207D9791800F14E
:100E1000FF3C73D28B4271D902383944CB1A40EA75
:100E2000064678E7C6F1200C03FA06F422FA0CF322
:100E30001C4320FA0CF701FA06F34FEA144E21FA8C
:100E40000CF11F433B0CB1FBFEF91FFA84F80EFBBB
:100E5000191143EA014109FB08FA8A4502FA06F230
:100E600000FA06F308D9611809F1FF3048D28A4523
:100E700046D9A9F102092144A1EB0A01BFB2B1FB95
:100E8000FEF00EFB101147EA014700FB08F8B845D9
:100E900007D9E71900F1FF312ED2B8452CD9023815
:100EA000274440EA0940A7EB0807A0FB02894F4509
:100EB000C64649461AD317D05DB1B3EB0E0267EBB5
:100EC000010707FA0CFCF2404CEA0202F740C5E9C0
:100ED000002700263146BDE8F0872E4628460BE75E
:100EE0000646E9E61846FDE64345E5D2B8EB020EB4
:100EF00069EB04010138DFE70846D2E760468DE779
:100F00008146B9E7664675E730464AE7ACF1020C20
:100F1000394413E702383C4424E700BF704700BF60
:100F200080B584B000AF0346FB80FB881846FFF70E
:100F3000F1FA20A3D3E90023FFF756FB02460B4644
:100F4000104619464FF00002194BFFF777FC024696
:100F50000B4610461946FFF717FE0346FB60F8687C
:100F6000FFF7EAFA02460B469FED0D1B43EC102BF0
:100F700006F070FA51EC100B0BA3D3E90023FFF736
:100F800033FB02460B4610461946FFF7DDFD0346CC
:100F90009BB218461037BD4680BD00BFAFF300803E
:100FA000F853E3A59BC4F2BFB0726891EDFC3D40DD
:100FB0000000B0406666666666660A4080B500AFAF
:100FC00000F0E8FB00F036F800F012F900F0F0F85D
:100FD00000F08EF802F0CAFD0D4A00210D4802F023
:100FE0000FFE03460C4A13600C4A00210C4802F025
:100FF00007FE03460B4A13600B4A00210B4802F020
:10100000FFFD03460A4A136002F0D4FDFEE700BF6D
:101010002484000881130008704A002048840008D6
:1010200091130008784A00206C840008B913000866
:101030007C4A002080B594B000AF07F12003302235
:101040000021184605F076FD07F10C0300221A6016
:101050005A609A60DA601A610023BB60224B1B6CF5
:10106000214A43F0805313641F4B1B6C03F08053E1
:10107000BB60BB6800237B601C4B1B681B4A43F4AE
:1010800080431360194B1B6803F480437B607B68CB
:1010900002233B620123FB6210233B630023BB63FB
:1010A00007F12003184601F009FE0346002B01D08A
:1010B00000F0D2F90F23FB6000233B6100237B612A
:1010C0000023BB610023FB6107F10C0300211846DC
:1010D00002F06CF80346002B01D000F0BDF900BF10
:1010E0005037BD4680BD00BF003802400070004050
:1010F00080B584B000AF3B4600221A605A609A6007
:10110000DA60284B284A1A60264B00225A60254B89
:1011100000229A60234B01221A61224B01221A7687
:10112000204B002283F820201E4B0022DA621D4B48
:101130001E4A9A621B4B0022DA601A4B0222DA61C5
:10114000184B002283F83020164B01225A611548B3
:1011500000F086FB0346002B01D000F07DF90A2346
:101160003B6001237B600023BB603B4619460D4872
:1011700000F0D4FC0346002B01D000F06DF90B23E6
:101180003B6002237B603B461946064800F0C6FCE4
:101190000346002B01D000F05FF900BF1037BD46B9
:1011A00080BD00BF804A0020002001400100000FE8
:1011B00080B582B000AF00237B600C4B1B6B0B4AE9
:1011C00043F480031363094B1B6B03F480037B60C0
:1011D0007B6800220521382000F0F8FF382001F05C
:1011E00011F800BF0837BD4680BD00BF003802407F
:1011F00080B588B000AF07F10C0300221A605A6076
:101200009A60DA601A610023BB60194B1B6B184AA5
:1012100043F010031363164B1B6B03F01003BB600A
:10122000BB6800237B60124B1B6B114A43F0040325
:1012300013630F4B1B6B03F004037B607B6800227E
:101240004FF4F0710B4801F0F7FC4FF4F073FB60C2
:1012500001233B6100237B610023BB6107F10C0389
:101260001946044801F04CFB00BF2037BD4680BD45
:10127000003802400010024080B483B000AF7860B4
:101280001B4B1B889AB21A4B9B889BB213449AB291
:10129000174B1B899BB213449AB2154B9B899BB287
:1012A00013449AB2124B1B8A9BB213449AB2114B4D
:1012B0001A800F4B5B889AB20D4BDB889BB21344AC
:1012C0009AB20B4B5B899BB213449AB2084BDB89F1
:1012D0009BB213449AB2064B5B8A9BB213449AB2F8
:1012E000054B1A8000BF0C37BD465DF8047B704784
:1012F0002C4B0020284B0020744A002080B483B07F
:1013000000AF78601B4B9B8A9AB21A4B1B8B9BB227
:1013100013449AB2174B9B8B9BB213449AB2154B52
:101320001B8C9BB213449AB2124B9B8C9BB21344FE
:101330009AB2114B1A800F4BDB8A9AB20D4B5B8B22
:101340009BB213449AB20B4BDB8B9BB213449AB201
:10135000084B5B8C9BB213449AB2064BDB8C9BB25E
:1013600013449AB2054B1A8000BF0C37BD465DF896
:10137000047B70472C4B0020284B0020744A00202F
:1013800080B582B000AF7860012002F0CBFCFBE7B3
:1013900080B582B000AF786014231A46044905482E
:1013A00000F0A2FA4FF4FA7002F0BCFCF4E700BFC0
:1013B0002C4B0020804A002080B58EB000AF7860B2
:1013C00005F0F2FA174B1B889BB2174AA2FB0323C6
:1013D0009B089BB21846FFF7A3FD03463B63134BE4
:1013E0001B889BB2104AA2FB03239B089BB21846A2
:1013F000FFF796FD03467B633A6B7B6B07F10800B2
:101400000B4905F073FC07F108031A460021002080
:1014100005F098FA05F022F94FF4FA7002F082FC18
:10142000D0E700BF284B0020CDCCCCCC744A0020A4
:101430000084000880B582B000AF78607B681B68CC
:10144000044A934201D100F0C7F900BF0837BD46F6
:1014500080BD00BF0010004080B400AF72B600BF76
:10146000FEE7000080B582B000AF00237B60124B26
:101470005B6C114A43F4804353640F4B5B6C03F481
:1014800080437B607B6800233B600B4B1B6C0A4AEC
:1014900043F080531364084B1B6C03F080533B6094
:1014A0003B6800220F216FF0010000F08FFE00BFAB
:1014B0000837BD4680BD00BF0038024080B58AB005
:1014C00000AF786007F1140300221A605A609A6036
:1014D000DA601A617B681B682F4A934257D1002358
:1014E0003B612E4B5B6C2D4A43F4807353642B4B52
:1014F0005B6C03F480733B613B690023FB60274B0B
:101500001B6B264A43F004031363244B1B6B03F04D
:101510000403FB60FB6803237B610323BB6100239F
:10152000FB6107F1140319461D4801F0E9F91D4B51
:101530001D4A1A601B4B00225A601A4B00229A6007
:10154000184B0022DA60174B4FF480621A61154B7A
:101550004FF400625A61134B4FF400529A61114BE1
:101560004FF48072DA610F4B00221A620D4B002299
:101570005A620C4800F054FE0346002B01D0FFF7DE
:101580006BFF7B68074A9A63064A7B68936300BFD8
:101590002837BD4680BD00BF002001400038024012
:1015A00000080240C84A00201064024080B58CB098
:1015B00000AF78600023FB620023BB6200227968E1
:1015C000362000F003FE362000F01CFE0023FB60F6
:1015D0001E4B1B6C1D4A43F0100313641B4B1B6C0A
:1015E00003F01003FB60FB6807F1100207F114031E
:1015F0001146184601F096FF01F080FFF862FB6A81
:10160000134AA2FB03239B0C013BBB62114B124A02
:101610001A60104B40F2E732DA600E4ABB6A536040
:101620000C4B00221A610B4B00229A60094801F012
:10163000ABFF0346002B04D1064801F0FFFF034631
:1016400000E0012318463037BD4680BD0038024017
:1016500083DE1B43884B00200010004080B400AFA5
:10166000FEE780B400AFFEE780B400AFFEE780B4D1
:1016700000AFFEE780B400AFFEE780B400AF00BF6C
:10168000BD465DF8047B704780B500AF024802F0AC
:1016900045F800BF80BD00BF884B002080B500AF7B
:1016A000024800F0C3FE00BF80BD00BFC84A002052
:1016B00080B586B000AF7860144A154BD31A7B61B1
:1016C0007B693B61134B1B68002B02D1114B124A03
:1016D0001A60104B1A687B6813443A699A4207D221
:1016E00005F0EEF903460C221A604FF0FF3309E0D3
:1016F000084B1B68FB60074B1A687B681344054A5C
:101700001360FB6818461837BD4680BD00000220F4
:1017100000040000940000202850002080B400AF96
:10172000064BD3F88830054A43F47003C2F888307A
:1017300000BFBD465DF8047B704700BF00ED00E0D0
:10174000DFF834D00D480E490E4A002302E0D45889
:10175000C4500433C4188C42F9D30B4A0B4C0023F9
:1017600001E013600432A242FBD3FFF7D7FF05F07C
:10177000ADF9FFF723FC70470000022000000020B5
:1017800078000020F88F0008780000202450002006
:10179000FEE7000080B500AF0E4B1B680D4A43F416
:1017A000007313600B4B1B680A4A43F48063136099
:1017B000084B1B68074A43F480731360032000F052
:1017C000FAFC0F20FFF7F2FEFFF74CFE002318464D
:1017D00080BD00BF003C024080B400AF064B1B78C8
:1017E0001A46064B1B681344044A136000BFBD46EB
:1017F0005DF8047B704700BF08000020D04B00203C
:1018000080B400AF034B1B681846BD465DF8047BEF
:10181000704700BFD04B002080B584B000AF786027
:10182000FFF7EEFFB8607B68FB60FB68B3F1FF3F3A
:1018300005D00A4B1B781A46FB681344FB6000BFB7
:10184000FFF7DEFF0246BB68D31AFA689A42F7D860
:1018500000BF00BF1037BD4680BD00BF080000209C
:1018600080B584B000AF78600023FB737B68002BE9
:1018700001D1012333E07B681B6C002B09D1786810
:10188000FFF71CFE7B6800225A647B68002283F805
:101890003C207B681B6C03F01003002B18D17B6885
:1018A0001B6C23F4885323F0020343F002027B688D
:1018B0001A64786800F054FA7B6800225A647B68E6
:1018C0001B6C23F0030343F001027B681A6401E000
:1018D0000123FB737B68002283F83C20FB7B1846C6
:1018E0001037BD4680BD000080B586B000AFF860FF
:1018F000B9607A6000233B61FB6893F83C30012BB0
:1019000001D10223E9E0FB68012283F83C20FB6857
:101910001B689B6803F00103012B18D0FB681B6850
:101920009A68FB681B6842F001029A606D4B1B6865
:101930006D4AA2FB03239A0C13465B0013443B61E0
:1019400002E03B69013B3B613B69002BF9D1FB683D
:101950001B689B6803F48073B3F5807F07D1FB6835
:101960001B689A68FB681B6822F480729A60FB68A7
:101970001B689B6803F00103012B40F0A180FB680A
:101980001B6C23F4E06323F0010343F48072FB68D3
:101990001A64FB681B685B6803F48063002B07D044
:1019A000FB681B6C23F4405343F48052FB681A64B9
:1019B000FB681B6C03F48053B3F5805F06D1FB68B2
:1019C0005B6C23F00602FB685A6402E0FB680022AD
:1019D0005A64FB68002283F83C20444B7B61FB681F
:1019E0009B6B434ADA63FB689B6B424A1A64FB6851
:1019F0009B6B414ADA64FB681B686FF022021A6035
:101A0000FB681B685A68FB681B6842F080625A607A
:101A1000FB681B689A68FB681B6842F480729A60D6
:101A2000FB68986BFB681B684C331946BA687B6887
:101A300000F0A4FC7B695B6803F01F03002B2AD134
:101A4000FB681B682D4A934215D0FB681B682C4A23
:101A5000934205D1254B5B6803F01F03002B0AD08E
:101A6000FB681B68274A934236D1204B5B6803F022
:101A70001003002B30D1FB681B689B6803F04053B8
:101A8000002B29D1FB681B689A68FB681B6842F031
:101A900080429A6020E0FB681B68184A93421BD181
:101AA000FB681B689B6803F04053002B14D1FB6854
:101AB0001B689A68FB681B6842F080429A600BE0E2
:101AC000FB681B6C43F01002FB681A64FB685B6CDC
:101AD00043F00102FB685A64002318461837BD46DC
:101AE00080BD00BF0000002083DE1B4300230140B7
:101AF000591F0008132000082F2000080020014073
:101B0000002101400022014080B483B000AF786022
:101B100000BF0C37BD465DF8047B704780B485B0CC
:101B200000AF786039600023BB607B6893F83C307D
:101B3000012B01D1022305E17B68012283F83C20BF
:101B40003B681B68092B25D97B681B68D9683B68F3
:101B50001B689BB21A4613465B0013441E3B0722C8
:101B600002FA03F3DA437B681B680A40DA607B6899
:101B70001B68D9683B689A683B681B689BB218462B
:101B800003465B0003441E3B9A407B681B680A4384
:101B9000DA6022E07B681B6819693B681B689BB2AE
:101BA0001A4613465B001344072202FA03F3DA4392
:101BB0007B681B680A401A617B681B6819693B686F
:101BC0009A683B681B689BB2184603465B00034457
:101BD0009A407B681B680A431A613B685B68062B66
:101BE00024D87B681B68596B3B685A6813469B0076
:101BF0001344053B1F2202FA03F3DA437B681B6898
:101C00000A405A637B681B68596B3B681B689BB230
:101C100018463B685A6813469B001344053B00FA7C
:101C200003F27B681B680A435A634CE03B685B68BD
:101C30000C2B24D87B681B68196B3B685A681346C9
:101C40009B001344233B1F2202FA03F3DA437B6811
:101C50001B680A401A637B681B68196B3B681B682A
:101C60009BB218463B685A6813469B001344233BBB
:101C700000FA03F27B681B680A431A6323E07B685F
:101C80001B68D96A3B685A6813469B001344413B62
:101C90001F2202FA03F3DA437B681B680A40DA6208
:101CA0007B681B68D96A3B681B689BB218463B6817
:101CB0005A6813469B001344413B00FA03F27B68C9
:101CC0001B680A43DA62224BFB607B681B68214A6F
:101CD000934209D13B681B68122B05D1FB685B68F6
:101CE00043F48002FB685A607B681B68194A934280
:101CF00023D13B681B68102B03D03B681B68112B5A
:101D00001BD1FB685B6843F40002FB685A603B68C8
:101D10001B68102B11D1104B1B68104AA2FB032328
:101D20009A0C13469B0013445B00BB6002E0BB6847
:101D3000013BBB60BB68002BF9D17B68002283F8B4
:101D40003C20002318461437BD465DF8047B7047DD
:101D500000230140002001400000002083DE1B43DF
:101D600080B485B000AF7860794BFB60FB685B683E
:101D700023F44032FB685A60FB685A687B685B68F2
:101D80001A43FB685A607B681B685A687B681B684B
:101D900022F480725A607B681B6859687B681B69F3
:101DA0001A027B681B680A435A607B681B685A6882
:101DB0007B681B6822F040725A607B681B68596818
:101DC0007B689A687B681B680A435A607B681B685B
:101DD0009A687B681B6822F400629A607B681B68C3
:101DE00099687B68DA687B681B680A439A607B683D
:101DF0009B6A584A934222D07B681B689A687B682A
:101E00001B6822F070629A607B681B6899687B6827
:101E10009A6A7B681B680A439A607B681B689A68A9
:101E20007B681B6822F040529A607B681B68996847
:101E30007B68DA6A7B681B680A439A600FE07B68FC
:101E40001B689A687B681B6822F070629A607B68E6
:101E50001B689A687B681B6822F040529A607B6816
:101E60001B689A687B681B6822F002029A607B6894
:101E70001B6899687B681B7E5A007B681B680A4355
:101E80009A607B6893F82030002B1BD07B681B681E
:101E90005A687B681B6842F400625A607B681B6862
:101EA0005A687B681B6822F460425A607B681B6832
:101EB00059687B685B6A013B5A037B681B680A436D
:101EC0005A6007E07B681B685A687B681B6822F4CD
:101ED00000625A607B681B68DA6A7B681B6822F4C0
:101EE0007002DA627B681B68D96A7B68DB69013B38
:101EF0001A057B681B680A43DA627B681B689A686C
:101F00007B681B6822F400729A607B681B68996882
:101F10007B6893F830305A027B681B680A439A60EA
:101F20007B681B689A687B681B6822F480629A60F1
:101F30007B681B6899687B685B699A027B681B6891
:101F40000A439A6000BF1437BD465DF8047B7047B2
:101F5000002301400100000F80B584B000AF78601D
:101F60007B689B6BFB60FB681B6C03F05003002BD2
:101F70003CD1FB681B6C43F40072FB681A64FB687D
:101F80001B689B6803F04053002B2BD1FB681B7E22
:101F9000002B27D1FB681B68DB6A03F47003002B5E
:101FA00006D0FB681B689B6803F48063002B19D183
:101FB000FB681B685A68FB681B6822F020025A60A5
:101FC000FB681B6C23F48072FB681A64FB681B6C53
:101FD00003F48053002B05D1FB681B6C43F0010216
:101FE000FB681A64F868FFF789F90EE0FB681B6C60
:101FF00003F01003002B03D0F868FFF785FD04E021
:10200000FB689B6BDB6C7868984700BF1037BD4658
:1020100080BD80B584B000AF78607B689B6BFB604F
:10202000F868FFF729F900BF1037BD4680BD80B5BD
:1020300084B000AF78607B689B6BFB60FB684022DC
:102040001A64FB685B6C43F00402FB685A64F8682E
:10205000FFF75AFD00BF1037BD4680BD80B485B084
:1020600000AF78607B6803F00703FB600C4BDB6814
:10207000BB60BA684FF6FF031340BB60FB681A02EF
:10208000BB68134343F0BF6343F40033BB60044AAF
:10209000BB68D36000BF1437BD465DF8047B704752
:1020A00000ED00E080B400AF044BDB681B0A03F0D6
:1020B00007031846BD465DF8047B704700ED00E05D
:1020C00080B483B000AF0346FB7197F90730002B53
:1020D0000BDBFB7903F01F02074997F907305B0917
:1020E000012000FA02F241F8232000BF0C37BD4660
:1020F0005DF8047B704700BF00E100E080B483B06E
:1021000000AF03463960FB7197F90730002B0ADBFB
:102110003B68DAB20C4997F907301201D2B20B448E
:1021200083F800230AE03B68DAB20849FB7903F040
:102130000F03043B1201D2B20B441A7600BF0C37D6
:10214000BD465DF8047B704700E100E000ED00E073
:1021500080B489B000AFF860B9607A60FB6803F0C2
:102160000703FB61FB69C3F10703042B28BF0423AA
:10217000BB61FB690433062B02D9FB69033B00E01A
:1021800000237B614FF0FF32BB6902FA03F3DA43AD
:10219000BB681A407B699A404FF0FF317B6901FAB6
:1021A00003F3D9437B680B40134318462437BD46DD
:1021B0005DF8047B704780B582B000AF78607868C6
:1021C000FFF74CFF00BF0837BD4680BD80B586B025
:1021D00000AF0346B9607A60FB7300237B61FFF7B1
:1021E00061FF78617A68B9687869FFF7B1FF0246E4
:1021F00097F90F3011461846FFF780FF00BF1837D8
:10220000BD4680BD80B582B000AF0346FB7197F933
:1022100007301846FFF754FF00BF0837BD4680BDA2
:1022200080B586B000AF786000237B61FFF7E8FAE5
:1022300038617B68002B01D1012399E07B68022281
:1022400083F835207B68002283F834207B681B6884
:102250001A687B681B6822F001021A600FE0FFF722
:10226000CFFA02463B69D31A052B08D97B68202296
:102270005A657B68032283F83520032378E07B6866
:102280001B681B6803F00103002BE8D17B681B6807
:102290001B687B617A69384B13407B617B685A68A5
:1022A0007B689B681A437B68DB681A437B681B6901
:1022B0001A437B685B691A437B689B691A437B6896
:1022C000DB691A437B681B6A13437A6913437B619A
:1022D0007B685B6A042B07D17B68DA6A7B681B6BBF
:1022E00013437A6913437B617B681B687A691A60C0
:1022F0007B681B685B697B617B6923F007037B61FB
:102300007B685B6A7A6913437B617B685B6A042B39
:1023100017D17B689B6A7A6913437B617B68DB6AB0
:10232000002B0ED0786800F06FFA0346002B08D01F
:102330007B6840225A657B68012283F8352001239F
:1023400016E07B681B687A695A61786800F026FAA3
:102350000346FB607B68DB6D3F229A40FB689A6016
:102360007B6800225A657B68012283F835200023B0
:1023700018461837BD4680BD3F8010F080B586B046
:1023800000AFF860B9607A603B600023FB75FB68C2
:102390009B6D3B61FB6893F83430012B01D1022324
:1023A00040E0FB68012283F83420FB6893F8353065
:1023B000DBB2012B2FD1FB68022283F83520FB68AA
:1023C00000225A653B687A68B968F86800F0B8F985
:1023D000FB68DB6D3F229A403B699A60FB681B6893
:1023E0001A68FB681B6842F016021A60FB681B6CD7
:1023F000002B07D0FB681B681A68FB681B6842F05B
:1024000008021A60FB681B681A68FB681B6842F0C8
:1024100001021A6005E0FB68002283F834200223E1
:10242000FB75FB7D18461837BD4680BD80B586B06C
:1024300000AF78600023BB60924B1B68924AA2FBFE
:1024400003239B0A7B617B689B6D3B613B691B6837
:10245000FB607B68DB6D08229A40FB681340002B11
:102460001AD07B681B681B6803F00403002B13D091
:102470007B681B681A687B681B6822F004021A607C
:102480007B68DB6D08229A403B699A607B685B6DD4
:1024900043F001027B685A657B68DB6D01229A403C
:1024A000FB681340002B12D07B681B685B6903F04C
:1024B0008003002B0BD07B68DB6D01229A403B69C7
:1024C0009A607B685B6D43F002027B685A657B68AB
:1024D000DB6D04229A40FB681340002B12D07B680E
:1024E0001B681B6803F00203002B0BD07B68DB6DBD
:1024F00004229A403B699A607B685B6D43F004025A
:102500007B685A657B68DB6D10229A40FB6813403C
:10251000002B43D07B681B681B6803F00803002B6B
:102520003CD07B68DB6D10229A403B699A607B68E7
:102530001B681B6803F48023002B18D07B681B6882
:102540001B6803F40023002B08D17B681B6C002B55
:1025500024D07B681B6C786898471FE07B689B6C75
:10256000002B1BD07B689B6C7868984716E07B68D3
:102570001B681B6803F48073002B07D17B681B6802
:102580001A687B681B6822F008021A607B681B6C63
:10259000002B03D07B681B6C786898477B68DB6DE9
:1025A00020229A40FB681340002B00F08E807B684D
:1025B0001B681B6803F01003002B00F086807B680B
:1025C000DB6D20229A403B699A607B6893F8353036
:1025D000DBB2052B36D17B681B681A687B681B68E9
:1025E00022F016021A607B681B685A697B681B68B8
:1025F00022F080025A617B681B6C002B03D17B6840
:102600009B6C002B07D07B681B681A687B681B6873
:1026100022F008021A607B68DB6D3F229A403B691A
:102620009A607B68012283F835207B68002283F85A
:1026300034207B681B6D002B7DD07B681B6D786818
:10264000984778E07B681B681B6803F48023002BA5
:102650001CD07B681B681B6803F40023002B08D187
:102660007B685B6C002B30D07B685B6C786898472C
:102670002BE07B68DB6B002B27D07B68DB6B7868FB
:10268000984722E000000020B5814E1B7B681B6844
:102690001B6803F48073002B0FD17B681B681A68DA
:1026A0007B681B6822F010021A607B68012283F8A5
:1026B00035207B68002283F834207B68DB6B002B9D
:1026C00003D07B68DB6B786898477B685B6D002B79
:1026D00032D07B685B6D03F00103002B22D07B6856
:1026E000052283F835207B681B681A687B681B68A5
:1026F00022F001021A60BB680133BB607A699A421A
:1027000007D37B681B681B6803F00103002BF2D121
:1027100000E000BF7B68012283F835207B6800223F
:1027200083F834207B68DB6C002B05D07B68DB6C86
:102730007868984700E000BF1837BD4680BD00BFED
:1027400080B485B000AFF860B9607A603B60FB6828
:102750001B681A68FB681B6822F480221A60FB68F9
:102760001B683A685A60FB689B68402B08D1FB687D
:102770001B687A689A60FB681B68BA68DA6007E0D1
:10278000FB681B68BA689A60FB681B687A68DA6045
:1027900000BF1437BD465DF8047B704780B485B038
:1027A00000AF78607B681B68DBB2103B144AA2FB69
:1027B00003231B09FB60134AFB6813441B781A466A
:1027C0007B68DA65FB68032B09D97B681B6823F4F7
:1027D0007F7323F003031A1D7B689A6507E07B680B
:1027E0001B6823F47F7323F003037A6893657B6887
:1027F0009B6D18461437BD465DF8047B704700BFDB
:10280000ABAAAAAAA884000880B485B000AF7860FB
:102810000023FB737B689B6ABB607B689B69002B12
:102820001FD1BB68032B56D801A252F823F000BF7A
:10283000412800085328000841280008D72800082C
:102840007B68DB6A03F08073002B46D00123FB73A7
:1028500043E07B68DB6AB3F1C07F40D10123FB73A7
:102860003DE07B689B69B3F5005F21D1BB68032B1A
:1028700037D801A252F823F0892800088F280008D1
:1028800089280008A12800080123FB7330E07B6839
:10289000DB6A03F08073002B25D00123FB7322E059
:1028A0007B68DB6AB3F1C07F1FD10123FB731CE09F
:1028B000BB68022B03D9BB68032B03D018E00123AC
:1028C000FB7315E07B68DB6A03F08073002B0ED08E
:1028D0000123FB730BE000BF0AE000BF08E000BF6C
:1028E00006E000BF04E000BF02E000BF00E000BF60
:1028F000FB7B18461437BD465DF8047B704700BF6C
:1029000080B489B000AF7860396000237B61002318
:102910003B610023BB610023FB616BE10122FB698A
:1029200002FA03F37B613B681B687A6913403B61E1
:102930003A697B699A4240F05A813B685B6803F0D0
:102940000303012B05D03B685B6803F00303022BF4
:1029500030D17B689B68BB61FB695B00032202FA94
:1029600003F3DB43BA691340BB613B68DA68FB6978
:102970005B0002FA03F3BA691343BB617B68BA696F
:102980009A607B685B68BB610122FB6902FA03F312
:10299000DB43BA691340BB613B685B681B0903F00A
:1029A0000102FB6902FA03F3BA691343BB617B6856
:1029B000BA695A603B685B6803F00303032B17D0C6
:1029C0007B68DB68BB61FB695B00032202FA03F3EF
:1029D000DB43BA691340BB613B689A68FB695B00E3
:1029E00002FA03F3BA691343BB617B68BA69DA6020
:1029F0003B685B6803F00303022B23D1FB69DA0811
:102A00007B68083253F82230BB61FB6903F007038F
:102A10009B000F2202FA03F3DB43BA691340BB6148
:102A20003B681A69FB6903F007039B0002FA03F392
:102A3000BA691343BB61FB69DA087B680832B9697C
:102A400043F822107B681B68BB61FB695B000322B3
:102A500002FA03F3DB43BA691340BB613B685B686E
:102A600003F00302FB695B0002FA03F3BA69134344
:102A7000BB617B68BA691A603B685B6803F44033EA
:102A8000002B00F0B4800023FB60604B5B6C5F4A5E
:102A900043F4804353645D4B5B6C03F48043FB6001
:102AA000FB685B4AFB699B08023352F82330BB6129
:102AB000FB6903F003039B000F2202FA03F3DB43DD
:102AC000BA691340BB617B68524A93422BD07B6842
:102AD000514A934225D07B68504A93421FD07B686D
:102AE0004F4A934219D07B684E4A934213D07B6879
:102AF0004D4A93420DD07B684C4A934207D07B6885
:102B00004B4A934201D107230EE008230CE0062331
:102B10000AE0052308E0042306E0032304E002237F
:102B200002E0012300E00023FA6902F003029200B0
:102B30009340BA691343BB613549FB699B08023373
:102B4000BA6941F823203B4B1B68BB613B69DB43FF
:102B5000BA691340BB613B685B6803F48033002BA8
:102B600003D0BA693B691343BB61324ABB69136046
:102B7000304B5B68BB613B69DB43BA691340BB61A7
:102B80003B685B6803F40033002B03D0BA693B69F0
:102B90001343BB61274ABB695360264B9B68BB61EB
:102BA0003B69DB43BA691340BB613B685B6803F474
:102BB0008013002B03D0BA693B691343BB611D4AE4
:102BC000BB6993601B4BDB68BB613B69DB43BA6944
:102BD0001340BB613B685B6803F40013002B03D018
:102BE000BA693B691343BB61124ABB69D360FB6995
:102BF0000133FB61FB690F2B7FF690AE00BF00BF76
:102C00002437BD465DF8047B704700BF00380240A2
:102C10000038014000000240000402400008024069
:102C2000000C024000100240001402400018024054
:102C3000001C0240003C014080B483B000AF7860CB
:102C40000B467B8013467B707B78002B03D07A8801
:102C50007B689A6103E07B881A047B689A6100BFF5
:102C60000C37BD465DF8047B7047000080B483B02C
:102C700000AF064B01221A60054B1B687B607B6826
:102C800000BF0C37BD465DF8047B704720000E4244
:102C90000070004080B483B000AF064B00221A6081
:102CA000054B1B687B607B6800BF0C37BD465DF839
:102CB000047B704720000E420070004080B586B053
:102CC00000AF78607B68002B01D1012364E27B6850
:102CD0001B6803F00103002B75D0A34B9B6803F026
:102CE0000C03042B0CD0A04B9B6803F00C03082BA7
:102CF00012D19D4B5B6803F48003B3F5800F0BD1B9
:102D0000994B1B6803F40033002B5BD07B685B6836
:102D1000002B57D101233FE27B685B68B3F5803F0E
:102D200006D1914B1B68904A43F4803313601DE039
:102D30007B685B68B3F5A02F0CD18B4B1B688A4A6C
:102D400043F480231360884B1B68874A43F4803325
:102D500013600BE0844B1B68834A23F480331360B9
:102D6000814B1B68804A23F4802313607B685B6877
:102D7000002B13D0FEF744FD386108E0FEF740FD5C
:102D800002463B69D31A642B01D9032304E2764B34
:102D90001B6803F40033002BF0D014E0FEF730FD85
:102DA000386108E0FEF72CFD02463B69D31A642B1C
:102DB00001D90323F0E16C4B1B6803F40033002BB3
:102DC000F0D100E000BF7B681B6803F00203002B1A
:102DD00063D0654B9B6803F00C03002B0BD0624B58
:102DE0009B6803F00C03082B1CD15F4B5B6803F45A
:102DF0008003002B16D15C4B1B6803F00203002BF1
:102E000005D07B68DB68012B01D00123C4E1564B60
:102E10001B6823F0F8027B681B69DB0052491343EF
:102E20000B603AE07B68DB68002B20D04F4B01221F
:102E30001A60FEF7E5FC386108E0FEF7E1FC0246A7
:102E40003B69D31A022B01D90323A5E1464B1B682A
:102E500003F00203002BF0D0434B1B6823F0F80271
:102E60007B681B69DB00404913430B6015E03F4B57
:102E700000221A60FEF7C4FC386108E0FEF7C0FCCF
:102E800002463B69D31A022B01D9032384E1364B56
:102E90001B6803F00203002BF0D17B681B6803F072
:102EA0000803002B30D07B685B69002B16D0304BB9
:102EB00001221A60FEF7A4FC386108E0FEF7A0FCCE
:102EC00002463B69D31A022B01D9032364E1264B46
:102ED0005B6F03F00203002BF0D015E0244B0022BF
:102EE0001A60FEF78DFC386108E0FEF789FC0246A7
:102EF0003B69D31A022B01D903234DE11A4B5B6FB7
:102F000003F00203002BF0D17B681B6803F004037D
:102F1000002B00F0A0800023FB75134B1B6C03F00B
:102F20008053002B0FD10023BB600F4B1B6C0E4A4C
:102F300043F0805313640C4B1B6C03F08053BB6055
:102F4000BB680123FB750B4B1B6803F48073002BDC
:102F500021D1084B1B68074A43F480731360FEF7C6
:102F60004FFC386111E000BF0038024000004742CA
:102F7000800E474200700040FEF742FC02463B696B
:102F8000D31A022B01D9032306E1854B1B6803F4F6
:102F90008073002BF0D07B689B68012B06D1814B9E
:102FA0001B6F804A43F0010313671CE07B689B683A
:102FB000052B0CD17B4B1B6F7A4A43F0040313673C
:102FC000784B1B6F774A43F0010313670BE0754B97
:102FD0001B6F744A23F001031367724B1B6F714A16
:102FE00023F0040313677B689B68002B15D0FEF762
:102FF00007FC38610AE0FEF703FC02463B69D31A7E
:1030000041F28832934201D90323C5E0654B1B6F1F
:1030100003F00203002BEED014E0FEF7F1FB386161
:103020000AE0FEF7EDFB02463B69D31A41F2883213
:10303000934201D90323AFE05A4B1B6F03F0020305
:10304000002BEED1FB7D012B05D1564B1B6C554A55
:1030500023F0805313647B689B69002B00F09B80F6
:10306000504B9B6803F00C03082B5CD07B689B697A
:10307000022B41D14C4B00221A60FEF7C1FB386194
:1030800008E0FEF7BDFB02463B69D31A022B01D9CB
:10309000032381E0434B1B6803F00073002BF0D146
:1030A0007B68DA697B681B6A1A437B685B6A9B01F1
:1030B0001A437B689B6A5B08013B1B041A437B68CD
:1030C000DB6A1B06374913434B60374B01221A60FA
:1030D000FEF796FB386108E0FEF792FB02463B697B
:1030E000D31A022B01D9032356E02E4B1B6803F0A1
:1030F0000073002BF0D04EE02B4B00221A60FEF73D
:103100007FFB386108E0FEF77BFB02463B69D31A80
:10311000022B01D903233FE0224B1B6803F000730D
:10312000002BF0D137E07B689B69012B01D1012393
:1031300032E01C4B5B68FB607B689B69012B28D0ED
:10314000FB6803F480027B68DB699A4221D1FB684B
:1031500003F03F027B681B6A9A421AD1FA6847F66D
:10316000C07313407A68526A9201934211D1FB688E
:1031700003F440327B689B6A5B08013B1B049A4264
:1031800007D1FB6803F070627B68DB6A1B069A421A
:1031900001D0012300E0002318461837BD4680BD4A
:1031A00000700040003802406000474280B584B0A3
:1031B00000AF786039607B68002B01D10123CCE03F
:1031C000684B1B6803F007033A689A420CD9654BB9
:1031D0003A68D2B21A70634B1B6803F007033A686F
:1031E0009A4201D00123B8E07B681B6803F0020318
:1031F000002B20D07B681B6803F00403002B05D054
:10320000594B9B68584A43F4E05393607B681B68B2
:1032100003F00803002B05D0534B9B68524A43F43C
:1032200060439360504B9B6823F0F0027B689B687F
:103230004D4913438B607B681B6803F00103002B2F
:1032400044D07B685B68012B07D1474B1B6803F4B4
:103250000033002B19D101237FE07B685B68022BD0
:1032600003D07B685B68032B07D13F4B1B6803F0DF
:103270000073002B09D101236FE03B4B1B6803F067
:103280000203002B01D1012367E0374B9B6823F039
:1032900003027B685B68344913438B60FEF7B0FA26
:1032A000F8600AE0FEF7ACFA0246FB68D31A41F276
:1032B0008832934201D903234FE02B4B9B6803F0E4
:1032C0000C027B685B689B009A42EBD1254B1B6824
:1032D00003F007033A689A420CD2224B3A68D2B202
:1032E0001A70204B1B6803F007033A689A4201D01A
:1032F000012332E07B681B6803F00403002B08D035
:10330000194B9B6823F4E0527B68DB681649134332
:103310008B607B681B6803F00803002B09D0124BFD
:103320009B6823F460427B681B69DB000E491343F2
:103330008B6000F021F802460B4B9B681B0903F0E1
:103340000F030A49CB5C22FA03F3094A1360094BC5
:103350001B681846FEF72AF9002318461037BD46A9
:1033600080BD00BF003C024000380240908400084D
:103370000000002004000020B0B584B000AF0021A0
:1033800079600021F960002139600021B96052495B
:10339000896801F00C0108290DD0082900F29480F9
:1033A000002902D0042903D08EE04C4BBB608EE094
:1033B0004B4BBB608BE04849496801F03F017960A5
:1033C0004549496801F48001002924D042494968EF
:1033D000890908464FF0000140F2FF144FF0000544
:1033E00000EA040201EA05033D4901FB03F0002164
:1033F00001FB02F144183A49A2FB01016318194686
:103400007B681A464FF00003FDF70EFC02460B46A0
:103410001346FB604AE0304B5B689B091A464FF04D
:10342000000340F2FF104FF0000102EA000403EA3B
:103430000105204629464FF000024FF000034B01E2
:1034400043EAD063420110461946001B61EB0501B7
:103450004FF000024FF000038B0143EA90638201BA
:10346000121A63EB01034FF000004FF00001D90086
:1034700041EA5271D00002460B46121945EB030394
:103480004FF000004FF00001990241EA9251900282
:1034900002460B46104619467B681A464FF0000359
:1034A000FDF7C2FB02460B461346FB600A4B5B6806
:1034B0001B0C03F0030301335B003B60FA683B68BD
:1034C000B2FBF3F3BB6002E0044BBB6000BFBB6820
:1034D00018461037BD46B0BD003802400024F40045
:1034E00040787D0180B400AF034B1B681846BD4691
:1034F0005DF8047B704700BF0000002080B500AF7E
:10350000FFF7F0FF0246054B9B689B0A03F0070399
:103510000349CB5C22FA03F3184680BD0038024011
:10352000A084000880B483B000AF786039607B6805
:103530000F221A60124B9B6803F003027B685A60EB
:103540000F4B9B6803F0F0027B689A600C4B9B6802
:1035500003F4E0527B68DA60094B9B68DB0803F4F4
:10356000E0527B681A61074B1B6803F007023B6857
:103570001A6000BF0C37BD465DF8047B704700BF82
:1035800000380240003C024080B582B000AF786055
:103590007B68002B01D1012341E07B6893F83D302B
:1035A000DBB2002B06D17B68002283F83C207868D0
:1035B00000F039F87B68022283F83D207B681A68A6
:1035C0007B6804331946104600F0D8F97B68012265
:1035D00083F846207B68012283F83E207B68012225
:1035E00083F83F207B68012283F840207B6801221A
:1035F00083F841207B68012283F842207B68012206
:1036000083F843207B68012283F844207B680122F1
:1036100083F845207B68012283F83D20002318466B
:103620000837BD4680BD80B483B000AF786000BF6E
:103630000C37BD465DF8047B7047000080B485B050
:1036400000AF78607B6893F83D30DBB2012B01D08E
:1036500001234EE07B68022283F83D207B681B68D3
:10366000DA687B681B6842F00102DA607B681B68DD
:10367000234A934222D07B681B68B3F1804F1DD050
:103680007B681B681F4A934218D07B681B681E4AE0
:10369000934213D07B681B681C4A93420ED07B6810
:1036A0001B681B4A934209D07B681B68194A9342E6
:1036B00004D07B681B68184A934211D17B681B6851
:1036C0009B6803F00703FB60FB68062B10D07B6848
:1036D0001B681A687B681B6842F001021A6007E0E9
:1036E0007B681B681A687B681B6842F001021A60DD
:1036F000002318461437BD465DF8047B704700BFB1
:10370000000001400004004000080040000C0040A0
:1037100000040140004001400018004080B582B024
:1037200000AF78607B681B681B6903F00203022B03
:1037300022D17B681B68DB6803F00203022B1BD1DC
:103740007B681B686FF002021A617B6801221A779E
:103750007B681B689B6903F00303002B03D0786828
:1037600000F0EEF805E0786800F0E0F8786800F026
:10377000F1F87B6800221A777B681B681B6903F0ED
:103780000403042B22D17B681B68DB6803F004036D
:10379000042B1BD17B681B686FF004021A617B68E5
:1037A00002221A777B681B689B6903F44073002B25
:1037B00003D0786800F0C4F805E0786800F0B6F847
:1037C000786800F0C7F87B6800221A777B681B686E
:1037D0001B6903F00803082B22D17B681B68DB6898
:1037E00003F00803082B1BD17B681B686FF00802ED
:1037F0001A617B6804221A777B681B68DB6903F017
:103800000303002B03D0786800F09AF805E078688D
:1038100000F08CF8786800F09DF87B6800221A7739
:103820007B681B681B6903F01003102B22D17B6897
:103830001B68DB6803F01003102B1BD17B681B682F
:103840006FF010021A617B6808221A777B681B6888
:10385000DB6903F44073002B03D0786800F070F844
:1038600005E0786800F062F8786800F073F87B682B
:1038700000221A777B681B681B6903F00103012B88
:103880000ED17B681B68DB6803F00103012B07D1B5
:103890007B681B686FF001021A617868FDF7CAFD4A
:1038A0007B681B681B6903F08003802B0ED17B684B
:1038B0001B68DB6803F08003802B07D17B681B68E3
:1038C0006FF080021A61786800F002F97B681B686B
:1038D0001B6903F04003402B0ED17B681B68DB683B
:1038E00003F04003402B07D17B681B686FF0400258
:1038F0001A61786800F038F87B681B681B6903F070
:103900002003202B0ED17B681B68DB6803F02003AB
:10391000202B07D17B681B686FF020021A61786842
:1039200000F0CCF800BF0837BD4680BD80B483B03E
:1039300000AF786000BF0C37BD465DF8047B704770
:1039400080B483B000AF786000BF0C37BD465DF82F
:10395000047B704780B483B000AF786000BF0C3741
:10396000BD465DF8047B704780B483B000AF7860DB
:1039700000BF0C37BD465DF8047B704780B485B04E
:1039800000AF786039607B681B68FB607B68404AE9
:10399000934213D07B68B3F1804F0FD07B683D4AD0
:1039A00093420BD07B683C4A934207D07B683B4AEA
:1039B000934203D07B683A4A934208D1FB6823F0D4
:1039C0007003FB603B685B68FA681343FB607B68CD
:1039D0002F4A93422BD07B68B3F1804F27D07B686E
:1039E0002C4A934223D07B682B4A93421FD07B689A
:1039F0002A4A93421BD07B68294A934217D07B689E
:103A0000284A934213D07B68274A93420FD07B68A1
:103A1000264A93420BD07B68254A934207D07B68A5
:103A2000244A934203D07B68234A934208D1FB681F
:103A300023F44073FB603B68DB68FA681343FB6068
:103A4000FB6823F080023B685B691343FB607B6883
:103A5000FA681A603B689A687B68DA623B681A68A1
:103A60007B689A627B680A4A934203D07B680C4A5F
:103A7000934203D13B681A697B681A637B68012211
:103A80005A6100BF1437BD465DF8047B704700BF24
:103A9000000001400004004000080040000C00400D
:103AA0000004014000400140004401400048014042
:103AB00000180040001C00400020004080B483B08B
:103AC00000AF786000BF0C37BD465DF8047B7047DF
:103AD00080B483B000AF786000BF0C37BD465DF89E
:103AE000047B704780B483B000AF03463960FB713C
:103AF00097F90730002B0ADB3B68DAB20C4997F9DB
:103B000007301201D2B20B4483F800230AE03B686D
:103B1000DAB20849FB7903F00F03043B1201D2B279
:103B20000B441A7600BF0C37BD465DF8047B704726
:103B300000E100E000ED00E080B500AF054B1B6840
:103B400001F028FD0346012B01D002F00DFB00BF60
:103B500080BD00BF10E000E080B500AF00216FF035
:103B60000400FFF7BFFF00BF80BD000080B483B03A
:103B700000AFEFF305833B603B68002B03D06FF091
:103B800005037B600CE00A4B1B68002B05D1084B3A
:103B900001221A6000237B6002E04FF0FF337B605C
:103BA0007B6818460C37BD465DF8047B704700BF44
:103BB0009800002080B582B000AFEFF305833B6032
:103BC0003B68002B03D06FF005037B6010E00B4BCC
:103BD0001B68012B09D1FFF7BFFF084B02221A60B7
:103BE00001F07CF800237B6002E04FF0FF337B6044
:103BF0007B6818460837BD4680BD00BF980000208E
:103C000080B58EB004AFF860B9607A6000233B6184
:103C1000EFF305837B617B69002B7ED1FB68002B72
:103C20007BD080233B621823FB6100237B624FF033
:103C3000FF33BB617B68002B45D07B681B68002B82
:103C400002D07B681B687B627B689B69002B02D07B
:103C50007B689B69FB61FB69002B08D0FB69382BF3
:103C600005D87B685B6803F00103002B01D00023BB
:103C700054E07B685B69002B03D07B685B699B0821
:103C80003B627B689B68002B0ED07B68DB68BB2B9C
:103C90000AD97B681B69002B06D07B685B69002B07
:103CA00002D00123BB6110E07B689B68002B0CD124
:103CB0007B68DB68002B08D17B681B69002B04D173
:103CC0000023BB6101E00023BB61BB69012B10D164
:103CD0007B681B697A68926802920193FB69009382
:103CE000BB683A6A796AF86800F00CFE03463B61EB
:103CF00013E0BB69002B10D13B6A9AB207F11003A5
:103D00000193FB690093BB68796AF86800F057FE7D
:103D10000346012B01D000233B613B69184628373D
:103D2000BD4680BD80B584B000AF7860EFF30583F9
:103D3000BB60BB68002B03D06FF00503FB6007E09E
:103D40000023FB607B68002B02D0786800F092FFB4
:103D5000FB6818461037BD4680BD000080B485B0B2
:103D600000AFF860B9607A60FB68074A1A60BB6808
:103D7000064A1A607B6880221A6000BF1437BD466D
:103D80005DF8047B704700BF9C00002058010020B4
:103D900080B485B000AFF860B9607A60FB68074A0C
:103DA0001A60BB68064A1A607B684FF480721A601A
:103DB00000BF1437BD465DF8047B704758030020F0
:103DC0001404002080B483B000AF78607B6803F1F6
:103DD00008027B685A607B684FF0FF329A607B680C
:103DE00003F108027B68DA607B6803F108027B68F4
:103DF0001A617B6800221A6000BF0C37BD465DF86F
:103E0000047B704780B483B000AF78607B68002289
:103E10001A6100BF0C37BD465DF8047B704780B463
:103E200085B000AF786039607B685B68FB603B6899
:103E3000FA685A60FB689A683B689A60FB689B68FE
:103E40003A685A60FB683A689A603B687A681A6117
:103E50007B681B685A1C7B681A6000BF1437BD461C
:103E60005DF8047B704780B485B000AF786039603E
:103E70003B681B68BB60BB68B3F1FF3F03D17B6845
:103E80001B69FB600CE07B680833FB6002E0FB68A9
:103E90005B68FB60FB685B681B68BA689A42F6D295
:103EA000FB685A683B685A603B685B683A689A608E
:103EB0003B68FA689A60FB683A685A603B687A68BF
:103EC0001A617B681B685A1C7B681A6000BF143734
:103ED000BD465DF8047B704780B485B000AF786064
:103EE0007B681B69FB607B685B687A6892689A6094
:103EF0007B689B687A6852685A60FB685B687A687E
:103F00009A4203D17B689A68FB685A607B680022FA
:103F10001A61FB681B685A1EFB681A60FB681B6805
:103F200018461437BD465DF8047B704780B584B0F1
:103F300000AF786039607B68FB60FB68002B0AD1BA
:103F40004FF0500383F31188BFF36F8FBFF34F8F90
:103F5000BB6000BFFEE702F075F8FB681A68FB68FB
:103F6000DB6BF968096C01FB03F31A44FB689A6088
:103F7000FB6800229A63FB681A68FB685A60FB685A
:103F80001A68FB68DB6B013BF968096C01FB03F302
:103F90001A44FB68DA60FB68FF2283F84420FB6860
:103FA000FF2283F845203B68002B14D1FB681B6976
:103FB000002B1AD0FB681033184601F029F903468C
:103FC000002B12D00C4B4FF080521A60BFF34F8F72
:103FD000BFF36F8F09E0FB6810331846FFF7F2FE5E
:103FE000FB6824331846FFF7EDFE02F05BF801236F
:103FF00018461037BD4680BD04ED00E080B58EB098
:1040000002AFF860B9607A603B60FB68002B0AD1B0
:104010004FF0500383F31188BFF36F8FBFF34F8FBF
:10402000BB6200BFFEE73B68002B0AD14FF0500394
:1040300083F31188BFF36F8FBFF34F8F7B6200BF95
:10404000FEE77B68002B02D0BB68002B01D0012368
:1040500000E00023002B0AD14FF0500383F31188B6
:10406000BFF36F8FBFF34F8F3B6200BFFEE77B68EC
:10407000002B02D1BB68002B01D1012300E00023FB
:10408000002B0AD14FF0500383F31188BFF36F8FD9
:10409000BFF34F8FFB6100BFFEE750237B617B695D
:1040A000502B0AD04FF0500383F31188BFF36F8F6A
:1040B000BFF34F8FBB6100BFFEE77B693B68FB62CC
:1040C000FB6A002B0DD0FB6A012283F8462097F88B
:1040D0003820FB6A009313467A68B968F86800F0E4
:1040E00005F8FB6A18463037BD4680BD80B584B000
:1040F00000AFF860B9607A60FB70BB68002B03D139
:10410000BB69BA691A6002E0BB697A681A60BB6968
:10411000FA68DA63BB69BA681A640121B869FFF703
:1041200005FFBB69FA7883F84C2000BF1037BD4605
:1041300080BD000080B58EB000AFF860B9607A60D5
:104140003B6000237B63FB683B633B6B002B0AD126
:104150004FF0500383F31188BFF36F8FBFF34F8F7E
:10416000BB6200BFFEE7BB68002B03D13B6B1B6C3F
:10417000002B01D1012300E00023002B0AD14FF0D6
:10418000500383F31188BFF36F8FBFF34F8F7B62B0
:1041900000BFFEE73B68022B03D13B6BDB6B012BBF
:1041A00001D1012300E00023002B0AD14FF050037E
:1041B00083F31188BFF36F8FBFF34F8F3B6200BF54
:1041C000FEE701F0E7F90346002B02D17B68002BE4
:1041D00001D1012300E00023002B0AD14FF050034E
:1041E00083F31188BFF36F8FBFF34F8FFB6100BF65
:1041F000FEE701F027FF3B6B9A6B3B6BDB6B9A4250
:1042000002D33B68022B29D13A68B968386B00F0B9
:104210000BFAF8623B6B5B6A002B10D03B6B2433CC
:10422000184600F0F5FF0346002B13D03F4B4FF02C
:1042300080521A60BFF34F8FBFF36F8F0AE0FB6AA3
:10424000002B07D0394B4FF080521A60BFF34F8FCD
:10425000BFF36F8F01F026FF012363E07B68002B23
:1042600003D101F01FFF00235CE07B6B002B06D124
:1042700007F11403184601F02FF801237B6301F0C6
:1042800011FF00F09BFD01F0DDFE3B6B93F8443025
:104290005BB2B3F1FF3F03D13B6B002283F84420B4
:1042A0003B6B93F845305BB2B3F1FF3F03D13B6BFF
:1042B000002283F8452001F0F5FE3A1D07F11403B2
:1042C0001146184601F01EF80346002B24D1386B26
:1042D00000F0A2FA0346002B18D03B6B10337A682B
:1042E0001146184600F044FF386B00F02DFA00F03C
:1042F00073FD0346002B7FF47CAF0C4B4FF08052D4
:104300001A60BFF34F8FBFF36F8F72E7386B00F007
:104310001BFA00F061FD6CE7386B00F015FA00F055
:104320005BFD002318463837BD4680BD04ED00E034
:1043300080B590B000AFF860B9607A603B60FB6810
:10434000BB63BB6B002B0AD14FF0500383F3118882
:10435000BFF36F8FBFF34F8FBB6200BFFEE7BB6839
:10436000002B03D1BB6B1B6C002B01D1012300E0A0
:104370000023002B0AD14FF0500383F31188BFF3C1
:104380006F8FBFF34F8F7B6200BFFEE73B68022B4E
:1043900003D1BB6BDB6B012B01D1012300E00023B8
:1043A000002B0AD14FF0500383F31188BFF36F8FB6
:1043B000BFF34F8F3B6200BFFEE701F025FFEFF335
:1043C00011824FF0500383F31188BFF36F8FBFF357
:1043D0004F8FFA61BB61FB697B63BB6B9A6BBB6BF5
:1043E000DB6B9A4202D33B68022B2FD1BB6B93F855
:1043F000453087F83330BB6B9B6BFB623A68B9681A
:10440000B86B00F011F997F93330B3F1FF3F12D1D7
:10441000BB6B5B6A002B16D0BB6B2433184600F0D5
:10442000F7FE0346002B0ED07B68002B0BD07B6879
:1044300001221A6007E097F833300133DBB25AB239
:10444000BB6B83F845200123FB6301E00023FB6382
:104450007B6B7B617B6983F3118800BFFB6B184624
:104460004037BD4680BD000080B58CB000AFF8601D
:10447000B9607A600023FB62FB68BB62BB6A002BF9
:104480000AD14FF0500383F31188BFF36F8FBFF34E
:104490004F8F3B6200BFFEE7BB68002B03D1BB6AB6
:1044A0001B6C002B01D1012300E00023002B0AD15B
:1044B0004FF0500383F31188BFF36F8FBFF34F8F1B
:1044C000FB6100BFFEE701F065F80346002B02D157
:1044D0007B68002B01D1012300E00023002B0AD1CF
:1044E0004FF0500383F31188BFF36F8FBFF34F8FEB
:1044F000BB6100BFFEE701F0A5FDBB6A9B6B7B6261
:104500007B6A002B1FD0B968B86A00F0F7F87B6AA5
:104510005A1EBB6A9A63BB6A1B69002B0FD0BB6A29
:104520001033184600F074FE0346002B07D03D4BB5
:104530004FF080521A60BFF34F8FBFF36F8F01F0BF
:10454000B1FD012369E07B68002B03D101F0AAFDD6
:10455000002362E0FB6A002B06D107F11003184626
:1045600000F0BAFE0123FB6201F09CFD00F026FC86
:1045700001F068FDBB6A93F844305BB2B3F1FF3FD2
:1045800003D1BB6A002283F84420BB6A93F845300C
:104590005BB2B3F1FF3F03D1BB6A002283F8452031
:1045A00001F080FD3A1D07F110031146184600F096
:1045B000A9FE0346002B23D1B86A00F017F9034681
:1045C000002B17D0BB6A24337A681146184600F0D6
:1045D000CFFDB86A00F0B8F800F0FEFB0346002BF0
:1045E00089D1104B4FF080521A60BFF34F8FBFF349
:1045F0006F8F80E7B86A00F0A7F800F0EDFB7AE76C
:10460000B86A00F0A1F800F0E7FBB86A00F0EEF835
:104610000346002B3FF46FAF002318463037BD46EA
:1046200080BD00BF04ED00E080B586B000AFF8604B
:10463000B9607A6000237B61FB689B6B3B61FB6820
:104640001B6C002B0DD1FB681B68002B4DD1FB6848
:104650009B68184600F0BCFF7861FB6800229A60F6
:1046600043E07B68002B19D1FB685868FB681B6C22
:104670001A46B96802F050FAFB685A68FB681B6C6E
:104680001A44FB685A60FB685A68FB689B689A4248
:104690002BD3FB681A68FB685A6026E0FB68D86871
:1046A000FB681B6C1A46B96802F036FAFB68DA68D8
:1046B000FB681B6C5B421A44FB68DA60FB68DA68D3
:1046C000FB681B689A4207D2FB689A68FB681B6C00
:1046D0005B421A44FB68DA607B68022B05D13B69B8
:1046E000002B02D03B69013B3B613B695A1CFB68D4
:1046F0009A637B6918461837BD4680BD80B582B085
:1047000000AF786039607B681B6C002B18D07B6829
:10471000DA687B681B6C1A447B68DA607B68DA684D
:104720007B689B689A4203D37B681A687B68DA606F
:104730007B68D9687B681B6C1A46386802F0ECF914
:1047400000BF0837BD4680BD80B584B000AF78603B
:1047500001F078FC7B6893F84530FB7311E07B68CF
:104760005B6A002B12D07B682433184600F050FDA2
:104770000346002B01D000F027FEFB7B013BDBB2A0
:10478000FB7397F90F30002BE9DC00E000BF7B687A
:10479000FF2283F8452001F085FC01F053FC7B6883
:1047A00093F84430BB7311E07B681B69002B12D077
:1047B0007B681033184600F02BFD0346002B01D018
:1047C00000F002FEBB7B013BDBB2BB7397F90E30FE
:1047D000002BE9DC00E000BF7B68FF2283F8442067
:1047E00001F060FC00BF1037BD4680BD80B584B0CD
:1047F00000AF786001F026FC7B689B6B002B02D138
:104800000123FB6001E00023FB6001F04BFCFB682F
:1048100018461037BD4680BD80B584B000AF7860C3
:1048200001F010FC7B689A6B7B68DB6B9A4202D1CB
:104830000123FB6001E00023FB6001F033FCFB6817
:1048400018461037BD4680BD80B485B000AF786093
:1048500039600023FB6014E00F4AFB6852F83330E4
:10486000002B0BD10C49FB683A6841F833200A4A07
:10487000FB68DB0013447A685A6006E0FB6801338A
:10488000FB60FB68072BE7D900BF00BF1437BD46AC
:104890005DF8047B704700BFD44B002080B586B024
:1048A00000AFF860B9607A60FB687B6101F0CAFB19
:1048B0007B6993F844305BB2B3F1FF3F03D17B696E
:1048C000002283F844207B6993F845305BB2B3F152
:1048D000FF3F03D17B69002283F8452001F0E2FB12
:1048E0007B699B6B002B06D17B6924337A68B9689E
:1048F000184600F061FC7869FFF726FF00BF183703
:10490000BD4680BD80B58EB004AFF860B9607A60F6
:104910003B607B6B002B0AD14FF0500383F311886F
:10492000BFF36F8FBFF34F8F3B6200BFFEE7BB6BE0
:10493000002B0AD14FF0500383F31188BFF36F8F20
:10494000BFF34F8FFB6100BFFEE7BC233B613B69B8
:10495000BC2B0AD04FF0500383F31188BFF36F8F45
:10496000BFF34F8FBB6100BFFEE73B69BB6B002B02
:104970001ED07B6B002B1BD0BB6B7B627B6A7A6B80
:104980001A637B6A022283F8B920002303937B6AAF
:10499000029307F1140301933B6B00933B687A6821
:1049A000B968F86800F050F8786A00F0F3F801E0B0
:1049B00000237B617B6918462837BD4680BD80B5E2
:1049C0008CB004AFF860B9603B601346FB80FB8895
:1049D0009B00184601F058FC78617B69002B0ED0D3
:1049E000BC2001F051FCF861FB69002B03D0FB698E
:1049F0007A691A6305E0786901F012FD01E000238D
:104A0000FB61FB69002B17D0FB69002283F8B920FA
:104A1000FA8800230393FB690293FB6A0193BB6A44
:104A200000933B68B968F86800F00EF8F86900F088
:104A3000B1F80123BB6102E04FF0FF33BB61BB69FA
:104A400018462037BD4680BD80B588B000AFF860FD
:104A5000B9607A603B603B6B186B7B689B001A46C1
:104A6000A52102F067F83B6B1A6B7B6803F180436A
:104A7000013B9B001344BB61BB6923F00703BB618F
:104A8000BB6903F00703002B0AD04FF0500383F3F8
:104A90001188BFF36F8FBFF34F8F7B6100BFFEE7BD
:104AA000BB68002B1FD00023FB6112E0BA68FB69D2
:104AB000134419783A6BFB69134434330A461A706D
:104AC000BA68FB6913441B78002B06D0FB690133DD
:104AD000FB61FB690F2BE9D900E000BF3B6B0022B3
:104AE00083F8432003E03B6B002283F83420BB6A49
:104AF000372B01D93723BB623B6BBA6ADA623B6B57
:104B0000BA6ADA643B6B00221A653B6B04331846C1
:104B1000FFF778F93B6B18331846FFF773F93B6BD7
:104B20003A6B1A61BB6AC3F138023B6B9A613B6B0B
:104B30003A6B5A623B6B0022C3F8B4203B6B0022F5
:104B400083F8B8203B6B543360220021184601F0F3
:104B5000F1FF3B6B0C4A9A653B6B0C4ADA653B6B89
:104B60000B4A1A663A68F968B86901F041F90246D9
:104B70003B6B1A60FB6A002B02D0FB6A3A6B1A602F
:104B800000BF2037BD4680BD348F0008548F000819
:104B9000148F000880B582B000AF786001F052FA3F
:104BA0002D4B1B6801332C4A13602C4B1B68002BC8
:104BB00009D12A4A7B681360274B1B68012B10D14F
:104BC00000F026FC0DE0264B1B68002B09D1234B7F
:104BD0001B68DA6A7B68DB6A9A4202D81F4A7B68E4
:104BE0001360204B1B6801331E4A13601D4B1A686B
:104BF0007B685A647B68DA6A1B4B1B689A4203D94C
:104C00007B68DB6A184A13607B68DA6A13469B008C
:104C100013449B00154A1A447B6804331946104616
:104C2000FFF7FDF801F03EFA0D4B1B68002B0ED08C
:104C30000A4B1B68DA6A7B68DB6A9A4207D20C4B24
:104C40004FF080521A60BFF34F8FBFF36F8F00BFDA
:104C50000837BD4680BD00BFE80C002014080020C6
:104C6000F40C0020040D0020F00C00201808002097
:104C700004ED00E080B584B000AF78600023FB60F5
:104C80007B68002B17D0134B1B68002B0AD04FF00A
:104C9000500383F31188BFF36F8FBFF34F8FBB6057
:104CA00000BFFEE700F08AF80021786800F0FEFC03
:104CB00000F092F8F860FB68002B07D1064B4FF02C
:104CC00080521A60BFF34F8FBFF36F8F00BF103752
:104CD000BD4680BD100D002004ED00E080B58AB017
:104CE00004AF0023BB6000237B603A46391D07F107
:104CF00008031846FFF732F839687B68BA680292F1
:104D000001930023009300230A4624492448FFF717
:104D1000F9FD0346234A1360224B1B68002B02D087
:104D200001237B6101E000237B617B69012B02D1C0
:104D300000F010FD78617B69012B1BD14FF050030F
:104D400083F31188BFF36F8FBFF34F8F3B6100BFB9
:104D5000154B1B685433154A1360154B4FF0FF3247
:104D60001A60144B01221A60134B00221A6001F0E2
:104D7000C7F80EE07B69B3F1FF3F0AD14FF0500353
:104D800083F31188BFF36F8FBFF34F8FFB6000BFBA
:104D9000FEE700BF1837BD4680BD00BF0C84000889
:104DA000E15300080C0D0020140800201000002022
:104DB000080D0020F40C0020EC0C002080B400AFA3
:104DC000044B1B680133034A136000BFBD465DF806
:104DD000047B7047100D002080B584B000AF002325
:104DE000FB600023BB60424B1B68002B0AD14FF0D5
:104DF000500383F31188BFF36F8FBFF34F8F3B6076
:104E000000BFFEE701F01EF9394B1B68013B384A31
:104E10001360374B1B68002B62D1364B1B68002B8D
:104E20005ED02FE0344BDB68DB68FB60FB68183337
:104E30001846FFF751F8FB6804331846FFF74CF8A3
:104E4000FB68DA6A2D4B1B689A4203D9FB68DB6A60
:104E50002A4A1360FB68DA6A13469B0013449B00DE
:104E6000274A1A44FB68043319461046FEF7D7FF59
:104E7000FB68DA6A234B1B68DB6A9A4202D3224B37
:104E800001221A601C4B1B68002BCBD1FB68002B46
:104E900001D000F05FFB1D4B1B687B607B68002B23
:104EA00010D000F047F80346002B02D0164B012229
:104EB0001A607B68013B7B607B68002BF1D1134B50
:104EC00000221A60104B1B68002B09D00123BB6025
:104ED0000F4B4FF080521A60BFF34F8FBFF36F8FAD
:104EE00001F0E0F8BB6818461037BD4680BD00BF32
:104EF000100D0020E80C0020A80C0020F00C002071
:104F00001808002014080020FC0C0020F80C0020D9
:104F100004ED00E080B483B000AF054B1B687B60FC
:104F20007B6818460C37BD465DF8047B704700BFB0
:104F3000EC0C002080B586B000AF00237B614F4BA6
:104F40001B68002B40F08F804D4B1B6801333B6189
:104F50004B4A3B6913603B69002B20D1494B1B68CE
:104F60001B68002B0AD04FF0500383F31188BFF366
:104F70006F8FBFF34F8F3B6000BFFEE7414B1B6855
:104F8000FB60414B1B683F4A13603F4AFB6813605C
:104F90003E4B1B6801333D4A136000F0DBFA3C4B8B
:104FA0001B683A699A4249D3364B1B681B68002B31
:104FB00004D1374B4FF0FF321A603FE0314B1B6892
:104FC000DB68DB68BB60BB685B687B603A697B68F9
:104FD0009A4203D22E4A7B6813602FE0BB680433E9
:104FE0001846FEF779FFBB689B6A002B04D0BB68AC
:104FF00018331846FEF770FFBB68DA6A254B1B684A
:105000009A4203D9BB68DB6A224A1360BB68DA6A3A
:1050100013469B0013449B001F4A1A44BB68043389
:1050200019461046FEF7FBFEBB68DA6A1B4B1B688D
:10503000DB6A9A42B8D301237B61B5E7174B1B6843
:10504000DA6A154913469B0013449B000B441B6806
:10505000012B01D901237B61114B1B68002B07D069
:1050600001237B6104E00F4B1B6801330D4A136081
:105070007B6918461837BD4680BD00BF100D002063
:10508000EC0C0020A00C0020A40C0020000D00203F
:10509000080D0020F00C0020180800201408002043
:1050A000FC0C0020F80C002080B485B000AF2A4B27
:1050B0001B68002B03D0294B01221A6046E0274BC6
:1050C00000221A60264B1B68FB6010E0FB68002B77
:1050D0000AD14FF0500383F31188BFF36F8FBFF3F2
:1050E0004F8F7B6000BFFEE7FB68013BFB601D4903
:1050F000FA6813469B0013449B000B441B68002B6B
:10510000E4D0FA6813469B0013449B00154A1344ED
:10511000BB60BB685B685A68BB685A60BB685A680A
:10512000BB6808339A4204D1BB685B685A68BB68A5
:105130005A60BB685B68DB680B4A1360084AFB680F
:105140001360094B1B685433084A136000BF1437BF
:10515000BD465DF8047B7047100D0020FC0C00205C
:10516000F00C002018080020140800201000002077
:1051700080B584B000AF786039607B68002B0AD1BD
:105180004FF0500383F31188BFF36F8FBFF34F8F3E
:10519000FB6000BFFEE7074B1B68183319467868B1
:1051A000FEF761FE0121386800F080FA00BF103779
:1051B000BD4680BD1408002080B586B000AFF86001
:1051C000B9607A60FB68002B0AD14FF0500383F37B
:1051D0001188BFF36F8FBFF34F8F7B6100BFFEE776
:1051E0000A4B1B6818331946F868FEF718FE7B68EF
:1051F000002B02D04FF0FF33BB607968B86800F035
:1052000055FA00BF1837BD4680BD00BF1408002006
:1052100080B586B000AF78607B68DB68DB683B6197
:105220003B69002B0AD14FF0500383F31188BFF381
:105230006F8FBFF34F8FFB6000BFFEE73B691833F2
:105240001846FEF749FE1E4B1B68002B1DD13B691B
:1052500004331846FEF740FE3B69DA6A194B1B68B7
:105260009A4203D93B69DB6A164A13603B69DA6AE2
:1052700013469B0013449B00134A1A443B690433B2
:1052800019461046FEF7CBFD05E03B691833194679
:105290000E48FEF7C4FD3B69DA6A0D4B1B68DB6AFA
:1052A0009A4205D901237B610A4B01221A6001E071
:1052B00000237B617B6918461837BD4680BD00BF5F
:1052C000100D0020F00C002018080020A80C002071
:1052D00014080020FC0C002080B483B000AF78607C
:1052E000064B1A687B681A60054B1A687B685A601F
:1052F00000BF0C37BD465DF8047B7047000D0020F1
:10530000EC0C002080B588B000AF786039607B6815
:10531000002B0AD14FF0500383F31188BFF36F8F36
:10532000BFF34F8F3B6100BFFEE73B68002B0AD104
:105330004FF0500383F31188BFF36F8FBFF34F8F8C
:10534000FB6000BFFEE700F07DFE1D4B1B68BB61EC
:105350007B685B68BA69D31A7B613B681B68B3F1F1
:10536000FF3F02D10023FB6123E07B681A68154BE5
:105370001B689A4207D07B685B68BA699A4202D37D
:105380000123FB6115E03B681B687A699A420BD2E6
:105390003B681A687B69D21A3B681A607868FFF725
:1053A0009BFF0023FB6104E03B6800221A6001239D
:1053B000FB6100F077FEFB6918462037BD4680BDD3
:1053C000EC0C0020000D002080B400AF034B012244
:1053D0001A6000BFBD465DF8047B7047FC0C0020DE
:1053E00080B582B000AF786000F052F8064B1B68C1
:1053F000012BF9D9054B4FF080521A60BFF34F8F44
:10540000BFF36F8FF0E700BF1808002004ED00E045
:1054100080B582B000AF00237B600CE07A68134651
:105420009B0013449B00124A13441846FEF7CAFC23
:105430007B6801337B607B68372BEFD90D48FEF723
:10544000C1FC0D48FEF7BEFC0C48FEF7BBFC0C4847
:10545000FEF7B8FC0B48FEF7B5FC0B4B054A1A608B
:105460000A4B054A1A6000BF0837BD4680BD00BF21
:1054700018080020780C00208C0C0020A80C0020BC
:10548000BC0C0020D40C0020A00C0020A40C002098
:1054900080B582B000AF19E000F0D4FD104BDB689E
:1054A000DB687B607B6804331846FEF715FD0D4B07
:1054B0001B68013B0B4A13600B4B1B68013B0A4AFC
:1054C000136000F0EFFD786800F010F8064B1B68E1
:1054D000002BE1D100BF00BF0837BD4680BD00BF33
:1054E000BC0C0020E80C0020D00C002080B584B05B
:1054F00000AF78607B685433184601F08BFB7B6803
:1055000093F8B930002B08D17B681B6B184600F06C
:1055100087FF786800F084FF18E07B6893F8B93063
:10552000012B03D1786800F07BFF0FE07B6893F8D4
:10553000B930022B0AD04FF0500383F31188BFF328
:105540006F8FBFF34F8FFB6000BFFEE700BF1037C8
:10555000BD4680BD80B483B000AF0C4B1B681B6898
:10556000002B04D10A4B4FF0FF321A6008E0074BC2
:105570001B68DB68DB687B607B685B68044A1360E0
:1055800000BF0C37BD465DF8047B7047A00C0020BF
:10559000080D002080B483B000AF0B4B1B68002BBC
:1055A00002D101237B6008E0084B1B68002B02D16D
:1055B00002237B6001E000237B607B6818460C3788
:1055C000BD465DF8047B7047F40C0020100D0020F0
:1055D00080B586B000AF78607B683B6100237B615B
:1055E0007B68002B56D02E4B1B683A699A420AD032
:1055F0004FF0500383F31188BFF36F8FBFF34F8FCA
:10560000FB6000BFFEE73B691B6D002B0AD14FF02A
:10561000500383F31188BFF36F8FBFF34F8FBB60CD
:1056200000BFFEE73B691B6D5A1E3B691A653B696B
:10563000DA6A3B69DB6C9A422CD03B691B6D002B0C
:1056400028D13B6904331846FEF746FC3B69DA6C07
:105650003B69DA623B69DB6AC3F138023B699A61F4
:105660003B69DA6A0F4B1B689A4203D93B69DB6AD4
:105670000C4A13603B69DA6A13469B0013449B0093
:10568000094A1A443B69043319461046FEF7C7FB22
:1056900001237B617B6918461837BD4680BD00BF7A
:1056A00014080020F00C00201808002080B584B0F9
:1056B00000AF78603960214B1B68FB60204B1B6892
:1056C00004331846FEF708FC7B68B3F1FF3F0AD1AC
:1056D0003B68002B07D01A4B1B6804331946194846
:1056E000FEF79DFB26E0FA687B681344BB60144B11
:1056F0001B68BA685A60BA68FB689A4209D2124BB2
:105700001A680F4B1B68043319461046FEF7ABFBB3
:1057100010E00E4B1A680A4B1B68043319461046FA
:10572000FEF7A1FB0A4B1B68BA689A4202D2084AEC
:10573000BB68136000BF1037BD4680BDEC0C002075
:1057400014080020D40C0020A40C0020A00C002081
:10575000080D002080B58AB004AF00237B6100F003
:1057600007FB1C4B1B68002B21D00023FB60002390
:10577000BB603A1D07F1080107F10C031846FEF75C
:1057800007FB7968BB68FA680292019302230093D1
:1057900000230A4610491148FFF7B4F80346104A9F
:1057A00013600F4B1B68002B01D001237B617B69C9
:1057B000002B0AD14FF0500383F31188BFF36F8F92
:1057C000BFF34F8F3B6100BFFEE77B691846183778
:1057D000BD4680BD440D00201484000819590008FE
:1057E000480D002080B58AB000AFF860B9607A60DB
:1057F0003B6000237B62FB68002B0AD14FF0500313
:1058000083F31188BFF36F8FBFF34F8F3B6200BFED
:10581000FEE71A4B1B68002B2AD0BB683B617B68F4
:105820007B61FB68BB61BB68052B18DCFFF7B2FE30
:105830000346022B09D1114B186807F11001002310
:105840003A6BFEF777FC786212E00C4B186807F1B0
:10585000100100230022FEF76DFC786208E0074B80
:10586000186807F1100100233A68FEF761FD7862BD
:105870007B6A18462837BD4680BD00BF440D002016
:1058800080B588B002AF78603960224B1B68DB6856
:10589000DB687B617B6904331846FEF71DFB7B697F
:1058A00093F8283003F00403002B22D07B699A6917
:1058B0007B68D1187B683A68786900F0D1F80346B4
:1058C000002B1FD00023009300237A680021786901
:1058D000FFF788FF38613B69002B13D14FF050036D
:1058E00083F31188BFF36F8FBFF34F8FFB6000BF4F
:1058F000FEE77B6993F8283023F00103DAB27B6975
:1059000083F828207B691B6A7869984700BF18379D
:10591000BD4680BD3C0D002080B584B000AF7860EE
:1059200007F10803184600F057F8F860BB681946FD
:10593000F86800F003F800F0D5F8F1E780B584B01E
:1059400000AF78603960FFF739FA07F108031846AD
:1059500000F066F8F860BB68002B30D13B68002B84
:105960000AD17A68FB689A4206D8FFF735FAF968D7
:105970007868FFF785FF24E03B68002B08D0134BC5
:105980001B681B68002B01D1012300E000233B6052
:105990000F4B18687A68FB68D31A3A681946FEF705
:1059A0007DFFFFF719FA0346002B0AD1094B4FF090
:1059B00080521A60BFF34F8FBFF36F8F01E0FFF784
:1059C0000BFA00BF1037BD4680BD00BF400D002060
:1059D000440D002004ED00E080B485B000AF786095
:1059E0000E4B1B681B68002B01D1012200E0002236
:1059F0007B681A607B681B68002B05D1074B1B680E
:105A0000DB681B68FB6001E00023FB60FB68184655
:105A10001437BD465DF8047B704700BF3C0D002085
:105A200080B584B000AF7860FFF774FAF8600B4B74
:105A30001B68FA689A4205D200F036F97B680122A9
:105A40001A6002E07B6800221A60044AFB68136057
:105A5000FB6818461037BD4680BD00BF4C0D0020C6
:105A600080B586B000AFF860B9607A603B60002313
:105A70007B61FB68BA685A60FB68FA681A61BA68A9
:105A80007B689A4212D87A683B68D21AFB689B6995
:105A90009A4202D301237B611BE0104B1A68FB681A
:105AA000043319461046FEF7DEF912E07A683B68C7
:105AB0009A4206D2BA683B689A4202D301237B61BC
:105AC00007E0074B1A68FB68043319461046FEF7D7
:105AD000CAF97B6918461837BD4680BD400D0020C5
